{"abi":[{"type":"constructor","inputs":[{"name":"_owner","type":"address","internalType":"address"}],"stateMutability":"nonpayable"},{"type":"function","name":"executeDelegateCall","inputs":[{"name":"_target","type":"address","internalType":"address"},{"name":"_data","type":"bytes","internalType":"bytes"}],"outputs":[{"name":"","type":"bytes","internalType":"bytes"}],"stateMutability":"nonpayable"},{"type":"function","name":"owner","inputs":[],"outputs":[{"name":"","type":"address","internalType":"address"}],"stateMutability":"view"},{"type":"function","name":"transferOwnership","inputs":[{"name":"_proxyAdmin","type":"address","internalType":"address"},{"name":"_newOwner","type":"address","internalType":"address"}],"outputs":[],"stateMutability":"nonpayable"},{"type":"error","name":"NotOwner","inputs":[]}],"bytecode":{"object":"0x60a0604052348015600e575f5ffd5b506040516105ae3803806105ae833981016040819052602b91603b565b6001600160a01b03166080526066565b5f60208284031215604a575f5ffd5b81516001600160a01b0381168114605f575f5ffd5b9392505050565b60805161052b6100835f395f8181605d015260e1015261052b5ff3fe608060405234801561000f575f5ffd5b506004361061003f575f3560e01c80636d435421146100435780638da5cb5b14610058578063b68df16d146100a9575b5f5ffd5b610056610051366004610356565b6100c9565b005b61007f7f000000000000000000000000000000000000000000000000000000000000000081565b60405173ffffffffffffffffffffffffffffffffffffffff90911681526020015b60405180910390f35b6100bc6100b73660046103b4565b6102ae565b6040516100a091906104b5565b3373ffffffffffffffffffffffffffffffffffffffff7f00000000000000000000000000000000000000000000000000000000000000001614610138576040517f30cd747100000000000000000000000000000000000000000000000000000000815260040160405180910390fd5b60405173ffffffffffffffffffffffffffffffffffffffff821660248201525f90604401604080517fffffffffffffffffffffffffffffffffffffffffffffffffffffffffffffffe08184030181529181526020820180517bffffffffffffffffffffffffffffffffffffffffffffffffffffffff167ff2fde38b00000000000000000000000000000000000000000000000000000000179052519091505f9073ffffffffffffffffffffffffffffffffffffffff8516906101fb908490610508565b5f604051808303815f865af19150503d805f8114610234576040519150601f19603f3d011682016040523d82523d5f602084013e610239565b606091505b50509050806102a8576040517f08c379a000000000000000000000000000000000000000000000000000000000815260206004820152601960248201527f5472616e736665724f776e6572736869703a206661696c656400000000000000604482015260640160405180910390fd5b50505050565b60605f5f8473ffffffffffffffffffffffffffffffffffffffff16846040516102d79190610508565b5f60405180830381855af49150503d805f811461030f576040519150601f19603f3d011682016040523d82523d5f602084013e610314565b606091505b50915091508161032657805160208201fd5b949350505050565b803573ffffffffffffffffffffffffffffffffffffffff81168114610351575f5ffd5b919050565b5f5f60408385031215610367575f5ffd5b6103708361032e565b915061037e6020840161032e565b90509250929050565b7f4e487b71000000000000000000000000000000000000000000000000000000005f52604160045260245ffd5b5f5f604083850312156103c5575f5ffd5b6103ce8361032e565b9150602083013567ffffffffffffffff8111156103e9575f5ffd5b8301601f810185136103f9575f5ffd5b803567ffffffffffffffff81111561041357610413610387565b6040517fffffffffffffffffffffffffffffffffffffffffffffffffffffffffffffffe0603f7fffffffffffffffffffffffffffffffffffffffffffffffffffffffffffffffe0601f8501160116810181811067ffffffffffffffff8211171561047f5761047f610387565b604052818152828201602001871015610496575f5ffd5b816020840160208301375f602083830101528093505050509250929050565b602081525f82518060208401528060208501604085015e5f6040828501015260407fffffffffffffffffffffffffffffffffffffffffffffffffffffffffffffffe0601f83011684010191505092915050565b5f82518060208501845e5f92019182525091905056fea164736f6c634300081b000a","linkReferences":{}},"methodIdentifiers":{"executeDelegateCall(address,bytes)":"b68df16d","owner()":"8da5cb5b","transferOwnership(address,address)":"6d435421"},"storageLayout":{"storage":[],"types":{}},"userdoc":{"version":1,"kind":"user"},"devdoc":{"version":1,"kind":"dev"},"id":0}