{
  "address": "0xD1230865641561653406906Fb08873F011c19080",
  "abi": [
    {
      "inputs": [
        {
          "internalType": "uint256",
          "name": "_submissionInterval",
          "type": "uint256"
        },
        {
          "internalType": "uint256",
          "name": "_l2BlockTime",
          "type": "uint256"
        },
        {
          "internalType": "uint256",
          "name": "_startingBlockNumber",
          "type": "uint256"
        },
        {
          "internalType": "uint256",
          "name": "_startingTimestamp",
          "type": "uint256"
        },
        {
          "internalType": "address",
          "name": "_proposer",
          "type": "address"
        },
        {
          "internalType": "address",
          "name": "_challenger",
          "type": "address"
        },
        {
          "internalType": "uint256",
          "name": "_finalizationPeriodSeconds",
          "type": "uint256"
        }
      ],
      "stateMutability": "nonpayable",
      "type": "constructor"
    },
    {
      "anonymous": false,
      "inputs": [
        {
          "indexed": false,
          "internalType": "uint8",
          "name": "version",
          "type": "uint8"
        }
      ],
      "name": "Initialized",
      "type": "event"
    },
    {
      "anonymous": false,
      "inputs": [
        {
          "indexed": true,
          "internalType": "bytes32",
          "name": "outputRoot",
          "type": "bytes32"
        },
        {
          "indexed": true,
          "internalType": "uint256",
          "name": "l2OutputIndex",
          "type": "uint256"
        },
        {
          "indexed": true,
          "internalType": "uint256",
          "name": "l2BlockNumber",
          "type": "uint256"
        },
        {
          "indexed": false,
          "internalType": "uint256",
          "name": "l1Timestamp",
          "type": "uint256"
        }
      ],
      "name": "OutputProposed",
      "type": "event"
    },
    {
      "anonymous": false,
      "inputs": [
        {
          "indexed": true,
          "internalType": "uint256",
          "name": "prevNextOutputIndex",
          "type": "uint256"
        },
        {
          "indexed": true,
          "internalType": "uint256",
          "name": "newNextOutputIndex",
          "type": "uint256"
        }
      ],
      "name": "OutputsDeleted",
      "type": "event"
    },
    {
      "inputs": [],
      "name": "CHALLENGER",
      "outputs": [
        {
          "internalType": "address",
          "name": "",
          "type": "address"
        }
      ],
      "stateMutability": "view",
      "type": "function"
    },
    {
      "inputs": [],
      "name": "FINALIZATION_PERIOD_SECONDS",
      "outputs": [
        {
          "internalType": "uint256",
          "name": "",
          "type": "uint256"
        }
      ],
      "stateMutability": "view",
      "type": "function"
    },
    {
      "inputs": [],
      "name": "L2_BLOCK_TIME",
      "outputs": [
        {
          "internalType": "uint256",
          "name": "",
          "type": "uint256"
        }
      ],
      "stateMutability": "view",
      "type": "function"
    },
    {
      "inputs": [],
      "name": "PROPOSER",
      "outputs": [
        {
          "internalType": "address",
          "name": "",
          "type": "address"
        }
      ],
      "stateMutability": "view",
      "type": "function"
    },
    {
      "inputs": [],
      "name": "SUBMISSION_INTERVAL",
      "outputs": [
        {
          "internalType": "uint256",
          "name": "",
          "type": "uint256"
        }
      ],
      "stateMutability": "view",
      "type": "function"
    },
    {
      "inputs": [
        {
          "internalType": "uint256",
          "name": "_l2BlockNumber",
          "type": "uint256"
        }
      ],
      "name": "computeL2Timestamp",
      "outputs": [
        {
          "internalType": "uint256",
          "name": "",
          "type": "uint256"
        }
      ],
      "stateMutability": "view",
      "type": "function"
    },
    {
      "inputs": [
        {
          "internalType": "uint256",
          "name": "_l2OutputIndex",
          "type": "uint256"
        }
      ],
      "name": "deleteL2Outputs",
      "outputs": [],
      "stateMutability": "nonpayable",
      "type": "function"
    },
    {
      "inputs": [
        {
          "internalType": "uint256",
          "name": "_l2OutputIndex",
          "type": "uint256"
        }
      ],
      "name": "getL2Output",
      "outputs": [
        {
          "components": [
            {
              "internalType": "bytes32",
              "name": "outputRoot",
              "type": "bytes32"
            },
            {
              "internalType": "uint128",
              "name": "timestamp",
              "type": "uint128"
            },
            {
              "internalType": "uint128",
              "name": "l2BlockNumber",
              "type": "uint128"
            }
          ],
          "internalType": "struct Types.OutputProposal",
          "name": "",
          "type": "tuple"
        }
      ],
      "stateMutability": "view",
      "type": "function"
    },
    {
      "inputs": [
        {
          "internalType": "uint256",
          "name": "_l2BlockNumber",
          "type": "uint256"
        }
      ],
      "name": "getL2OutputAfter",
      "outputs": [
        {
          "components": [
            {
              "internalType": "bytes32",
              "name": "outputRoot",
              "type": "bytes32"
            },
            {
              "internalType": "uint128",
              "name": "timestamp",
              "type": "uint128"
            },
            {
              "internalType": "uint128",
              "name": "l2BlockNumber",
              "type": "uint128"
            }
          ],
          "internalType": "struct Types.OutputProposal",
          "name": "",
          "type": "tuple"
        }
      ],
      "stateMutability": "view",
      "type": "function"
    },
    {
      "inputs": [
        {
          "internalType": "uint256",
          "name": "_l2BlockNumber",
          "type": "uint256"
        }
      ],
      "name": "getL2OutputIndexAfter",
      "outputs": [
        {
          "internalType": "uint256",
          "name": "",
          "type": "uint256"
        }
      ],
      "stateMutability": "view",
      "type": "function"
    },
    {
      "inputs": [
        {
          "internalType": "uint256",
          "name": "_startingBlockNumber",
          "type": "uint256"
        },
        {
          "internalType": "uint256",
          "name": "_startingTimestamp",
          "type": "uint256"
        }
      ],
      "name": "initialize",
      "outputs": [],
      "stateMutability": "nonpayable",
      "type": "function"
    },
    {
      "inputs": [],
      "name": "latestBlockNumber",
      "outputs": [
        {
          "internalType": "uint256",
          "name": "",
          "type": "uint256"
        }
      ],
      "stateMutability": "view",
      "type": "function"
    },
    {
      "inputs": [],
      "name": "latestOutputIndex",
      "outputs": [
        {
          "internalType": "uint256",
          "name": "",
          "type": "uint256"
        }
      ],
      "stateMutability": "view",
      "type": "function"
    },
    {
      "inputs": [],
      "name": "nextBlockNumber",
      "outputs": [
        {
          "internalType": "uint256",
          "name": "",
          "type": "uint256"
        }
      ],
      "stateMutability": "view",
      "type": "function"
    },
    {
      "inputs": [],
      "name": "nextOutputIndex",
      "outputs": [
        {
          "internalType": "uint256",
          "name": "",
          "type": "uint256"
        }
      ],
      "stateMutability": "view",
      "type": "function"
    },
    {
      "inputs": [
        {
          "internalType": "bytes32",
          "name": "_outputRoot",
          "type": "bytes32"
        },
        {
          "internalType": "uint256",
          "name": "_l2BlockNumber",
          "type": "uint256"
        },
        {
          "internalType": "bytes32",
          "name": "_l1BlockHash",
          "type": "bytes32"
        },
        {
          "internalType": "uint256",
          "name": "_l1BlockNumber",
          "type": "uint256"
        }
      ],
      "name": "proposeL2Output",
      "outputs": [],
      "stateMutability": "nonpayable",
      "type": "function"
    },
    {
      "inputs": [],
      "name": "startingBlockNumber",
      "outputs": [
        {
          "internalType": "uint256",
          "name": "",
          "type": "uint256"
        }
      ],
      "stateMutability": "view",
      "type": "function"
    },
    {
      "inputs": [],
      "name": "startingTimestamp",
      "outputs": [
        {
          "internalType": "uint256",
          "name": "",
          "type": "uint256"
        }
      ],
      "stateMutability": "view",
      "type": "function"
    },
    {
      "inputs": [],
      "name": "version",
      "outputs": [
        {
          "internalType": "string",
          "name": "",
          "type": "string"
        }
      ],
      "stateMutability": "view",
      "type": "function"
    }
  ],
  "transactionHash": "0xa5dca8de4c9a713d4ed3fc02b487bd16fcdafb4c974b2b80e4fc946fe1bd940b",
  "args": [
    1800,
    2,
    0,
    0,
    "0x6667961f5e9C98A76a48767522150889703Ed77D",
    "0x2F44BD2a54aC3fB20cd7783cF94334069641daC9",
    604800
  ],
  "numDeployments": 1,
  "solcInputHash": "60edf8c01f960b02b4297eb584726440",
  "bytecode": "0x6101806040523480156200001257600080fd5b5060405162001a2538038062001a25833981016040819052620000359162000356565b6001608052600360a052600060c05285620000bd5760405162461bcd60e51b815260206004820152603460248201527f4c324f75747075744f7261636c653a204c3220626c6f636b2074696d65206d7560448201527f73742062652067726561746572207468616e203000000000000000000000000060648201526084015b60405180910390fd5b60008711620001355760405162461bcd60e51b815260206004820152603a60248201527f4c324f75747075744f7261636c653a207375626d697373696f6e20696e74657260448201527f76616c206d7573742062652067726561746572207468616e20300000000000006064820152608401620000b4565b60e08790526101008690526001600160a01b038084166101405282166101205261016081905262000167858562000174565b50505050505050620003be565b600054610100900460ff1615808015620001955750600054600160ff909116105b80620001c55750620001b2306200032a60201b6200118c1760201c565b158015620001c5575060005460ff166001145b6200022a5760405162461bcd60e51b815260206004820152602e60248201527f496e697469616c697a61626c653a20636f6e747261637420697320616c72656160448201526d191e481a5b9a5d1a585b1a5e995960921b6064820152608401620000b4565b6000805460ff1916600117905580156200024e576000805461ff0019166101001790555b42821115620002d45760405162461bcd60e51b8152602060048201526044602482018190527f4c324f75747075744f7261636c653a207374617274696e67204c322074696d65908201527f7374616d70206d757374206265206c657373207468616e2063757272656e742060648201526374696d6560e01b608482015260a401620000b4565b60028290556001839055801562000325576000805461ff0019169055604051600181527f7f26b83ff96e1f2b6a682f133852f6798a09c465da95921460cefb38474024989060200160405180910390a15b505050565b6001600160a01b03163b151590565b80516001600160a01b03811681146200035157600080fd5b919050565b600080600080600080600060e0888a0312156200037257600080fd5b87519650602088015195506040880151945060608801519350620003996080890162000339565b9250620003a960a0890162000339565b915060c0880151905092959891949750929550565b60805160a05160c05160e051610100516101205161014051610160516115de620004476000396000818161033801526108190152600081816102d001526109890152600081816101e801526106b301526000818161015a0152610ec001526000818161019c0152610f0e01526000610426015260006103fd015260006103d401526115de6000f3fe608060405234801561001057600080fd5b50600436106101505760003560e01c806388786272116100cd578063cf8e5cf011610081578063dcec334811610066578063dcec334814610318578063e4a3011614610320578063f4daa2911461033357600080fd5b8063cf8e5cf0146102f2578063d1de856c1461030557600080fd5b80639aaab648116100b25780639aaab64814610269578063a25ae5571461027c578063bffa7f0f146102cb57600080fd5b8063887862721461024b57806389c44cbb1461025457600080fd5b806369f16eec116101245780636b4d98dd116101095780636b4d98dd146101e357806370872aa51461022f5780637f0064201461023857600080fd5b806369f16eec146101d35780636abcf563146101db57600080fd5b80622134cc146101555780634599c7881461018f578063529933df1461019757806354fd4d50146101be575b600080fd5b61017c7f000000000000000000000000000000000000000000000000000000000000000081565b6040519081526020015b60405180910390f35b61017c61035a565b61017c7f000000000000000000000000000000000000000000000000000000000000000081565b6101c66103cd565b6040516101869190611315565b61017c610470565b60035461017c565b61020a7f000000000000000000000000000000000000000000000000000000000000000081565b60405173ffffffffffffffffffffffffffffffffffffffff9091168152602001610186565b61017c60015481565b61017c610246366004611366565b610482565b61017c60025481565b610267610262366004611366565b61069b565b005b61026761027736600461137f565b610971565b61028f61028a366004611366565b610df0565b60408051825181526020808401516fffffffffffffffffffffffffffffffff908116918301919091529282015190921690820152606001610186565b61020a7f000000000000000000000000000000000000000000000000000000000000000081565b61028f610300366004611366565b610e84565b61017c610313366004611366565b610ebc565b61017c610f0a565b61026761032e3660046113b1565b610f3f565b61017c7f000000000000000000000000000000000000000000000000000000000000000081565b600354600090156103c4576003805461037590600190611402565b8154811061038557610385611419565b600091825260209091206002909102016001015470010000000000000000000000000000000090046fffffffffffffffffffffffffffffffff16919050565b6001545b905090565b60606103f87f00000000000000000000000000000000000000000000000000000000000000006111a8565b6104217f00000000000000000000000000000000000000000000000000000000000000006111a8565b61044a7f00000000000000000000000000000000000000000000000000000000000000006111a8565b60405160200161045c93929190611448565b604051602081830303815290604052905090565b6003546000906103c890600190611402565b600061048c61035a565b821115610546576040517f08c379a000000000000000000000000000000000000000000000000000000000815260206004820152604860248201527f4c324f75747075744f7261636c653a2063616e6e6f7420676574206f7574707560448201527f7420666f72206120626c6f636b207468617420686173206e6f74206265656e2060648201527f70726f706f736564000000000000000000000000000000000000000000000000608482015260a4015b60405180910390fd5b6003546105fb576040517f08c379a000000000000000000000000000000000000000000000000000000000815260206004820152604660248201527f4c324f75747075744f7261636c653a2063616e6e6f7420676574206f7574707560448201527f74206173206e6f206f7574707574732068617665206265656e2070726f706f7360648201527f6564207965740000000000000000000000000000000000000000000000000000608482015260a40161053d565b6003546000905b80821015610694576000600261061883856114be565b6106229190611505565b9050846003828154811061063857610638611419565b600091825260209091206002909102016001015470010000000000000000000000000000000090046fffffffffffffffffffffffffffffffff16101561068a576106838160016114be565b925061068e565b8091505b50610602565b5092915050565b3373ffffffffffffffffffffffffffffffffffffffff7f00000000000000000000000000000000000000000000000000000000000000001614610760576040517f08c379a000000000000000000000000000000000000000000000000000000000815260206004820152603e60248201527f4c324f75747075744f7261636c653a206f6e6c7920746865206368616c6c656e60448201527f67657220616464726573732063616e2064656c657465206f7574707574730000606482015260840161053d565b6003548110610817576040517f08c379a000000000000000000000000000000000000000000000000000000000815260206004820152604360248201527f4c324f75747075744f7261636c653a2063616e6e6f742064656c657465206f7560448201527f747075747320616674657220746865206c6174657374206f757470757420696e60648201527f6465780000000000000000000000000000000000000000000000000000000000608482015260a40161053d565b7f00000000000000000000000000000000000000000000000000000000000000006003828154811061084b5761084b611419565b600091825260209091206001600290920201015461087b906fffffffffffffffffffffffffffffffff1642611402565b1061092e576040517f08c379a000000000000000000000000000000000000000000000000000000000815260206004820152604660248201527f4c324f75747075744f7261636c653a2063616e6e6f742064656c657465206f7560448201527f74707574732074686174206861766520616c7265616479206265656e2066696e60648201527f616c697a65640000000000000000000000000000000000000000000000000000608482015260a40161053d565b600061093960035490565b90508160035581817f4ee37ac2c786ec85e87592d3c5c8a1dd66f8496dda3f125d9ea8ca5f657629b660405160405180910390a35050565b3373ffffffffffffffffffffffffffffffffffffffff7f00000000000000000000000000000000000000000000000000000000000000001614610a5c576040517f08c379a000000000000000000000000000000000000000000000000000000000815260206004820152604160248201527f4c324f75747075744f7261636c653a206f6e6c79207468652070726f706f736560448201527f7220616464726573732063616e2070726f706f7365206e6577206f757470757460648201527f7300000000000000000000000000000000000000000000000000000000000000608482015260a40161053d565b610a64610f0a565b8314610b18576040517f08c379a000000000000000000000000000000000000000000000000000000000815260206004820152604860248201527f4c324f75747075744f7261636c653a20626c6f636b206e756d626572206d757360448201527f7420626520657175616c20746f206e65787420657870656374656420626c6f6360648201527f6b206e756d626572000000000000000000000000000000000000000000000000608482015260a40161053d565b42610b2284610ebc565b10610baf576040517f08c379a000000000000000000000000000000000000000000000000000000000815260206004820152603660248201527f4c324f75747075744f7261636c653a2063616e6e6f742070726f706f7365204c60448201527f32206f757470757420696e207468652066757475726500000000000000000000606482015260840161053d565b83610c3c576040517f08c379a000000000000000000000000000000000000000000000000000000000815260206004820152603a60248201527f4c324f75747075744f7261636c653a204c32206f75747075742070726f706f7360448201527f616c2063616e6e6f7420626520746865207a65726f2068617368000000000000606482015260840161053d565b8115610cf85781814014610cf8576040517f08c379a000000000000000000000000000000000000000000000000000000000815260206004820152604960248201527f4c324f75747075744f7261636c653a20626c6f636b206861736820646f65732060448201527f6e6f74206d61746368207468652068617368206174207468652065787065637460648201527f6564206865696768740000000000000000000000000000000000000000000000608482015260a40161053d565b82610d0260035490565b857fa7aaf2512769da4e444e3de247be2564225c2e7a8f74cfe528e46e17d24868e242604051610d3491815260200190565b60405180910390a45050604080516060810182529283526fffffffffffffffffffffffffffffffff4281166020850190815292811691840191825260038054600181018255600091909152935160029094027fc2575a0e9e593c00f959f8c92f12db2869c3395a3b0502d05e2516446f71f85b810194909455915190518216700100000000000000000000000000000000029116177fc2575a0e9e593c00f959f8c92f12db2869c3395a3b0502d05e2516446f71f85c90910155565b604080516060810182526000808252602082018190529181019190915260038281548110610e2057610e20611419565b600091825260209182902060408051606081018252600290930290910180548352600101546fffffffffffffffffffffffffffffffff8082169484019490945270010000000000000000000000000000000090049092169181019190915292915050565b60408051606081018252600080825260208201819052918101919091526003610eac83610482565b81548110610e2057610e20611419565b60007f000000000000000000000000000000000000000000000000000000000000000060015483610eed9190611402565b610ef79190611519565b600254610f0491906114be565b92915050565b60007f0000000000000000000000000000000000000000000000000000000000000000610f3561035a565b6103c891906114be565b600054610100900460ff1615808015610f5f5750600054600160ff909116105b80610f795750303b158015610f79575060005460ff166001145b611005576040517f08c379a000000000000000000000000000000000000000000000000000000000815260206004820152602e60248201527f496e697469616c697a61626c653a20636f6e747261637420697320616c72656160448201527f647920696e697469616c697a6564000000000000000000000000000000000000606482015260840161053d565b600080547fffffffffffffffffffffffffffffffffffffffffffffffffffffffffffffff00166001179055801561106357600080547fffffffffffffffffffffffffffffffffffffffffffffffffffffffffffff00ff166101001790555b4282111561111a576040517f08c379a0000000000000000000000000000000000000000000000000000000008152602060048201526044602482018190527f4c324f75747075744f7261636c653a207374617274696e67204c322074696d65908201527f7374616d70206d757374206265206c657373207468616e2063757272656e742060648201527f74696d6500000000000000000000000000000000000000000000000000000000608482015260a40161053d565b60028290556001839055801561118757600080547fffffffffffffffffffffffffffffffffffffffffffffffffffffffffffff00ff169055604051600181527f7f26b83ff96e1f2b6a682f133852f6798a09c465da95921460cefb38474024989060200160405180910390a15b505050565b73ffffffffffffffffffffffffffffffffffffffff163b151590565b6060816000036111eb57505060408051808201909152600181527f3000000000000000000000000000000000000000000000000000000000000000602082015290565b8160005b811561121557806111ff81611556565b915061120e9050600a83611505565b91506111ef565b60008167ffffffffffffffff8111156112305761123061158e565b6040519080825280601f01601f19166020018201604052801561125a576020820181803683370190505b5090505b84156112dd5761126f600183611402565b915061127c600a866115bd565b6112879060306114be565b60f81b81838151811061129c5761129c611419565b60200101907effffffffffffffffffffffffffffffffffffffffffffffffffffffffffffff1916908160001a9053506112d6600a86611505565b945061125e565b949350505050565b60005b838110156113005781810151838201526020016112e8565b8381111561130f576000848401525b50505050565b60208152600082518060208401526113348160408501602087016112e5565b601f017fffffffffffffffffffffffffffffffffffffffffffffffffffffffffffffffe0169190910160400192915050565b60006020828403121561137857600080fd5b5035919050565b6000806000806080858703121561139557600080fd5b5050823594602084013594506040840135936060013592509050565b600080604083850312156113c457600080fd5b50508035926020909101359150565b7f4e487b7100000000000000000000000000000000000000000000000000000000600052601160045260246000fd5b600082821015611414576114146113d3565b500390565b7f4e487b7100000000000000000000000000000000000000000000000000000000600052603260045260246000fd5b6000845161145a8184602089016112e5565b80830190507f2e000000000000000000000000000000000000000000000000000000000000008082528551611496816001850160208a016112e5565b600192019182015283516114b18160028401602088016112e5565b0160020195945050505050565b600082198211156114d1576114d16113d3565b500190565b7f4e487b7100000000000000000000000000000000000000000000000000000000600052601260045260246000fd5b600082611514576115146114d6565b500490565b6000817fffffffffffffffffffffffffffffffffffffffffffffffffffffffffffffffff0483118215151615611551576115516113d3565b500290565b60007fffffffffffffffffffffffffffffffffffffffffffffffffffffffffffffffff8203611587576115876113d3565b5060010190565b7f4e487b7100000000000000000000000000000000000000000000000000000000600052604160045260246000fd5b6000826115cc576115cc6114d6565b50069056fea164736f6c634300080f000a",
  "devdoc": {
    "version": 1,
    "kind": "dev",
    "methods": {
      "computeL2Timestamp(uint256)": {
        "params": {
          "_l2BlockNumber": "The L2 block number of the target block."
        },
        "returns": {
          "_0": "L2 timestamp of the given block."
        }
      },
      "constructor": {
        "params": {
          "_challenger": "The address of the challenger.",
          "_l2BlockTime": "The time per L2 block, in seconds.",
          "_proposer": "The address of the proposer.",
          "_startingBlockNumber": "The number of the first L2 block.",
          "_startingTimestamp": "The timestamp of the first L2 block.",
          "_submissionInterval": "Interval in blocks at which checkpoints must be submitted."
        }
      },
      "deleteL2Outputs(uint256)": {
        "params": {
          "_l2OutputIndex": "Index of the first L2 output to be deleted. All outputs after this                       output will also be deleted."
        }
      },
      "getL2Output(uint256)": {
        "params": {
          "_l2OutputIndex": "Index of the output to return."
        },
        "returns": {
          "_0": "The output at the given index."
        }
      },
      "getL2OutputAfter(uint256)": {
        "params": {
          "_l2BlockNumber": "L2 block number to find a checkpoint for."
        },
        "returns": {
          "_0": "First checkpoint that commits to the given L2 block number."
        }
      },
      "getL2OutputIndexAfter(uint256)": {
        "params": {
          "_l2BlockNumber": "L2 block number to find a checkpoint for."
        },
        "returns": {
          "_0": "Index of the first checkpoint that commits to the given L2 block number."
        }
      },
      "initialize(uint256,uint256)": {
        "params": {
          "_startingBlockNumber": "Block number for the first recoded L2 block.",
          "_startingTimestamp": "Timestamp for the first recoded L2 block."
        }
      },
      "latestBlockNumber()": {
        "returns": {
          "_0": "Latest submitted L2 block number."
        }
      },
      "latestOutputIndex()": {
        "returns": {
          "_0": "The number of outputs that have been proposed."
        }
      },
      "nextBlockNumber()": {
        "returns": {
          "_0": "Next L2 block number."
        }
      },
      "nextOutputIndex()": {
        "returns": {
          "_0": "The index of the next output to be proposed."
        }
      },
      "proposeL2Output(bytes32,uint256,bytes32,uint256)": {
        "params": {
          "_l1BlockHash": "A block hash which must be included in the current chain.",
          "_l1BlockNumber": "The block number with the specified block hash.",
          "_l2BlockNumber": "The L2 block number that resulted in _outputRoot.",
          "_outputRoot": "The L2 output of the checkpoint block."
        }
      },
      "version()": {
        "returns": {
          "_0": "Semver contract version as a string."
        }
      }
    },
    "events": {
      "OutputProposed(bytes32,uint256,uint256,uint256)": {
        "params": {
          "l1Timestamp": "The L1 timestamp when proposed.",
          "l2BlockNumber": "The L2 block number of the output root.",
          "l2OutputIndex": "The index of the output in the l2Outputs array.",
          "outputRoot": "The output root."
        }
      },
      "OutputsDeleted(uint256,uint256)": {
        "params": {
          "newNextOutputIndex": "Next L2 output index after the deletion.",
          "prevNextOutputIndex": "Next L2 output index before the deletion."
        }
      }
    }
  },
  "userdoc": {
    "version": 1,
    "kind": "user",
    "methods": {
      "CHALLENGER()": {
        "notice": "The address of the challenger. Can be updated via upgrade."
      },
      "FINALIZATION_PERIOD_SECONDS()": {
        "notice": "Minimum time (in seconds) that must elapse before a withdrawal can be finalized."
      },
      "L2_BLOCK_TIME()": {
        "notice": "The time between L2 blocks in seconds. Once set, this value MUST NOT be modified."
      },
      "PROPOSER()": {
        "notice": "The address of the proposer. Can be updated via upgrade."
      },
      "SUBMISSION_INTERVAL()": {
        "notice": "The interval in L2 blocks at which checkpoints must be submitted. Although this is         immutable, it can safely be modified by upgrading the implementation contract."
      },
      "computeL2Timestamp(uint256)": {
        "notice": "Returns the L2 timestamp corresponding to a given L2 block number."
      },
      "deleteL2Outputs(uint256)": {
        "notice": "Deletes all output proposals after and including the proposal that corresponds to         the given output index. Only the challenger address can delete outputs."
      },
      "getL2Output(uint256)": {
        "notice": "Returns an output by index. Exists because Solidity's array access will return a         tuple instead of a struct."
      },
      "getL2OutputAfter(uint256)": {
        "notice": "Returns the L2 output proposal that checkpoints a given L2 block number. Uses a         binary search to find the first output greater than or equal to the given block."
      },
      "getL2OutputIndexAfter(uint256)": {
        "notice": "Returns the index of the L2 output that checkpoints a given L2 block number. Uses a         binary search to find the first output greater than or equal to the given block."
      },
      "initialize(uint256,uint256)": {
        "notice": "Initializer."
      },
      "latestBlockNumber()": {
        "notice": "Returns the block number of the latest submitted L2 output proposal. If no proposals         been submitted yet then this function will return the starting block number."
      },
      "latestOutputIndex()": {
        "notice": "Returns the number of outputs that have been proposed. Will revert if no outputs         have been proposed yet."
      },
      "nextBlockNumber()": {
        "notice": "Computes the block number of the next L2 block that needs to be checkpointed."
      },
      "nextOutputIndex()": {
        "notice": "Returns the index of the next output to be proposed."
      },
      "proposeL2Output(bytes32,uint256,bytes32,uint256)": {
        "notice": "Accepts an outputRoot and the timestamp of the corresponding L2 block. The timestamp         must be equal to the current value returned by `nextTimestamp()` in order to be         accepted. This function may only be called by the Proposer."
      },
      "startingBlockNumber()": {
        "notice": "The number of the first L2 block recorded in this contract."
      },
      "startingTimestamp()": {
        "notice": "The timestamp of the first L2 block recorded in this contract."
      },
      "version()": {
        "notice": "Returns the full semver contract version."
      }
    },
    "events": {
      "OutputProposed(bytes32,uint256,uint256,uint256)": {
        "notice": "Emitted when an output is proposed."
      },
      "OutputsDeleted(uint256,uint256)": {
        "notice": "Emitted when outputs are deleted."
      }
    },
    "notice": "The L2OutputOracle contains an array of L2 state outputs, where each output is a         commitment to the state of the L2 chain. Other contracts like the OptimismPortal use         these outputs to verify information about the state of L2."
  },
  "storageLayout": {
    "storage": [
      {
        "astId": 65872,
        "contract": "contracts/L1/L2OutputOracle.sol:L2OutputOracle",
        "label": "_initialized",
        "offset": 0,
        "slot": "0",
        "type": "t_uint8"
      },
      {
        "astId": 65875,
        "contract": "contracts/L1/L2OutputOracle.sol:L2OutputOracle",
        "label": "_initializing",
        "offset": 1,
        "slot": "0",
        "type": "t_bool"
      },
      {
        "astId": 2172,
        "contract": "contracts/L1/L2OutputOracle.sol:L2OutputOracle",
        "label": "startingBlockNumber",
        "offset": 0,
        "slot": "1",
        "type": "t_uint256"
      },
      {
        "astId": 2175,
        "contract": "contracts/L1/L2OutputOracle.sol:L2OutputOracle",
        "label": "startingTimestamp",
        "offset": 0,
        "slot": "2",
        "type": "t_uint256"
      },
      {
        "astId": 2180,
        "contract": "contracts/L1/L2OutputOracle.sol:L2OutputOracle",
        "label": "l2Outputs",
        "offset": 0,
        "slot": "3",
        "type": "t_array(t_struct(OutputProposal)12856_storage)dyn_storage"
      }
    ],
    "types": {
      "t_array(t_struct(OutputProposal)12856_storage)dyn_storage": {
        "encoding": "dynamic_array",
        "label": "struct Types.OutputProposal[]",
        "numberOfBytes": "32",
        "base": "t_struct(OutputProposal)12856_storage"
      },
      "t_bool": {
        "encoding": "inplace",
        "label": "bool",
        "numberOfBytes": "1"
      },
      "t_bytes32": {
        "encoding": "inplace",
        "label": "bytes32",
        "numberOfBytes": "32"
      },
      "t_struct(OutputProposal)12856_storage": {
        "encoding": "inplace",
        "label": "struct Types.OutputProposal",
        "numberOfBytes": "64",
        "members": [
          {
            "astId": 12851,
            "contract": "contracts/L1/L2OutputOracle.sol:L2OutputOracle",
            "label": "outputRoot",
            "offset": 0,
            "slot": "0",
            "type": "t_bytes32"
          },
          {
            "astId": 12853,
            "contract": "contracts/L1/L2OutputOracle.sol:L2OutputOracle",
            "label": "timestamp",
            "offset": 0,
            "slot": "1",
            "type": "t_uint128"
          },
          {
            "astId": 12855,
            "contract": "contracts/L1/L2OutputOracle.sol:L2OutputOracle",
            "label": "l2BlockNumber",
            "offset": 16,
            "slot": "1",
            "type": "t_uint128"
          }
        ]
      },
      "t_uint128": {
        "encoding": "inplace",
        "label": "uint128",
        "numberOfBytes": "16"
      },
      "t_uint256": {
        "encoding": "inplace",
        "label": "uint256",
        "numberOfBytes": "32"
      },
      "t_uint8": {
        "encoding": "inplace",
        "label": "uint8",
        "numberOfBytes": "1"
      }
    }
  }
}