{
  "address": "0x4f945a9FaCF34B0B67A0711C7735b74e6dED6f1F",
  "abi": [
    {
      "inputs": [
        {
          "internalType": "contract L2OutputOracle",
          "name": "_l2Oracle",
          "type": "address"
        },
        {
          "internalType": "address",
          "name": "_guardian",
          "type": "address"
        },
        {
          "internalType": "bool",
          "name": "_paused",
          "type": "bool"
        },
        {
          "internalType": "contract SystemConfig",
          "name": "_config",
          "type": "address"
        },
        {
          "internalType": "address",
          "name": "_l1MNT",
          "type": "address"
        }
      ],
      "stateMutability": "nonpayable",
      "type": "constructor"
    },
    {
      "anonymous": false,
      "inputs": [
        {
          "indexed": false,
          "internalType": "uint8",
          "name": "version",
          "type": "uint8"
        }
      ],
      "name": "Initialized",
      "type": "event"
    },
    {
      "anonymous": false,
      "inputs": [
        {
          "indexed": false,
          "internalType": "address",
          "name": "account",
          "type": "address"
        }
      ],
      "name": "Paused",
      "type": "event"
    },
    {
      "anonymous": false,
      "inputs": [
        {
          "indexed": true,
          "internalType": "address",
          "name": "from",
          "type": "address"
        },
        {
          "indexed": true,
          "internalType": "address",
          "name": "to",
          "type": "address"
        },
        {
          "indexed": true,
          "internalType": "uint256",
          "name": "version",
          "type": "uint256"
        },
        {
          "indexed": false,
          "internalType": "bytes",
          "name": "opaqueData",
          "type": "bytes"
        }
      ],
      "name": "TransactionDeposited",
      "type": "event"
    },
    {
      "anonymous": false,
      "inputs": [
        {
          "indexed": false,
          "internalType": "address",
          "name": "account",
          "type": "address"
        }
      ],
      "name": "Unpaused",
      "type": "event"
    },
    {
      "anonymous": false,
      "inputs": [
        {
          "indexed": true,
          "internalType": "bytes32",
          "name": "withdrawalHash",
          "type": "bytes32"
        },
        {
          "indexed": false,
          "internalType": "bool",
          "name": "success",
          "type": "bool"
        }
      ],
      "name": "WithdrawalFinalized",
      "type": "event"
    },
    {
      "anonymous": false,
      "inputs": [
        {
          "indexed": true,
          "internalType": "bytes32",
          "name": "withdrawalHash",
          "type": "bytes32"
        },
        {
          "indexed": true,
          "internalType": "address",
          "name": "from",
          "type": "address"
        },
        {
          "indexed": true,
          "internalType": "address",
          "name": "to",
          "type": "address"
        }
      ],
      "name": "WithdrawalProven",
      "type": "event"
    },
    {
      "inputs": [],
      "name": "GUARDIAN",
      "outputs": [
        {
          "internalType": "address",
          "name": "",
          "type": "address"
        }
      ],
      "stateMutability": "view",
      "type": "function"
    },
    {
      "inputs": [],
      "name": "L1_MNT_ADDRESS",
      "outputs": [
        {
          "internalType": "address",
          "name": "",
          "type": "address"
        }
      ],
      "stateMutability": "view",
      "type": "function"
    },
    {
      "inputs": [],
      "name": "L2_ORACLE",
      "outputs": [
        {
          "internalType": "contract L2OutputOracle",
          "name": "",
          "type": "address"
        }
      ],
      "stateMutability": "view",
      "type": "function"
    },
    {
      "inputs": [],
      "name": "SYSTEM_CONFIG",
      "outputs": [
        {
          "internalType": "contract SystemConfig",
          "name": "",
          "type": "address"
        }
      ],
      "stateMutability": "view",
      "type": "function"
    },
    {
      "inputs": [
        {
          "internalType": "uint256",
          "name": "_ethTxValue",
          "type": "uint256"
        },
        {
          "internalType": "uint256",
          "name": "_mntValue",
          "type": "uint256"
        },
        {
          "internalType": "address",
          "name": "_to",
          "type": "address"
        },
        {
          "internalType": "uint256",
          "name": "_mntTxValue",
          "type": "uint256"
        },
        {
          "internalType": "uint64",
          "name": "_gasLimit",
          "type": "uint64"
        },
        {
          "internalType": "bool",
          "name": "_isCreation",
          "type": "bool"
        },
        {
          "internalType": "bytes",
          "name": "_data",
          "type": "bytes"
        }
      ],
      "name": "depositTransaction",
      "outputs": [],
      "stateMutability": "payable",
      "type": "function"
    },
    {
      "inputs": [],
      "name": "donateETH",
      "outputs": [],
      "stateMutability": "payable",
      "type": "function"
    },
    {
      "inputs": [
        {
          "components": [
            {
              "internalType": "uint256",
              "name": "nonce",
              "type": "uint256"
            },
            {
              "internalType": "address",
              "name": "sender",
              "type": "address"
            },
            {
              "internalType": "address",
              "name": "target",
              "type": "address"
            },
            {
              "internalType": "uint256",
              "name": "mntValue",
              "type": "uint256"
            },
            {
              "internalType": "uint256",
              "name": "ethValue",
              "type": "uint256"
            },
            {
              "internalType": "uint256",
              "name": "gasLimit",
              "type": "uint256"
            },
            {
              "internalType": "bytes",
              "name": "data",
              "type": "bytes"
            }
          ],
          "internalType": "struct Types.WithdrawalTransaction",
          "name": "_tx",
          "type": "tuple"
        }
      ],
      "name": "finalizeWithdrawalTransaction",
      "outputs": [],
      "stateMutability": "nonpayable",
      "type": "function"
    },
    {
      "inputs": [
        {
          "internalType": "bytes32",
          "name": "",
          "type": "bytes32"
        }
      ],
      "name": "finalizedWithdrawals",
      "outputs": [
        {
          "internalType": "bool",
          "name": "",
          "type": "bool"
        }
      ],
      "stateMutability": "view",
      "type": "function"
    },
    {
      "inputs": [
        {
          "internalType": "bool",
          "name": "_paused",
          "type": "bool"
        }
      ],
      "name": "initialize",
      "outputs": [],
      "stateMutability": "nonpayable",
      "type": "function"
    },
    {
      "inputs": [
        {
          "internalType": "uint256",
          "name": "_l2OutputIndex",
          "type": "uint256"
        }
      ],
      "name": "isOutputFinalized",
      "outputs": [
        {
          "internalType": "bool",
          "name": "",
          "type": "bool"
        }
      ],
      "stateMutability": "view",
      "type": "function"
    },
    {
      "inputs": [],
      "name": "l2Sender",
      "outputs": [
        {
          "internalType": "address",
          "name": "",
          "type": "address"
        }
      ],
      "stateMutability": "view",
      "type": "function"
    },
    {
      "inputs": [
        {
          "internalType": "uint64",
          "name": "_byteCount",
          "type": "uint64"
        }
      ],
      "name": "minimumGasLimit",
      "outputs": [
        {
          "internalType": "uint64",
          "name": "",
          "type": "uint64"
        }
      ],
      "stateMutability": "pure",
      "type": "function"
    },
    {
      "inputs": [],
      "name": "params",
      "outputs": [
        {
          "internalType": "uint128",
          "name": "prevBaseFee",
          "type": "uint128"
        },
        {
          "internalType": "uint64",
          "name": "prevBoughtGas",
          "type": "uint64"
        },
        {
          "internalType": "uint64",
          "name": "prevBlockNum",
          "type": "uint64"
        }
      ],
      "stateMutability": "view",
      "type": "function"
    },
    {
      "inputs": [],
      "name": "pause",
      "outputs": [],
      "stateMutability": "nonpayable",
      "type": "function"
    },
    {
      "inputs": [],
      "name": "paused",
      "outputs": [
        {
          "internalType": "bool",
          "name": "",
          "type": "bool"
        }
      ],
      "stateMutability": "view",
      "type": "function"
    },
    {
      "inputs": [
        {
          "components": [
            {
              "internalType": "uint256",
              "name": "nonce",
              "type": "uint256"
            },
            {
              "internalType": "address",
              "name": "sender",
              "type": "address"
            },
            {
              "internalType": "address",
              "name": "target",
              "type": "address"
            },
            {
              "internalType": "uint256",
              "name": "mntValue",
              "type": "uint256"
            },
            {
              "internalType": "uint256",
              "name": "ethValue",
              "type": "uint256"
            },
            {
              "internalType": "uint256",
              "name": "gasLimit",
              "type": "uint256"
            },
            {
              "internalType": "bytes",
              "name": "data",
              "type": "bytes"
            }
          ],
          "internalType": "struct Types.WithdrawalTransaction",
          "name": "_tx",
          "type": "tuple"
        },
        {
          "internalType": "uint256",
          "name": "_l2OutputIndex",
          "type": "uint256"
        },
        {
          "components": [
            {
              "internalType": "bytes32",
              "name": "version",
              "type": "bytes32"
            },
            {
              "internalType": "bytes32",
              "name": "stateRoot",
              "type": "bytes32"
            },
            {
              "internalType": "bytes32",
              "name": "messagePasserStorageRoot",
              "type": "bytes32"
            },
            {
              "internalType": "bytes32",
              "name": "latestBlockhash",
              "type": "bytes32"
            }
          ],
          "internalType": "struct Types.OutputRootProof",
          "name": "_outputRootProof",
          "type": "tuple"
        },
        {
          "internalType": "bytes[]",
          "name": "_withdrawalProof",
          "type": "bytes[]"
        }
      ],
      "name": "proveWithdrawalTransaction",
      "outputs": [],
      "stateMutability": "nonpayable",
      "type": "function"
    },
    {
      "inputs": [
        {
          "internalType": "bytes32",
          "name": "",
          "type": "bytes32"
        }
      ],
      "name": "provenWithdrawals",
      "outputs": [
        {
          "internalType": "bytes32",
          "name": "outputRoot",
          "type": "bytes32"
        },
        {
          "internalType": "uint128",
          "name": "timestamp",
          "type": "uint128"
        },
        {
          "internalType": "uint128",
          "name": "l2OutputIndex",
          "type": "uint128"
        }
      ],
      "stateMutability": "view",
      "type": "function"
    },
    {
      "inputs": [],
      "name": "unpause",
      "outputs": [],
      "stateMutability": "nonpayable",
      "type": "function"
    },
    {
      "inputs": [],
      "name": "version",
      "outputs": [
        {
          "internalType": "string",
          "name": "",
          "type": "string"
        }
      ],
      "stateMutability": "view",
      "type": "function"
    },
    {
      "stateMutability": "payable",
      "type": "receive"
    }
  ],
  "transactionHash": "0x08611778314a112adf3243c45d90f85d52a20f572e2de3fdd0dafaa0cc37c02f",
  "args": [
    "0x70dd17020ae9EFcDD2b7c306AfDC0D98c906d7AD",
    "0xcd2b95a30c4d2e5d2c1d825cd5b8f3e2158767ad",
    true,
    "0x621CFE299418bc6ceA11a8cF6937ea5598c3F9b9",
    "0xc1dC2d65A2243c22344E725677A3E3BEBD26E604"
  ],
  "numDeployments": 1,
  "solcInputHash": "5d984ea18d2baaa5fc86c6eb5d403972",
  "bytecode": "0x6101606040523480156200001257600080fd5b50604051620061b5380380620061b583398101604081905262000035916200029e565b6001608052600660a052600060c0526001600160a01b0380861660e052848116610120528281166101005281166101405262000071836200007c565b505050505062000322565b600054610100900460ff16158080156200009d5750600054600160ff909116105b80620000cd5750620000ba30620001d360201b62001ee21760201c565b158015620000cd575060005460ff166001145b620001365760405162461bcd60e51b815260206004820152602e60248201527f496e697469616c697a61626c653a20636f6e747261637420697320616c72656160448201526d191e481a5b9a5d1a585b1a5e995960921b60648201526084015b60405180910390fd5b6000805460ff1916600117905580156200015a576000805461ff0019166101001790555b603280546001600160a01b03191661dead1790556035805483151560ff1990911617905562000188620001e2565b8015620001cf576000805461ff0019169055604051600181527f7f26b83ff96e1f2b6a682f133852f6798a09c465da95921460cefb38474024989060200160405180910390a15b5050565b6001600160a01b03163b151590565b600054610100900460ff166200024f5760405162461bcd60e51b815260206004820152602b60248201527f496e697469616c697a61626c653a20636f6e7472616374206973206e6f74206960448201526a6e697469616c697a696e6760a81b60648201526084016200012d565b60408051606081018252633b9aca0080825260006020830152436001600160401b031691909201819052600160c01b0217600155565b6001600160a01b03811681146200029b57600080fd5b50565b600080600080600060a08688031215620002b757600080fd5b8551620002c48162000285565b6020870151909550620002d78162000285565b60408701519094508015158114620002ee57600080fd5b6060870151909350620003018162000285565b6080870151909250620003148162000285565b809150509295509295909350565b60805160a05160c05160e051610100516101205161014051615de4620003d16000396000818161037a0152818161072f0152818161103301526110a5015260008181610288015281816112d1015261156e01526000818161051b01526127e101526000818161018901528181610a3401528181610ca6015281816114ca015281816119da01528181611bbb015261231c015260006114350152600061140c015260006113e30152615de46000f3fe6080604052600436106101475760003560e01c80639bf62d82116100c0578063cff0ab9611610074578063d69b2b1b11610059578063d69b2b1b1461045d578063e965084c1461047d578063f04987501461050957600080fd5b8063cff0ab961461039c578063d53a822f1461043d57600080fd5b8063a35d99df116100a5578063a35d99df1461031c578063a77b7d0814610355578063ac6986c51461036857600080fd5b80639bf62d82146102bf578063a14238e7146102ec57600080fd5b80635c975abb11610117578063724c184c116100fc578063724c184c146102765780638456cb59146102aa5780638b4c40b01461017057600080fd5b80635c975abb1461022c5780636dbffb781461025657600080fd5b80621c2ff6146101775780632e71d4a4146101d55780633f4ba83a146101f557806354fd4d501461020a57600080fd5b3661017257610170346000336000620186a060006040518060200160405280600081525061053d565b005b600080fd5b34801561018357600080fd5b506101ab7f000000000000000000000000000000000000000000000000000000000000000081565b60405173ffffffffffffffffffffffffffffffffffffffff90911681526020015b60405180910390f35b3480156101e157600080fd5b506101706101f0366004615334565b610826565b34801561020157600080fd5b506101706112b9565b34801561021657600080fd5b5061021f6113dc565b6040516101cc91906153df565b34801561023857600080fd5b506035546102469060ff1681565b60405190151581526020016101cc565b34801561026257600080fd5b506102466102713660046153f2565b61147f565b34801561028257600080fd5b506101ab7f000000000000000000000000000000000000000000000000000000000000000081565b3480156102b657600080fd5b50610170611556565b3480156102cb57600080fd5b506032546101ab9073ffffffffffffffffffffffffffffffffffffffff1681565b3480156102f857600080fd5b506102466103073660046153f2565b60336020526000908152604090205460ff1681565b34801561032857600080fd5b5061033c610337366004615423565b611676565b60405167ffffffffffffffff90911681526020016101cc565b61017061036336600461544f565b61053d565b34801561037457600080fd5b506101ab7f000000000000000000000000000000000000000000000000000000000000000081565b3480156103a857600080fd5b50600154610404906fffffffffffffffffffffffffffffffff81169067ffffffffffffffff7001000000000000000000000000000000008204811691780100000000000000000000000000000000000000000000000090041683565b604080516fffffffffffffffffffffffffffffffff909416845267ffffffffffffffff92831660208501529116908201526060016101cc565b34801561044957600080fd5b506101706104583660046154dd565b61168f565b34801561046957600080fd5b506101706104783660046154fa565b61187c565b34801561048957600080fd5b506104db6104983660046153f2565b603460205260009081526040902080546001909101546fffffffffffffffffffffffffffffffff8082169170010000000000000000000000000000000090041683565b604080519384526fffffffffffffffffffffffffffffffff92831660208501529116908201526060016101cc565b34801561051557600080fd5b506101ab7f000000000000000000000000000000000000000000000000000000000000000081565b8260005a905083156105f45773ffffffffffffffffffffffffffffffffffffffff8716156105f457604080517f08c379a00000000000000000000000000000000000000000000000000000000081526020600482015260248101919091527f4f7074696d69736d506f7274616c3a206d7573742073656e6420746f2061646460448201527f72657373283029207768656e206372656174696e67206120636f6e747261637460648201526084015b60405180910390fd5b6105fe8351611676565b67ffffffffffffffff168567ffffffffffffffff1610156106a1576040517f08c379a000000000000000000000000000000000000000000000000000000000815260206004820152602360248201527f4f7074696d69736d506f7274616c3a20676173206c696d697420746f6f20736d60448201527f616c6c000000000000000000000000000000000000000000000000000000000060648201526084016105eb565b6201d4c08351111561070f576040517f08c379a000000000000000000000000000000000000000000000000000000000815260206004820152601e60248201527f4f7074696d69736d506f7274616c3a206461746120746f6f206c61726765000060448201526064016105eb565b87156107575761075773ffffffffffffffffffffffffffffffffffffffff7f00000000000000000000000000000000000000000000000000000000000000001633308b611efe565b33328114610778575033731111000000000000000000000000000000001111015b60008988348d8a8a8a60405160200161079797969594939291906155d6565b604051602081830303815290604052905060018973ffffffffffffffffffffffffffffffffffffffff168373ffffffffffffffffffffffffffffffffffffffff167fb3813568d9991fc951961fcb4c784893574240a28925604d09fc577c55bb7c328460405161080791906153df565b60405180910390a4505061081b8282611f99565b505050505050505050565b60355460ff1615610893576040517f08c379a000000000000000000000000000000000000000000000000000000000815260206004820152601660248201527f4f7074696d69736d506f7274616c3a207061757365640000000000000000000060448201526064016105eb565b60325473ffffffffffffffffffffffffffffffffffffffff1661dead1461093c576040517f08c379a000000000000000000000000000000000000000000000000000000000815260206004820152603f60248201527f4f7074696d69736d506f7274616c3a2063616e206f6e6c79207472696767657260448201527f206f6e65207769746864726177616c20706572207472616e73616374696f6e0060648201526084016105eb565b6000610947826122c6565b60008181526034602090815260408083208151606081018352815481526001909101546fffffffffffffffffffffffffffffffff80821694830185905270010000000000000000000000000000000090910416918101919091529293509003610a32576040517f08c379a000000000000000000000000000000000000000000000000000000000815260206004820152603260248201527f4f7074696d69736d506f7274616c3a207769746864726177616c20686173206e60448201527f6f74206265656e2070726f76656e20796574000000000000000000000000000060648201526084016105eb565b7f000000000000000000000000000000000000000000000000000000000000000073ffffffffffffffffffffffffffffffffffffffff1663887862726040518163ffffffff1660e01b8152600401602060405180830381865afa158015610a9d573d6000803e3d6000fd5b505050506040513d601f19601f82011682018060405250810190610ac19190615649565b81602001516fffffffffffffffffffffffffffffffff161015610b8c576040517f08c379a000000000000000000000000000000000000000000000000000000000815260206004820152604b60248201527f4f7074696d69736d506f7274616c3a207769746864726177616c2074696d657360448201527f74616d70206c657373207468616e204c32204f7261636c65207374617274696e60648201527f672074696d657374616d70000000000000000000000000000000000000000000608482015260a4016105eb565b610bab81602001516fffffffffffffffffffffffffffffffff16612318565b610c5d576040517f08c379a000000000000000000000000000000000000000000000000000000000815260206004820152604560248201527f4f7074696d69736d506f7274616c3a2070726f76656e2077697468647261776160448201527f6c2066696e616c697a6174696f6e20706572696f6420686173206e6f7420656c60648201527f6170736564000000000000000000000000000000000000000000000000000000608482015260a4016105eb565b60408181015190517fa25ae5570000000000000000000000000000000000000000000000000000000081526fffffffffffffffffffffffffffffffff90911660048201526000907f000000000000000000000000000000000000000000000000000000000000000073ffffffffffffffffffffffffffffffffffffffff169063a25ae55790602401606060405180830381865afa158015610d02573d6000803e3d6000fd5b505050506040513d601f19601f82011682018060405250810190610d269190615682565b8251815191925014610de0576040517f08c379a000000000000000000000000000000000000000000000000000000000815260206004820152604960248201527f4f7074696d69736d506f7274616c3a206f757470757420726f6f742070726f7660448201527f656e206973206e6f74207468652073616d652061732063757272656e74206f7560648201527f7470757420726f6f740000000000000000000000000000000000000000000000608482015260a4016105eb565b610dff81602001516fffffffffffffffffffffffffffffffff16612318565b610eb1576040517f08c379a000000000000000000000000000000000000000000000000000000000815260206004820152604360248201527f4f7074696d69736d506f7274616c3a206f75747075742070726f706f73616c2060448201527f66696e616c697a6174696f6e20706572696f6420686173206e6f7420656c617060648201527f7365640000000000000000000000000000000000000000000000000000000000608482015260a4016105eb565b60008381526033602052604090205460ff1615610f50576040517f08c379a000000000000000000000000000000000000000000000000000000000815260206004820152603560248201527f4f7074696d69736d506f7274616c3a207769746864726177616c20686173206160448201527f6c7265616479206265656e2066696e616c697a6564000000000000000000000060648201526084016105eb565b6000838152603360209081526040822080547fffffffffffffffffffffffffffffffffffffffffffffffffffffffffffffff001660011790558501516032805473ffffffffffffffffffffffffffffffffffffffff9092167fffffffffffffffffffffffff00000000000000000000000000000000000000009092169190911790556060850151156110a357604080860151606087015191517fa9059cbb00000000000000000000000000000000000000000000000000000000815273ffffffffffffffffffffffffffffffffffffffff918216600482015260248101929092527f0000000000000000000000000000000000000000000000000000000000000000169063a9059cbb906044016020604051808303816000875af115801561107c573d6000803e3d6000fd5b505050506040513d601f19601f820116820180604052508101906110a091906156e7565b90505b7f000000000000000000000000000000000000000000000000000000000000000073ffffffffffffffffffffffffffffffffffffffff16856040015173ffffffffffffffffffffffffffffffffffffffff1603611182576040517f08c379a000000000000000000000000000000000000000000000000000000000815260206004820152602760248201527f4469726563746c792063616c6c696e67204d4e5420546f6b656e20697320666f60448201527f7262696464656e0000000000000000000000000000000000000000000000000060648201526084016105eb565b60006111a086604001518760a0015188608001518960c001516123bb565b603280547fffffffffffffffffffffffff00000000000000000000000000000000000000001661dead1790559050847fdb5c7652857aa163daadd670e116628fb42e869d8ac4251ef8971d9e5727df1b8280156111fa5750835b604051901515815260200160405180910390a2801580611218575081155b80156112245750326001145b156112b1576040517f08c379a000000000000000000000000000000000000000000000000000000000815260206004820152602160248201527f4f7074696d69736d506f7274616c3a207769746864726177616c206661696c6560448201527f640000000000000000000000000000000000000000000000000000000000000060648201526084016105eb565b505050505050565b3373ffffffffffffffffffffffffffffffffffffffff7f0000000000000000000000000000000000000000000000000000000000000000161461137e576040517f08c379a000000000000000000000000000000000000000000000000000000000815260206004820152602960248201527f4f7074696d69736d506f7274616c3a206f6e6c7920677561726469616e20636160448201527f6e20756e7061757365000000000000000000000000000000000000000000000060648201526084016105eb565b603580547fffffffffffffffffffffffffffffffffffffffffffffffffffffffffffffff001690556040513381527f5db9ee0a495bf2e6ff9c91a7834c1ba4fdd244a5e8aa4e537bd38aeae4b073aa906020015b60405180910390a1565b60606114077f0000000000000000000000000000000000000000000000000000000000000000612419565b6114307f0000000000000000000000000000000000000000000000000000000000000000612419565b6114597f0000000000000000000000000000000000000000000000000000000000000000612419565b60405160200161146b93929190615704565b604051602081830303815290604052905090565b6040517fa25ae557000000000000000000000000000000000000000000000000000000008152600481018290526000906115509073ffffffffffffffffffffffffffffffffffffffff7f0000000000000000000000000000000000000000000000000000000000000000169063a25ae55790602401606060405180830381865afa158015611511573d6000803e3d6000fd5b505050506040513d601f19601f820116820180604052508101906115359190615682565b602001516fffffffffffffffffffffffffffffffff16612318565b92915050565b3373ffffffffffffffffffffffffffffffffffffffff7f0000000000000000000000000000000000000000000000000000000000000000161461161b576040517f08c379a000000000000000000000000000000000000000000000000000000000815260206004820152602760248201527f4f7074696d69736d506f7274616c3a206f6e6c7920677561726469616e20636160448201527f6e2070617573650000000000000000000000000000000000000000000000000060648201526084016105eb565b603580547fffffffffffffffffffffffffffffffffffffffffffffffffffffffffffffff001660011790556040513381527f62e78cea01bee320cd4e420270b5ea74000d11b0c9f74754ebdbfc544b05a258906020016113d2565b60006116838260106157a9565b611550906152086157d9565b600054610100900460ff16158080156116af5750600054600160ff909116105b806116c95750303b1580156116c9575060005460ff166001145b611755576040517f08c379a000000000000000000000000000000000000000000000000000000000815260206004820152602e60248201527f496e697469616c697a61626c653a20636f6e747261637420697320616c72656160448201527f647920696e697469616c697a656400000000000000000000000000000000000060648201526084016105eb565b600080547fffffffffffffffffffffffffffffffffffffffffffffffffffffffffffffff0016600117905580156117b357600080547fffffffffffffffffffffffffffffffffffffffffffffffffffffffffffff00ff166101001790555b603280547fffffffffffffffffffffffff00000000000000000000000000000000000000001661dead179055603580548315157fffffffffffffffffffffffffffffffffffffffffffffffffffffffffffffff00909116179055611815612556565b801561187857600080547fffffffffffffffffffffffffffffffffffffffffffffffffffffffffffff00ff169055604051600181527f7f26b83ff96e1f2b6a682f133852f6798a09c465da95921460cefb38474024989060200160405180910390a15b5050565b60355460ff16156118e9576040517f08c379a000000000000000000000000000000000000000000000000000000000815260206004820152601660248201527f4f7074696d69736d506f7274616c3a207061757365640000000000000000000060448201526064016105eb565b3073ffffffffffffffffffffffffffffffffffffffff16856040015173ffffffffffffffffffffffffffffffffffffffff16036119a8576040517f08c379a000000000000000000000000000000000000000000000000000000000815260206004820152603f60248201527f4f7074696d69736d506f7274616c3a20796f752063616e6e6f742073656e642060448201527f6d6573736167657320746f2074686520706f7274616c20636f6e74726163740060648201526084016105eb565b6040517fa25ae557000000000000000000000000000000000000000000000000000000008152600481018590526000907f000000000000000000000000000000000000000000000000000000000000000073ffffffffffffffffffffffffffffffffffffffff169063a25ae55790602401606060405180830381865afa158015611a36573d6000803e3d6000fd5b505050506040513d601f19601f82011682018060405250810190611a5a9190615682565b519050611a74611a6f36869003860186615805565b612639565b8114611b02576040517f08c379a000000000000000000000000000000000000000000000000000000000815260206004820152602960248201527f4f7074696d69736d506f7274616c3a20696e76616c6964206f7574707574207260448201527f6f6f742070726f6f66000000000000000000000000000000000000000000000060648201526084016105eb565b6000611b0d876122c6565b6000818152603460209081526040918290208251606081018452815481526001909101546fffffffffffffffffffffffffffffffff8082169383018490527001000000000000000000000000000000009091041692810192909252919250901580611c3f5750805160408083015190517fa25ae5570000000000000000000000000000000000000000000000000000000081526fffffffffffffffffffffffffffffffff90911660048201527f000000000000000000000000000000000000000000000000000000000000000073ffffffffffffffffffffffffffffffffffffffff169063a25ae55790602401606060405180830381865afa158015611c17573d6000803e3d6000fd5b505050506040513d601f19601f82011682018060405250810190611c3b9190615682565b5114155b611ccb576040517f08c379a000000000000000000000000000000000000000000000000000000000815260206004820152603760248201527f4f7074696d69736d506f7274616c3a207769746864726177616c20686173682060448201527f68617320616c7265616479206265656e2070726f76656e00000000000000000060648201526084016105eb565b60408051602081018490526000918101829052606001604080517fffffffffffffffffffffffffffffffffffffffffffffffffffffffffffffffe081840301815282825280516020918201209083018190529250611d949101604080517fffffffffffffffffffffffffffffffffffffffffffffffffffffffffffffffe0818403018152828201909152600182527f0100000000000000000000000000000000000000000000000000000000000000602083015290611d8a888a61586b565b8a60400135612678565b611e20576040517f08c379a000000000000000000000000000000000000000000000000000000000815260206004820152603260248201527f4f7074696d69736d506f7274616c3a20696e76616c696420776974686472617760448201527f616c20696e636c7573696f6e2070726f6f66000000000000000000000000000060648201526084016105eb565b604080516060810182528581526fffffffffffffffffffffffffffffffff42811660208084019182528c831684860190815260008981526034835286812095518655925190518416700100000000000000000000000000000000029316929092176001909301929092558b830151908c0151925173ffffffffffffffffffffffffffffffffffffffff918216939091169186917f67a6208cfcc0801d50f6cbe764733f4fddf66ac0b04442061a8a8c0cb6b63f629190a4505050505050505050565b73ffffffffffffffffffffffffffffffffffffffff163b151590565b6040805173ffffffffffffffffffffffffffffffffffffffff85811660248301528416604482015260648082018490528251808303909101815260849091019091526020810180517bffffffffffffffffffffffffffffffffffffffffffffffffffffffff167f23b872dd00000000000000000000000000000000000000000000000000000000179052611f9390859061269c565b50505050565b600154600090611fcf907801000000000000000000000000000000000000000000000000900467ffffffffffffffff16436158ef565b90506000611fdb6127ad565b90506000816020015160ff16826000015163ffffffff16611ffc9190615935565b9050821561213357600154600090612033908390700100000000000000000000000000000000900467ffffffffffffffff1661599d565b90506000836040015160ff168361204a9190615a11565b60015461206a9084906fffffffffffffffffffffffffffffffff16615a11565b6120749190615935565b6001549091506000906120c59061209e9084906fffffffffffffffffffffffffffffffff16615acd565b866060015163ffffffff168760a001516fffffffffffffffffffffffffffffffff16612873565b905060018611156120f4576120f161209e82876040015160ff1660018a6120ec91906158ef565b612892565b90505b6fffffffffffffffffffffffffffffffff16780100000000000000000000000000000000000000000000000067ffffffffffffffff4316021760015550505b60018054869190601090612166908490700100000000000000000000000000000000900467ffffffffffffffff166157d9565b92506101000a81548167ffffffffffffffff021916908367ffffffffffffffff160217905550816000015163ffffffff16600160000160109054906101000a900467ffffffffffffffff1667ffffffffffffffff161315612249576040517f08c379a000000000000000000000000000000000000000000000000000000000815260206004820152603e60248201527f5265736f757263654d65746572696e673a2063616e6e6f7420627579206d6f7260448201527f6520676173207468616e20617661696c61626c6520676173206c696d6974000060648201526084016105eb565b600154600090612275906fffffffffffffffffffffffffffffffff1667ffffffffffffffff8816615b41565b9050600061228748633b9aca006128e7565b6122919083615b7e565b905060005a6122a090886158ef565b9050808211156122bc576122bc6122b782846158ef565b6128fe565b5050505050505050565b80516020808301516040808501516060860151608087015160a088015160c089015194516000986122fb989097969101615b92565b604051602081830303815290604052805190602001209050919050565b60007f000000000000000000000000000000000000000000000000000000000000000073ffffffffffffffffffffffffffffffffffffffff1663f4daa2916040518163ffffffff1660e01b8152600401602060405180830381865afa158015612385573d6000803e3d6000fd5b505050506040513d601f19601f820116820180604052508101906123a99190615649565b6123b39083615bf0565b421192915050565b60008060006123cb866000612927565b905080612401576308c379a06000526020805278185361666543616c6c3a204e6f7420656e6f756768206761736058526064601cfd5b600080855160208701888b5af1979650505050505050565b60608160000361245c57505060408051808201909152600181527f3000000000000000000000000000000000000000000000000000000000000000602082015290565b8160005b8115612486578061247081615c08565b915061247f9050600a83615b7e565b9150612460565b60008167ffffffffffffffff8111156124a1576124a1615144565b6040519080825280601f01601f1916602001820160405280156124cb576020820181803683370190505b5090505b841561254e576124e06001836158ef565b91506124ed600a86615c40565b6124f8906030615bf0565b60f81b81838151811061250d5761250d615c54565b60200101907effffffffffffffffffffffffffffffffffffffffffffffffffffffffffffff1916908160001a905350612547600a86615b7e565b94506124cf565b949350505050565b600054610100900460ff166125ed576040517f08c379a000000000000000000000000000000000000000000000000000000000815260206004820152602b60248201527f496e697469616c697a61626c653a20636f6e7472616374206973206e6f74206960448201527f6e697469616c697a696e6700000000000000000000000000000000000000000060648201526084016105eb565b60408051606081018252633b9aca00808252600060208301524367ffffffffffffffff169190920181905278010000000000000000000000000000000000000000000000000217600155565b600081600001518260200151836040015184606001516040516020016122fb949392919093845260208401929092526040830152606082015260800190565b60008061268486612945565b905061269281868686612977565b9695505050505050565b60006126fe826040518060400160405280602081526020017f5361666545524332303a206c6f772d6c6576656c2063616c6c206661696c65648152508573ffffffffffffffffffffffffffffffffffffffff166129a79092919063ffffffff16565b8051909150156127a8578080602001905181019061271c91906156e7565b6127a8576040517f08c379a000000000000000000000000000000000000000000000000000000000815260206004820152602a60248201527f5361666545524332303a204552433230206f7065726174696f6e20646964206e60448201527f6f7420737563636565640000000000000000000000000000000000000000000060648201526084016105eb565b505050565b6040805160c081018252600080825260208201819052918101829052606081018290526080810182905260a08101919091527f000000000000000000000000000000000000000000000000000000000000000073ffffffffffffffffffffffffffffffffffffffff1663cc731b026040518163ffffffff1660e01b815260040160c060405180830381865afa15801561284a573d6000803e3d6000fd5b505050506040513d601f19601f8201168201806040525081019061286e9190615ca8565b905090565b600061288861288285856129b6565b836129c6565b90505b9392505050565b6000670de0b6b3a76400006128d36128aa8583615935565b6128bc90670de0b6b3a764000061599d565b6128ce85670de0b6b3a7640000615a11565b6129d5565b6128dd9086615a11565b6128889190615935565b6000818310156128f7578161288b565b5090919050565b6000805a90505b825a61291190836158ef565b10156127a85761292082615c08565b9150612905565b600080603f83619c4001026040850201603f5a021015949350505050565b6060818051906020012060405160200161296191815260200190565b6040516020818303038152906040529050919050565b600061299e84612988878686612a06565b8051602091820120825192909101919091201490565b95945050505050565b6060612888848460008561348e565b6000818312156128f7578161288b565b60008183126128f7578161288b565b600061288b670de0b6b3a7640000836129ed86613624565b6129f79190615a11565b612a019190615935565b613868565b60606000845111612a73576040517f08c379a000000000000000000000000000000000000000000000000000000000815260206004820152601560248201527f4d65726b6c65547269653a20656d707479206b6579000000000000000000000060448201526064016105eb565b6000612a7e84613aa7565b90506000612a8b86613b96565b9050600084604051602001612aa291815260200190565b60405160208183030381529060405290506000805b8451811015613405576000858281518110612ad457612ad4615c54565b602002602001015190508451831115612b6f576040517f08c379a000000000000000000000000000000000000000000000000000000000815260206004820152602e60248201527f4d65726b6c65547269653a206b657920696e646578206578636565647320746f60448201527f74616c206b6579206c656e67746800000000000000000000000000000000000060648201526084016105eb565b82600003612c285780518051602091820120604051612bbd92612b9792910190815260200190565b604051602081830303815290604052858051602091820120825192909101919091201490565b612c23576040517f08c379a000000000000000000000000000000000000000000000000000000000815260206004820152601d60248201527f4d65726b6c65547269653a20696e76616c696420726f6f74206861736800000060448201526064016105eb565b612d7f565b805151602011612cde5780518051602091820120604051612c5292612b9792910190815260200190565b612c23576040517f08c379a000000000000000000000000000000000000000000000000000000000815260206004820152602760248201527f4d65726b6c65547269653a20696e76616c6964206c6172676520696e7465726e60448201527f616c20686173680000000000000000000000000000000000000000000000000060648201526084016105eb565b805184516020808701919091208251919092012014612d7f576040517f08c379a000000000000000000000000000000000000000000000000000000000815260206004820152602660248201527f4d65726b6c65547269653a20696e76616c696420696e7465726e616c206e6f6460448201527f652068617368000000000000000000000000000000000000000000000000000060648201526084016105eb565b612d8b60106001615bf0565b81602001515103612f6c5784518303612f04576000612dc78260200151601081518110612dba57612dba615c54565b6020026020010151613d31565b90506000815111612e5a576040517f08c379a000000000000000000000000000000000000000000000000000000000815260206004820152603b60248201527f4d65726b6c65547269653a2076616c7565206c656e677468206d75737420626560448201527f2067726561746572207468616e207a65726f20286272616e636829000000000060648201526084016105eb565b60018751612e6891906158ef565b8314612ef6576040517f08c379a000000000000000000000000000000000000000000000000000000000815260206004820152603a60248201527f4d65726b6c65547269653a2076616c7565206e6f6465206d757374206265206c60448201527f617374206e6f646520696e2070726f6f6620286272616e63682900000000000060648201526084016105eb565b965061288b95505050505050565b6000858481518110612f1857612f18615c54565b602001015160f81c60f81b60f81c9050600082602001518260ff1681518110612f4357612f43615c54565b60200260200101519050612f5681613e91565b9550612f63600186615bf0565b945050506133f2565b60028160200151510361336a576000612f8482613eb6565b9050600081600081518110612f9b57612f9b615c54565b016020015160f81c90506000612fb2600283615d47565b612fbd906002615d69565b90506000612fce848360ff16613eda565b90506000612fdc8a89613eda565b90506000612fea8383613f10565b90508083511461307c576040517f08c379a000000000000000000000000000000000000000000000000000000000815260206004820152603a60248201527f4d65726b6c65547269653a20706174682072656d61696e646572206d7573742060448201527f736861726520616c6c206e6962626c65732077697468206b657900000000000060648201526084016105eb565b60ff851660021480613091575060ff85166003145b156132855780825114613126576040517f08c379a000000000000000000000000000000000000000000000000000000000815260206004820152603d60248201527f4d65726b6c65547269653a206b65792072656d61696e646572206d757374206260448201527f65206964656e746963616c20746f20706174682072656d61696e64657200000060648201526084016105eb565b60006131428860200151600181518110612dba57612dba615c54565b905060008151116131d5576040517f08c379a000000000000000000000000000000000000000000000000000000000815260206004820152603960248201527f4d65726b6c65547269653a2076616c7565206c656e677468206d75737420626560448201527f2067726561746572207468616e207a65726f20286c656166290000000000000060648201526084016105eb565b60018d516131e391906158ef565b8914613271576040517f08c379a000000000000000000000000000000000000000000000000000000000815260206004820152603860248201527f4d65726b6c65547269653a2076616c7565206e6f6465206d757374206265206c60448201527f617374206e6f646520696e2070726f6f6620286c65616629000000000000000060648201526084016105eb565b9c5061288b9b505050505050505050505050565b60ff85161580613298575060ff85166001145b156132d7576132c487602001516001815181106132b7576132b7615c54565b6020026020010151613e91565b99506132d0818a615bf0565b985061335f565b6040517f08c379a000000000000000000000000000000000000000000000000000000000815260206004820152603260248201527f4d65726b6c65547269653a2072656365697665642061206e6f6465207769746860448201527f20616e20756e6b6e6f776e20707265666978000000000000000000000000000060648201526084016105eb565b5050505050506133f2565b6040517f08c379a000000000000000000000000000000000000000000000000000000000815260206004820152602860248201527f4d65726b6c65547269653a20726563656976656420616e20756e70617273656160448201527f626c65206e6f646500000000000000000000000000000000000000000000000060648201526084016105eb565b50806133fd81615c08565b915050612ab7565b506040517f08c379a000000000000000000000000000000000000000000000000000000000815260206004820152602560248201527f4d65726b6c65547269653a2072616e206f7574206f662070726f6f6620656c6560448201527f6d656e747300000000000000000000000000000000000000000000000000000060648201526084016105eb565b606082471015613520576040517f08c379a000000000000000000000000000000000000000000000000000000000815260206004820152602660248201527f416464726573733a20696e73756666696369656e742062616c616e636520666f60448201527f722063616c6c000000000000000000000000000000000000000000000000000060648201526084016105eb565b73ffffffffffffffffffffffffffffffffffffffff85163b61359e576040517f08c379a000000000000000000000000000000000000000000000000000000000815260206004820152601d60248201527f416464726573733a2063616c6c20746f206e6f6e2d636f6e747261637400000060448201526064016105eb565b6000808673ffffffffffffffffffffffffffffffffffffffff1685876040516135c79190615d8c565b60006040518083038185875af1925050503d8060008114613604576040519150601f19603f3d011682016040523d82523d6000602084013e613609565b606091505b5091509150613619828286613fbf565b979650505050505050565b600080821361368f576040517f08c379a000000000000000000000000000000000000000000000000000000000815260206004820152600960248201527f554e444546494e4544000000000000000000000000000000000000000000000060448201526064016105eb565b6000606061369c84614012565b03609f8181039490941b90931c6c465772b2bbbb5f824b15207a3081018102606090811d6d0388eaa27412d5aca026815d636e018202811d6d0df99ac502031bf953eff472fdcc018202811d6d13cdffb29d51d99322bdff5f2211018202811d6d0a0f742023def783a307a986912e018202811d6d01920d8043ca89b5239253284e42018202811d6c0b7a86d7375468fac667a0a527016c29508e458543d8aa4df2abee7883018302821d6d0139601a2efabe717e604cbb4894018302821d6d02247f7a7b6594320649aa03aba1018302821d7fffffffffffffffffffffffffffffffffffffff73c0c716a594e00d54e3c4cbc9018302821d7ffffffffffffffffffffffffffffffffffffffdc7b88c420e53a9890533129f6f01830290911d7fffffffffffffffffffffffffffffffffffffff465fda27eb4d63ded474e5f832019091027ffffffffffffffff5f6af8f7b3396644f18e157960000000000000000000000000105711340daa0d5f769dba1915cef59f0815a5506027d0267a36c0c95b3975ab3ee5b203a7614a3f75373f047d803ae7b6687f2b393909302929092017d57115e47018c7177eebf7cd370a3356a1b7863008a5ae8028c72b88642840160ae1d92915050565b60007ffffffffffffffffffffffffffffffffffffffffffffffffdb731c958f34d94c1821361389957506000919050565b680755bf798b4a1bf1e5821261390b576040517f08c379a000000000000000000000000000000000000000000000000000000000815260206004820152600c60248201527f4558505f4f564552464c4f57000000000000000000000000000000000000000060448201526064016105eb565b6503782dace9d9604e83901b059150600060606bb17217f7d1cf79abc9e3b39884821b056b80000000000000000000000001901d6bb17217f7d1cf79abc9e3b39881029093037fffffffffffffffffffffffffffffffffffffffdbf3ccf1604d263450f02a550481018102606090811d6d0277594991cfc85f6e2461837cd9018202811d7fffffffffffffffffffffffffffffffffffffe5adedaa1cb095af9e4da10e363c018202811d6db1bbb201f443cf962f1a1d3db4a5018202811d7ffffffffffffffffffffffffffffffffffffd38dc772608b0ae56cce01296c0eb018202811d6e05180bb14799ab47a8a8cb2a527d57016d02d16720577bd19bf614176fe9ea6c10fe68e7fd37d0007b713f765084018402831d9081019084017ffffffffffffffffffffffffffffffffffffffe2c69812cf03b0763fd454a8f7e010290911d6e0587f503bb6ea29d25fcb7401964500190910279d835ebba824c98fb31b83b2ca45c000000000000000000000000010574029d9dc38563c32e5c2f6dc192ee70ef65f9978af30260c3939093039290921c92915050565b805160609060008167ffffffffffffffff811115613ac757613ac7615144565b604051908082528060200260200182016040528015613b0c57816020015b6040805180820190915260608082526020820152815260200190600190039081613ae55790505b50905060005b82811015613b8e576040518060400160405280868381518110613b3757613b37615c54565b60200260200101518152602001613b66878481518110613b5957613b59615c54565b60200260200101516140e8565b815250828281518110613b7b57613b7b615c54565b6020908102919091010152600101613b12565b509392505050565b80516060906000613ba8826002615b41565b67ffffffffffffffff811115613bc057613bc0615144565b6040519080825280601f01601f191660200182016040528015613bea576020820181803683370190505b5090506000805b83811015613d2757858181518110613c0b57613c0b615c54565b6020910101517fff000000000000000000000000000000000000000000000000000000000000008116925060041c7f0ff00000000000000000000000000000000000000000000000000000000000001683613c67836002615b41565b81518110613c7757613c77615c54565b60200101907effffffffffffffffffffffffffffffffffffffffffffffffffffffffffffff1916908160001a9053507f0f00000000000000000000000000000000000000000000000000000000000000821683613cd5836002615b41565b613ce0906001615bf0565b81518110613cf057613cf0615c54565b60200101907effffffffffffffffffffffffffffffffffffffffffffffffffffffffffffff1916908160001a905350600101613bf1565b5090949350505050565b60606000806000613d41856140fb565b919450925090506000816001811115613d5c57613d5c615da8565b14613de9576040517f08c379a000000000000000000000000000000000000000000000000000000000815260206004820152603960248201527f524c505265616465723a206465636f646564206974656d207479706520666f7260448201527f206279746573206973206e6f7420612064617461206974656d0000000000000060648201526084016105eb565b613df38284615bf0565b855114613e82576040517f08c379a000000000000000000000000000000000000000000000000000000000815260206004820152603460248201527f524c505265616465723a2062797465732076616c756520636f6e7461696e732060448201527f616e20696e76616c69642072656d61696e64657200000000000000000000000060648201526084016105eb565b61299e85602001518484614b68565b60606020826000015110613ead57613ea882613d31565b611550565b61155082614c09565b6060611550613ed58360200151600081518110612dba57612dba615c54565b613b96565b606082518210613ef95750604080516020810190915260008152611550565b61288b8383848651613f0b91906158ef565b614c1f565b60008060008351855110613f25578351613f28565b84515b90505b8082108015613faf5750838281518110613f4757613f47615c54565b602001015160f81c60f81b7effffffffffffffffffffffffffffffffffffffffffffffffffffffffffffff1916858381518110613f8657613f86615c54565b01602001517fff0000000000000000000000000000000000000000000000000000000000000016145b15613b8e57816001019150613f2b565b60608315613fce57508161288b565b825115613fde5782518084602001fd5b816040517f08c379a00000000000000000000000000000000000000000000000000000000081526004016105eb91906153df565b600080821161407d576040517f08c379a000000000000000000000000000000000000000000000000000000000815260206004820152600960248201527f554e444546494e4544000000000000000000000000000000000000000000000060448201526064016105eb565b5060016fffffffffffffffffffffffffffffffff821160071b82811c67ffffffffffffffff1060061b1782811c63ffffffff1060051b1782811c61ffff1060041b1782811c60ff10600390811b90911783811c600f1060021b1783811c909110821b1791821c111790565b60606115506140f683614df7565b614ee0565b6000806000808460000151116141b9576040517f08c379a000000000000000000000000000000000000000000000000000000000815260206004820152604a60248201527f524c505265616465723a206c656e677468206f6620616e20524c50206974656d60448201527f206d7573742062652067726561746572207468616e207a65726f20746f20626560648201527f206465636f6461626c6500000000000000000000000000000000000000000000608482015260a4016105eb565b6020840151805160001a607f81116141de576000600160009450945094505050614b61565b60b781116143ec5760006141f36080836158ef565b9050808760000151116142ae576040517f08c379a000000000000000000000000000000000000000000000000000000000815260206004820152604e60248201527f524c505265616465723a206c656e677468206f6620636f6e74656e74206d757360448201527f742062652067726561746572207468616e20737472696e67206c656e6774682060648201527f2873686f727420737472696e6729000000000000000000000000000000000000608482015260a4016105eb565b6001838101517fff0000000000000000000000000000000000000000000000000000000000000016908214158061432757507f80000000000000000000000000000000000000000000000000000000000000007fff00000000000000000000000000000000000000000000000000000000000000821610155b6143d9576040517f08c379a000000000000000000000000000000000000000000000000000000000815260206004820152604d60248201527f524c505265616465723a20696e76616c6964207072656669782c2073696e676c60448201527f652062797465203c203078383020617265206e6f74207072656669786564202860648201527f73686f727420737472696e672900000000000000000000000000000000000000608482015260a4016105eb565b5060019550935060009250614b61915050565b60bf811161473a57600061440160b7836158ef565b9050808760000151116144bc576040517f08c379a000000000000000000000000000000000000000000000000000000000815260206004820152605160248201527f524c505265616465723a206c656e677468206f6620636f6e74656e74206d757360448201527f74206265203e207468616e206c656e677468206f6620737472696e67206c656e60648201527f67746820286c6f6e6720737472696e6729000000000000000000000000000000608482015260a4016105eb565b60018301517fff0000000000000000000000000000000000000000000000000000000000000016600081900361459a576040517f08c379a000000000000000000000000000000000000000000000000000000000815260206004820152604a60248201527f524c505265616465723a206c656e677468206f6620636f6e74656e74206d757360448201527f74206e6f74206861766520616e79206c656164696e67207a65726f7320286c6f60648201527f6e6720737472696e672900000000000000000000000000000000000000000000608482015260a4016105eb565b600184015160088302610100031c6037811161465e576040517f08c379a000000000000000000000000000000000000000000000000000000000815260206004820152604860248201527f524c505265616465723a206c656e677468206f6620636f6e74656e74206d757360448201527f742062652067726561746572207468616e20353520627974657320286c6f6e6760648201527f20737472696e6729000000000000000000000000000000000000000000000000608482015260a4016105eb565b6146688184615bf0565b89511161471d576040517f08c379a000000000000000000000000000000000000000000000000000000000815260206004820152604c60248201527f524c505265616465723a206c656e677468206f6620636f6e74656e74206d757360448201527f742062652067726561746572207468616e20746f74616c206c656e677468202860648201527f6c6f6e6720737472696e67290000000000000000000000000000000000000000608482015260a4016105eb565b614728836001615bf0565b9750955060009450614b619350505050565b60f7811161481b57600061474f60c0836158ef565b90508087600001511161480a576040517f08c379a000000000000000000000000000000000000000000000000000000000815260206004820152604a60248201527f524c505265616465723a206c656e677468206f6620636f6e74656e74206d757360448201527f742062652067726561746572207468616e206c697374206c656e67746820287360648201527f686f7274206c6973742900000000000000000000000000000000000000000000608482015260a4016105eb565b600195509350849250614b61915050565b600061482860f7836158ef565b9050808760000151116148e3576040517f08c379a000000000000000000000000000000000000000000000000000000000815260206004820152604d60248201527f524c505265616465723a206c656e677468206f6620636f6e74656e74206d757360448201527f74206265203e207468616e206c656e677468206f66206c697374206c656e677460648201527f6820286c6f6e67206c6973742900000000000000000000000000000000000000608482015260a4016105eb565b60018301517fff000000000000000000000000000000000000000000000000000000000000001660008190036149c1576040517f08c379a000000000000000000000000000000000000000000000000000000000815260206004820152604860248201527f524c505265616465723a206c656e677468206f6620636f6e74656e74206d757360448201527f74206e6f74206861766520616e79206c656164696e67207a65726f7320286c6f60648201527f6e67206c69737429000000000000000000000000000000000000000000000000608482015260a4016105eb565b600184015160088302610100031c60378111614a85576040517f08c379a000000000000000000000000000000000000000000000000000000000815260206004820152604660248201527f524c505265616465723a206c656e677468206f6620636f6e74656e74206d757360448201527f742062652067726561746572207468616e20353520627974657320286c6f6e6760648201527f206c697374290000000000000000000000000000000000000000000000000000608482015260a4016105eb565b614a8f8184615bf0565b895111614b44576040517f08c379a000000000000000000000000000000000000000000000000000000000815260206004820152604a60248201527f524c505265616465723a206c656e677468206f6620636f6e74656e74206d757360448201527f742062652067726561746572207468616e20746f74616c206c656e677468202860648201527f6c6f6e67206c6973742900000000000000000000000000000000000000000000608482015260a4016105eb565b614b4f836001615bf0565b9750955060019450614b619350505050565b9193909250565b606060008267ffffffffffffffff811115614b8557614b85615144565b6040519080825280601f01601f191660200182016040528015614baf576020820181803683370190505b50905082600003614bc157905061288b565b6000614bcd8587615bf0565b90506020820160005b85811015614bee578281015182820152602001614bd6565b85811115614bfd576000868301525b50919695505050505050565b6060611550826020015160008460000151614b68565b60608182601f011015614c8e576040517f08c379a000000000000000000000000000000000000000000000000000000000815260206004820152600e60248201527f736c6963655f6f766572666c6f7700000000000000000000000000000000000060448201526064016105eb565b828284011015614cfa576040517f08c379a000000000000000000000000000000000000000000000000000000000815260206004820152600e60248201527f736c6963655f6f766572666c6f7700000000000000000000000000000000000060448201526064016105eb565b81830184511015614d67576040517f08c379a000000000000000000000000000000000000000000000000000000000815260206004820152601160248201527f736c6963655f6f75744f66426f756e647300000000000000000000000000000060448201526064016105eb565b606082158015614d865760405191506000825260208201604052614dee565b6040519150601f8416801560200281840101858101878315602002848b0101015b81831015614dbf578051835260209283019201614da7565b5050858452601f017fffffffffffffffffffffffffffffffffffffffffffffffffffffffffffffffe016604052505b50949350505050565b60408051808201909152600080825260208201526000825111614ec2576040517f08c379a000000000000000000000000000000000000000000000000000000000815260206004820152604a60248201527f524c505265616465723a206c656e677468206f6620616e20524c50206974656d60448201527f206d7573742062652067726561746572207468616e207a65726f20746f20626560648201527f206465636f6461626c6500000000000000000000000000000000000000000000608482015260a4016105eb565b50604080518082019091528151815260209182019181019190915290565b60606000806000614ef0856140fb565b919450925090506001816001811115614f0b57614f0b615da8565b14614f98576040517f08c379a000000000000000000000000000000000000000000000000000000000815260206004820152603860248201527f524c505265616465723a206465636f646564206974656d207479706520666f7260448201527f206c697374206973206e6f742061206c697374206974656d000000000000000060648201526084016105eb565b8451614fa48385615bf0565b14615031576040517f08c379a000000000000000000000000000000000000000000000000000000000815260206004820152603260248201527f524c505265616465723a206c697374206974656d2068617320616e20696e766160448201527f6c696420646174612072656d61696e646572000000000000000000000000000060648201526084016105eb565b6040805160208082526104208201909252600091816020015b604080518082019091526000808252602082015281526020019060019003908161504a5790505090506000845b8751811015615138576000806150bd6040518060400160405280858d600001516150a191906158ef565b8152602001858d602001516150b69190615bf0565b90526140fb565b5091509150604051806040016040528083836150d99190615bf0565b8152602001848c602001516150ee9190615bf0565b81525085858151811061510357615103615c54565b6020908102919091010152615119600185615bf0565b93506151258183615bf0565b61512f9084615bf0565b92505050615077565b50815295945050505050565b7f4e487b7100000000000000000000000000000000000000000000000000000000600052604160045260246000fd5b60405160e0810167ffffffffffffffff8111828210171561519657615196615144565b60405290565b604051601f82017fffffffffffffffffffffffffffffffffffffffffffffffffffffffffffffffe016810167ffffffffffffffff811182821017156151e3576151e3615144565b604052919050565b803573ffffffffffffffffffffffffffffffffffffffff8116811461520f57600080fd5b919050565b600082601f83011261522557600080fd5b813567ffffffffffffffff81111561523f5761523f615144565b61527060207fffffffffffffffffffffffffffffffffffffffffffffffffffffffffffffffe0601f8401160161519c565b81815284602083860101111561528557600080fd5b816020850160208301376000918101602001919091529392505050565b600060e082840312156152b457600080fd5b6152bc615173565b9050813581526152ce602083016151eb565b60208201526152df604083016151eb565b6040820152606082013560608201526080820135608082015260a082013560a082015260c082013567ffffffffffffffff81111561531c57600080fd5b61532884828501615214565b60c08301525092915050565b60006020828403121561534657600080fd5b813567ffffffffffffffff81111561535d57600080fd5b61254e848285016152a2565b60005b8381101561538457818101518382015260200161536c565b83811115611f935750506000910152565b600081518084526153ad816020860160208601615369565b601f017fffffffffffffffffffffffffffffffffffffffffffffffffffffffffffffffe0169290920160200192915050565b60208152600061288b6020830184615395565b60006020828403121561540457600080fd5b5035919050565b803567ffffffffffffffff8116811461520f57600080fd5b60006020828403121561543557600080fd5b61288b8261540b565b801515811461544c57600080fd5b50565b600080600080600080600060e0888a03121561546a57600080fd5b8735965060208801359550615481604089016151eb565b9450606088013593506154966080890161540b565b925060a08801356154a68161543e565b915060c088013567ffffffffffffffff8111156154c257600080fd5b6154ce8a828b01615214565b91505092959891949750929550565b6000602082840312156154ef57600080fd5b813561288b8161543e565b600080600080600085870360e081121561551357600080fd5b863567ffffffffffffffff8082111561552b57600080fd5b6155378a838b016152a2565b97506020890135965060807fffffffffffffffffffffffffffffffffffffffffffffffffffffffffffffffc08401121561557057600080fd5b60408901955060c089013592508083111561558a57600080fd5b828901925089601f84011261559e57600080fd5b82359150808211156155af57600080fd5b508860208260051b84010111156155c557600080fd5b959894975092955050506020019190565b8781528660208201528560408201528460608201527fffffffffffffffff0000000000000000000000000000000000000000000000008460c01b16608082015282151560f81b608882015260008251615636816089850160208701615369565b9190910160890198975050505050505050565b60006020828403121561565b57600080fd5b5051919050565b80516fffffffffffffffffffffffffffffffff8116811461520f57600080fd5b60006060828403121561569457600080fd5b6040516060810181811067ffffffffffffffff821117156156b7576156b7615144565b604052825181526156ca60208401615662565b60208201526156db60408401615662565b60408201529392505050565b6000602082840312156156f957600080fd5b815161288b8161543e565b60008451615716818460208901615369565b80830190507f2e000000000000000000000000000000000000000000000000000000000000008082528551615752816001850160208a01615369565b6001920191820152835161576d816002840160208801615369565b0160020195945050505050565b7f4e487b7100000000000000000000000000000000000000000000000000000000600052601160045260246000fd5b600067ffffffffffffffff808316818516818304811182151516156157d0576157d061577a565b02949350505050565b600067ffffffffffffffff8083168185168083038211156157fc576157fc61577a565b01949350505050565b60006080828403121561581757600080fd5b6040516080810181811067ffffffffffffffff8211171561583a5761583a615144565b8060405250823581526020830135602082015260408301356040820152606083013560608201528091505092915050565b600067ffffffffffffffff8084111561588657615886615144565b8360051b602061589781830161519c565b8681529185019181810190368411156158af57600080fd5b865b848110156158e3578035868111156158c95760008081fd5b6158d536828b01615214565b8452509183019183016158b1565b50979650505050505050565b6000828210156159015761590161577a565b500390565b7f4e487b7100000000000000000000000000000000000000000000000000000000600052601260045260246000fd5b60008261594457615944615906565b7fffffffffffffffffffffffffffffffffffffffffffffffffffffffffffffffff83147f8000000000000000000000000000000000000000000000000000000000000000831416156159985761599861577a565b500590565b6000808312837f8000000000000000000000000000000000000000000000000000000000000000018312811516156159d7576159d761577a565b837f7fffffffffffffffffffffffffffffffffffffffffffffffffffffffffffffff018313811615615a0b57615a0b61577a565b50500390565b60007f7fffffffffffffffffffffffffffffffffffffffffffffffffffffffffffffff600084136000841385830485118282161615615a5257615a5261577a565b7f80000000000000000000000000000000000000000000000000000000000000006000871286820588128184161615615a8d57615a8d61577a565b60008712925087820587128484161615615aa957615aa961577a565b87850587128184161615615abf57615abf61577a565b505050929093029392505050565b6000808212827f7fffffffffffffffffffffffffffffffffffffffffffffffffffffffffffffff03841381151615615b0757615b0761577a565b827f8000000000000000000000000000000000000000000000000000000000000000038412811615615b3b57615b3b61577a565b50500190565b6000817fffffffffffffffffffffffffffffffffffffffffffffffffffffffffffffffff0483118215151615615b7957615b7961577a565b500290565b600082615b8d57615b8d615906565b500490565b878152600073ffffffffffffffffffffffffffffffffffffffff80891660208401528088166040840152508560608301528460808301528360a083015260e060c0830152615be360e0830184615395565b9998505050505050505050565b60008219821115615c0357615c0361577a565b500190565b60007fffffffffffffffffffffffffffffffffffffffffffffffffffffffffffffffff8203615c3957615c3961577a565b5060010190565b600082615c4f57615c4f615906565b500690565b7f4e487b7100000000000000000000000000000000000000000000000000000000600052603260045260246000fd5b805163ffffffff8116811461520f57600080fd5b805160ff8116811461520f57600080fd5b600060c08284031215615cba57600080fd5b60405160c0810181811067ffffffffffffffff82111715615cdd57615cdd615144565b604052615ce983615c83565b8152615cf760208401615c97565b6020820152615d0860408401615c97565b6040820152615d1960608401615c83565b6060820152615d2a60808401615c83565b6080820152615d3b60a08401615662565b60a08201529392505050565b600060ff831680615d5a57615d5a615906565b8060ff84160691505092915050565b600060ff821660ff841680821015615d8357615d8361577a565b90039392505050565b60008251615d9e818460208701615369565b9190910192915050565b7f4e487b7100000000000000000000000000000000000000000000000000000000600052602160045260246000fdfea164736f6c634300080f000a",
  "devdoc": {
    "version": 1,
    "kind": "dev",
    "methods": {
      "constructor": {
        "params": {
          "_config": "Address of the SystemConfig contract.",
          "_guardian": "Address that can pause deposits and withdrawals.",
          "_l2Oracle": "Address of the L2OutputOracle contract.",
          "_paused": "Sets the contract's pausability state."
        }
      },
      "depositTransaction(uint256,address,uint256,uint64,bool,bytes)": {
        "params": {
          "_data": "Data to trigger the recipient with.",
          "_gasLimit": "Minimum L2 gas limit (can be greater than or equal to this value).",
          "_isCreation": "Whether or not the transaction is a contract creation.",
          "_mntTxValue": "MNT value to send to the recipient.",
          "_mntValue": "Mint MNT amount to from address on L2",
          "_to": "Target address on L2."
        }
      },
      "finalizeWithdrawalTransaction((uint256,address,address,uint256,uint256,uint256,bytes))": {
        "params": {
          "_tx": "Withdrawal transaction to finalize."
        }
      },
      "isOutputFinalized(uint256)": {
        "params": {
          "_l2OutputIndex": "Index of the L2 output to check."
        },
        "returns": {
          "_0": "Whether or not the output is finalized."
        }
      },
      "proveWithdrawalTransaction((uint256,address,address,uint256,uint256,uint256,bytes),uint256,(bytes32,bytes32,bytes32,bytes32),bytes[])": {
        "params": {
          "_l2OutputIndex": "L2 output index to prove against.",
          "_outputRootProof": "Inclusion proof of the L2ToL1MessagePasser contract's storage root.",
          "_tx": "Withdrawal transaction to finalize.",
          "_withdrawalProof": "Inclusion proof of the withdrawal in L2ToL1MessagePasser contract."
        }
      },
      "version()": {
        "returns": {
          "_0": "Semver contract version as a string."
        }
      }
    },
    "events": {
      "Paused(address)": {
        "params": {
          "account": "Address of the account triggering the pause."
        }
      },
      "TransactionDeposited(address,address,uint256,bytes)": {
        "params": {
          "from": "Address that triggered the deposit transaction.",
          "opaqueData": "ABI encoded deposit data to be parsed off-chain.",
          "to": "Address that the deposit transaction is directed to.",
          "version": "Version of this deposit transaction event."
        }
      },
      "Unpaused(address)": {
        "params": {
          "account": "Address of the account triggering the unpause."
        }
      },
      "WithdrawalFinalized(bytes32,bool)": {
        "params": {
          "success": "Whether the withdrawal transaction was successful.",
          "withdrawalHash": "Hash of the withdrawal transaction."
        }
      },
      "WithdrawalProven(bytes32,address,address)": {
        "params": {
          "withdrawalHash": "Hash of the withdrawal transaction."
        }
      }
    }
  },
  "userdoc": {
    "version": 1,
    "kind": "user",
    "methods": {
      "GUARDIAN()": {
        "notice": "Address that has the ability to pause and unpause withdrawals."
      },
      "L1_MNT_ADDRESS()": {
        "notice": "Address of  the L1 Mantle Token ."
      },
      "L2_ORACLE()": {
        "notice": "Address of the L2OutputOracle contract."
      },
      "SYSTEM_CONFIG()": {
        "notice": "Address of the SystemConfig contract."
      },
      "depositTransaction(uint256,address,uint256,uint64,bool,bytes)": {
        "notice": "Accepts deposits of ETH and data, and emits a TransactionDeposited event for use in         deriving deposit transactions. Note that if a deposit is made by a contract, its         address will be aliased when retrieved using `tx.origin` or `msg.sender`. Consider         using the CrossDomainMessenger contracts for a simpler developer experience."
      },
      "donateETH()": {
        "notice": "Accepts ETH value without triggering a deposit to L2. This function mainly exists         for the sake of the migration between the legacy Optimism system and Bedrock."
      },
      "finalizeWithdrawalTransaction((uint256,address,address,uint256,uint256,uint256,bytes))": {
        "notice": "Finalizes a withdrawal transaction."
      },
      "finalizedWithdrawals(bytes32)": {
        "notice": "A list of withdrawal hashes which have been successfully finalized."
      },
      "initialize(bool)": {
        "notice": "Initializer."
      },
      "isOutputFinalized(uint256)": {
        "notice": "Determine if a given output is finalized. Reverts if the call to         L2_ORACLE.getL2Output reverts. Returns a boolean otherwise."
      },
      "l2Sender()": {
        "notice": "Address of the L2 account which initiated a withdrawal in this transaction. If the         of this variable is the default L2 sender address, then we are NOT inside of a call         to finalizeWithdrawalTransaction."
      },
      "minimumGasLimit(uint64)": {
        "notice": "Computes the minimum gas limit for a deposit. The minimum gas limit         linearly increases based on the size of the calldata. This is to prevent         users from creating L2 resource usage without paying for it. This function         can be used when interacting with the portal to ensure forwards compatibility."
      },
      "params()": {
        "notice": "EIP-1559 style gas parameters."
      },
      "pause()": {
        "notice": "Pause deposits and withdrawals."
      },
      "paused()": {
        "notice": "Determines if cross domain messaging is paused. When set to true,         withdrawals are paused. This may be removed in the future."
      },
      "proveWithdrawalTransaction((uint256,address,address,uint256,uint256,uint256,bytes),uint256,(bytes32,bytes32,bytes32,bytes32),bytes[])": {
        "notice": "Proves a withdrawal transaction."
      },
      "provenWithdrawals(bytes32)": {
        "notice": "A mapping of withdrawal hashes to `ProvenWithdrawal` data."
      },
      "unpause()": {
        "notice": "Unpause deposits and withdrawals."
      },
      "version()": {
        "notice": "Returns the full semver contract version."
      }
    },
    "events": {
      "Paused(address)": {
        "notice": "Emitted when the pause is triggered."
      },
      "TransactionDeposited(address,address,uint256,bytes)": {
        "notice": "Emitted when a transaction is deposited from L1 to L2. The parameters of this event         are read by the rollup node and used to derive deposit transactions on L2."
      },
      "Unpaused(address)": {
        "notice": "Emitted when the pause is lifted."
      },
      "WithdrawalFinalized(bytes32,bool)": {
        "notice": "Emitted when a withdrawal transaction is finalized."
      },
      "WithdrawalProven(bytes32,address,address)": {
        "notice": "Emitted when a withdrawal transaction is proven."
      }
    },
    "notice": "The OptimismPortal is a low-level contract responsible for passing messages between L1         and L2. Messages sent directly to the OptimismPortal have no form of replayability.         Users are encouraged to use the L1CrossDomainMessenger for a higher-level interface."
  },
  "storageLayout": {
    "storage": [
      {
        "astId": 65438,
        "contract": "contracts/L1/OptimismPortal.sol:OptimismPortal",
        "label": "_initialized",
        "offset": 0,
        "slot": "0",
        "type": "t_uint8"
      },
      {
        "astId": 65441,
        "contract": "contracts/L1/OptimismPortal.sol:OptimismPortal",
        "label": "_initializing",
        "offset": 1,
        "slot": "0",
        "type": "t_bool"
      },
      {
        "astId": 3264,
        "contract": "contracts/L1/OptimismPortal.sol:OptimismPortal",
        "label": "params",
        "offset": 0,
        "slot": "1",
        "type": "t_struct(ResourceParams)3247_storage"
      },
      {
        "astId": 3269,
        "contract": "contracts/L1/OptimismPortal.sol:OptimismPortal",
        "label": "__gap",
        "offset": 0,
        "slot": "2",
        "type": "t_array(t_uint256)48_storage"
      },
      {
        "astId": 2555,
        "contract": "contracts/L1/OptimismPortal.sol:OptimismPortal",
        "label": "l2Sender",
        "offset": 0,
        "slot": "50",
        "type": "t_address"
      },
      {
        "astId": 2560,
        "contract": "contracts/L1/OptimismPortal.sol:OptimismPortal",
        "label": "finalizedWithdrawals",
        "offset": 0,
        "slot": "51",
        "type": "t_mapping(t_bytes32,t_bool)"
      },
      {
        "astId": 2566,
        "contract": "contracts/L1/OptimismPortal.sol:OptimismPortal",
        "label": "provenWithdrawals",
        "offset": 0,
        "slot": "52",
        "type": "t_mapping(t_bytes32,t_struct(ProvenWithdrawal)2530_storage)"
      },
      {
        "astId": 2569,
        "contract": "contracts/L1/OptimismPortal.sol:OptimismPortal",
        "label": "paused",
        "offset": 0,
        "slot": "53",
        "type": "t_bool"
      }
    ],
    "types": {
      "t_address": {
        "encoding": "inplace",
        "label": "address",
        "numberOfBytes": "20"
      },
      "t_array(t_uint256)48_storage": {
        "encoding": "inplace",
        "label": "uint256[48]",
        "numberOfBytes": "1536",
        "base": "t_uint256"
      },
      "t_bool": {
        "encoding": "inplace",
        "label": "bool",
        "numberOfBytes": "1"
      },
      "t_bytes32": {
        "encoding": "inplace",
        "label": "bytes32",
        "numberOfBytes": "32"
      },
      "t_mapping(t_bytes32,t_bool)": {
        "encoding": "mapping",
        "key": "t_bytes32",
        "label": "mapping(bytes32 => bool)",
        "numberOfBytes": "32",
        "value": "t_bool"
      },
      "t_mapping(t_bytes32,t_struct(ProvenWithdrawal)2530_storage)": {
        "encoding": "mapping",
        "key": "t_bytes32",
        "label": "mapping(bytes32 => struct OptimismPortal.ProvenWithdrawal)",
        "numberOfBytes": "32",
        "value": "t_struct(ProvenWithdrawal)2530_storage"
      },
      "t_struct(ProvenWithdrawal)2530_storage": {
        "encoding": "inplace",
        "label": "struct OptimismPortal.ProvenWithdrawal",
        "numberOfBytes": "64",
        "members": [
          {
            "astId": 2525,
            "contract": "contracts/L1/OptimismPortal.sol:OptimismPortal",
            "label": "outputRoot",
            "offset": 0,
            "slot": "0",
            "type": "t_bytes32"
          },
          {
            "astId": 2527,
            "contract": "contracts/L1/OptimismPortal.sol:OptimismPortal",
            "label": "timestamp",
            "offset": 0,
            "slot": "1",
            "type": "t_uint128"
          },
          {
            "astId": 2529,
            "contract": "contracts/L1/OptimismPortal.sol:OptimismPortal",
            "label": "l2OutputIndex",
            "offset": 16,
            "slot": "1",
            "type": "t_uint128"
          }
        ]
      },
      "t_struct(ResourceParams)3247_storage": {
        "encoding": "inplace",
        "label": "struct ResourceMetering.ResourceParams",
        "numberOfBytes": "32",
        "members": [
          {
            "astId": 3242,
            "contract": "contracts/L1/OptimismPortal.sol:OptimismPortal",
            "label": "prevBaseFee",
            "offset": 0,
            "slot": "0",
            "type": "t_uint128"
          },
          {
            "astId": 3244,
            "contract": "contracts/L1/OptimismPortal.sol:OptimismPortal",
            "label": "prevBoughtGas",
            "offset": 16,
            "slot": "0",
            "type": "t_uint64"
          },
          {
            "astId": 3246,
            "contract": "contracts/L1/OptimismPortal.sol:OptimismPortal",
            "label": "prevBlockNum",
            "offset": 24,
            "slot": "0",
            "type": "t_uint64"
          }
        ]
      },
      "t_uint128": {
        "encoding": "inplace",
        "label": "uint128",
        "numberOfBytes": "16"
      },
      "t_uint256": {
        "encoding": "inplace",
        "label": "uint256",
        "numberOfBytes": "32"
      },
      "t_uint64": {
        "encoding": "inplace",
        "label": "uint64",
        "numberOfBytes": "8"
      },
      "t_uint8": {
        "encoding": "inplace",
        "label": "uint8",
        "numberOfBytes": "1"
      }
    }
  }
}