{
  "address": "0xfd218affcf01369bf2AD193368D82ff85DBBFdAA",
  "abi": [
    {
      "inputs": [
        {
          "internalType": "contract OptimismPortal",
          "name": "_portal",
          "type": "address"
        }
      ],
      "stateMutability": "nonpayable",
      "type": "constructor"
    },
    {
      "inputs": [],
      "name": "PORTAL",
      "outputs": [
        {
          "internalType": "contract OptimismPortal",
          "name": "",
          "type": "address"
        }
      ],
      "stateMutability": "view",
      "type": "function"
    },
    {
      "inputs": [],
      "name": "donate",
      "outputs": [],
      "stateMutability": "nonpayable",
      "type": "function"
    }
  ],
  "transactionHash": "0x769928e9c368e1e29ebaf14a812045412fbe37af8068291791e675256b326c8a",
  "args": [
    "0x2eD00c9eefD29Ba89F5134ba4aeE695e42702DcC"
  ],
  "numDeployments": 1,
  "solcInputHash": "5d984ea18d2baaa5fc86c6eb5d403972",
  "bytecode": "0x60a060405234801561001057600080fd5b5060405161052038038061052083398101604081905261002f91610040565b6001600160a01b0316608052610070565b60006020828403121561005257600080fd5b81516001600160a01b038116811461006957600080fd5b9392505050565b60805161047b6100a5600039600081816040015281816099015281816101bc015281816102860152610373015261047b6000f3fe608060405234801561001057600080fd5b50600436106100365760003560e01c80630ff754ea1461003b578063ed88c68e1461008b575b600080fd5b6100627f000000000000000000000000000000000000000000000000000000000000000081565b60405173ffffffffffffffffffffffffffffffffffffffff909116815260200160405180910390f35b610093610095565b005b60007f000000000000000000000000000000000000000000000000000000000000000073ffffffffffffffffffffffffffffffffffffffff1663ac6986c56040518163ffffffff1660e01b8152600401602060405180830381865afa158015610102573d6000803e3d6000fd5b505050506040513d601f19601f8201168201806040525081019061012691906103f6565b6040517f70a0823100000000000000000000000000000000000000000000000000000000815230600482015273ffffffffffffffffffffffffffffffffffffffff91909116906370a0823190602401602060405180830381865afa158015610192573d6000803e3d6000fd5b505050506040513d601f19601f820116820180604052508101906101b69190610433565b905060007f000000000000000000000000000000000000000000000000000000000000000073ffffffffffffffffffffffffffffffffffffffff1663ac6986c56040518163ffffffff1660e01b8152600401602060405180830381865afa158015610225573d6000803e3d6000fd5b505050506040513d601f19601f8201168201806040525081019061024991906103f6565b6040517fa9059cbb00000000000000000000000000000000000000000000000000000000815273ffffffffffffffffffffffffffffffffffffffff7f00000000000000000000000000000000000000000000000000000000000000008116600483015260248201859052919091169063a9059cbb906044016020604051808303816000875af11580156102e0573d6000803e3d6000fd5b505050506040513d601f19601f82011682018060405250810190610304919061044c565b905080610371576040517f08c379a000000000000000000000000000000000000000000000000000000000815260206004820152601160248201527f646f6e617465206d6e74206661696c6564000000000000000000000000000000604482015260640160405180910390fd5b7f000000000000000000000000000000000000000000000000000000000000000073ffffffffffffffffffffffffffffffffffffffff16638b4c40b0476040518263ffffffff1660e01b81526004016000604051808303818588803b1580156103d957600080fd5b505af11580156103ed573d6000803e3d6000fd5b50505050505050565b60006020828403121561040857600080fd5b815173ffffffffffffffffffffffffffffffffffffffff8116811461042c57600080fd5b9392505050565b60006020828403121561044557600080fd5b5051919050565b60006020828403121561045e57600080fd5b8151801515811461042c57600080fdfea164736f6c634300080f000a",
  "devdoc": {
    "version": 1,
    "kind": "dev",
    "methods": {
      "constructor": {
        "params": {
          "_portal": "Address of the OptimismPortal contract."
        }
      }
    },
    "title": "PortalSender"
  },
  "userdoc": {
    "version": 1,
    "kind": "user",
    "methods": {
      "PORTAL()": {
        "notice": "Address of the OptimismPortal contract."
      },
      "donate()": {
        "notice": "Sends balance of this contract to the OptimismPortal. on the Mantle Mainnet, this function will donate ETH and MNT"
      }
    },
    "notice": "The PortalSender is a simple intermediate contract that will transfer the balance of the         L1StandardBridge to the OptimismPortal during the Bedrock migration."
  }
}