{
  "address": "0x784ed5141985b6c7254B89b95CEcE6F8d0a36aa5",
  "abi": [
    {
      "inputs": [
        {
          "internalType": "address",
          "name": "_messenger",
          "type": "address"
        },
        {
          "internalType": "address",
          "name": "_otherBridge",
          "type": "address"
        }
      ],
      "stateMutability": "nonpayable",
      "type": "constructor"
    },
    {
      "anonymous": false,
      "inputs": [
        {
          "indexed": true,
          "internalType": "address",
          "name": "localToken",
          "type": "address"
        },
        {
          "indexed": true,
          "internalType": "address",
          "name": "remoteToken",
          "type": "address"
        },
        {
          "indexed": true,
          "internalType": "address",
          "name": "from",
          "type": "address"
        },
        {
          "indexed": false,
          "internalType": "address",
          "name": "to",
          "type": "address"
        },
        {
          "indexed": false,
          "internalType": "uint256",
          "name": "tokenId",
          "type": "uint256"
        },
        {
          "indexed": false,
          "internalType": "bytes",
          "name": "extraData",
          "type": "bytes"
        }
      ],
      "name": "ERC721BridgeFinalized",
      "type": "event"
    },
    {
      "anonymous": false,
      "inputs": [
        {
          "indexed": true,
          "internalType": "address",
          "name": "localToken",
          "type": "address"
        },
        {
          "indexed": true,
          "internalType": "address",
          "name": "remoteToken",
          "type": "address"
        },
        {
          "indexed": true,
          "internalType": "address",
          "name": "from",
          "type": "address"
        },
        {
          "indexed": false,
          "internalType": "address",
          "name": "to",
          "type": "address"
        },
        {
          "indexed": false,
          "internalType": "uint256",
          "name": "tokenId",
          "type": "uint256"
        },
        {
          "indexed": false,
          "internalType": "bytes",
          "name": "extraData",
          "type": "bytes"
        }
      ],
      "name": "ERC721BridgeInitiated",
      "type": "event"
    },
    {
      "inputs": [],
      "name": "MESSENGER",
      "outputs": [
        {
          "internalType": "contract CrossDomainMessenger",
          "name": "",
          "type": "address"
        }
      ],
      "stateMutability": "view",
      "type": "function"
    },
    {
      "inputs": [],
      "name": "OTHER_BRIDGE",
      "outputs": [
        {
          "internalType": "address",
          "name": "",
          "type": "address"
        }
      ],
      "stateMutability": "view",
      "type": "function"
    },
    {
      "inputs": [
        {
          "internalType": "address",
          "name": "_localToken",
          "type": "address"
        },
        {
          "internalType": "address",
          "name": "_remoteToken",
          "type": "address"
        },
        {
          "internalType": "uint256",
          "name": "_tokenId",
          "type": "uint256"
        },
        {
          "internalType": "uint32",
          "name": "_minGasLimit",
          "type": "uint32"
        },
        {
          "internalType": "bytes",
          "name": "_extraData",
          "type": "bytes"
        }
      ],
      "name": "bridgeERC721",
      "outputs": [],
      "stateMutability": "nonpayable",
      "type": "function"
    },
    {
      "inputs": [
        {
          "internalType": "address",
          "name": "_localToken",
          "type": "address"
        },
        {
          "internalType": "address",
          "name": "_remoteToken",
          "type": "address"
        },
        {
          "internalType": "address",
          "name": "_to",
          "type": "address"
        },
        {
          "internalType": "uint256",
          "name": "_tokenId",
          "type": "uint256"
        },
        {
          "internalType": "uint32",
          "name": "_minGasLimit",
          "type": "uint32"
        },
        {
          "internalType": "bytes",
          "name": "_extraData",
          "type": "bytes"
        }
      ],
      "name": "bridgeERC721To",
      "outputs": [],
      "stateMutability": "nonpayable",
      "type": "function"
    },
    {
      "inputs": [
        {
          "internalType": "address",
          "name": "",
          "type": "address"
        },
        {
          "internalType": "address",
          "name": "",
          "type": "address"
        },
        {
          "internalType": "uint256",
          "name": "",
          "type": "uint256"
        }
      ],
      "name": "deposits",
      "outputs": [
        {
          "internalType": "bool",
          "name": "",
          "type": "bool"
        }
      ],
      "stateMutability": "view",
      "type": "function"
    },
    {
      "inputs": [
        {
          "internalType": "address",
          "name": "_localToken",
          "type": "address"
        },
        {
          "internalType": "address",
          "name": "_remoteToken",
          "type": "address"
        },
        {
          "internalType": "address",
          "name": "_from",
          "type": "address"
        },
        {
          "internalType": "address",
          "name": "_to",
          "type": "address"
        },
        {
          "internalType": "uint256",
          "name": "_tokenId",
          "type": "uint256"
        },
        {
          "internalType": "bytes",
          "name": "_extraData",
          "type": "bytes"
        }
      ],
      "name": "finalizeBridgeERC721",
      "outputs": [],
      "stateMutability": "nonpayable",
      "type": "function"
    },
    {
      "inputs": [],
      "name": "messenger",
      "outputs": [
        {
          "internalType": "contract CrossDomainMessenger",
          "name": "",
          "type": "address"
        }
      ],
      "stateMutability": "view",
      "type": "function"
    },
    {
      "inputs": [],
      "name": "otherBridge",
      "outputs": [
        {
          "internalType": "address",
          "name": "",
          "type": "address"
        }
      ],
      "stateMutability": "view",
      "type": "function"
    },
    {
      "inputs": [],
      "name": "version",
      "outputs": [
        {
          "internalType": "string",
          "name": "",
          "type": "string"
        }
      ],
      "stateMutability": "view",
      "type": "function"
    }
  ],
  "transactionHash": "0x0c05ac2b09d5a9ba0fbc6b8110ed0166fe29accb13df9535d71a1c39205c2c77",
  "args": [
    "0x37dAC5312e31Adb8BB0802Fc72Ca84DA5cDfcb4c",
    "0x4200000000000000000000000000000000000014"
  ],
  "numDeployments": 1,
  "solcInputHash": "7fe6e712d5cb378ae273d6246e0e57b0",
  "bytecode": "0x6101206040523480156200001257600080fd5b506040516200155838038062001558833981016040819052620000359162000161565b6001808084846001600160a01b038216620000ac5760405162461bcd60e51b815260206004820152602c60248201527f4552433732314272696467653a206d657373656e6765722063616e6e6f74206260448201526b65206164647265737328302960a01b60648201526084015b60405180910390fd5b6001600160a01b0381166200011c5760405162461bcd60e51b815260206004820152602f60248201527f4552433732314272696467653a206f74686572206272696467652063616e6e6f60448201526e74206265206164647265737328302960881b6064820152608401620000a3565b6001600160a01b039182166080521660a05260c09290925260e0526101005250620001999050565b80516001600160a01b03811681146200015c57600080fd5b919050565b600080604083850312156200017557600080fd5b620001808362000144565b9150620001906020840162000144565b90509250929050565b60805160a05160c05160e0516101005161134a6200020e6000396000610301015260006102d8015260006102af01526000818161017a015281816101d80152818161038d0152610b1701526000818160bf015281816101a101528181610363015281816103c40152610ae5015261134a6000f3fe608060405234801561001057600080fd5b50600436106100a35760003560e01c8063761f449311610076578063927ede2d1161005b578063927ede2d1461019c578063aa557452146101c3578063c89701a2146101d657600080fd5b8063761f4493146101625780637f46ddb21461017557600080fd5b80633687011a146100a85780633cb747bf146100bd57806354fd4d50146101095780635d93a3fc1461011e575b600080fd5b6100bb6100b6366004610dc6565b6101fc565b005b7f00000000000000000000000000000000000000000000000000000000000000005b60405173ffffffffffffffffffffffffffffffffffffffff90911681526020015b60405180910390f35b6101116102a8565b6040516101009190610ec3565b61015261012c366004610edd565b603160209081526000938452604080852082529284528284209052825290205460ff1681565b6040519015158152602001610100565b6100bb610170366004610f1e565b61034b565b6100df7f000000000000000000000000000000000000000000000000000000000000000081565b6100df7f000000000000000000000000000000000000000000000000000000000000000081565b6100bb6101d1366004610fb6565b6107cc565b7f00000000000000000000000000000000000000000000000000000000000000006100df565b333b15610290576040517f08c379a000000000000000000000000000000000000000000000000000000000815260206004820152602d60248201527f4552433732314272696467653a206163636f756e74206973206e6f742065787460448201527f65726e616c6c79206f776e65640000000000000000000000000000000000000060648201526084015b60405180910390fd5b6102a08686333388888888610888565b505050505050565b60606102d37f0000000000000000000000000000000000000000000000000000000000000000610c02565b6102fc7f0000000000000000000000000000000000000000000000000000000000000000610c02565b6103257f0000000000000000000000000000000000000000000000000000000000000000610c02565b6040516020016103379392919061102d565b604051602081830303815290604052905090565b3373ffffffffffffffffffffffffffffffffffffffff7f00000000000000000000000000000000000000000000000000000000000000001614801561046957507f000000000000000000000000000000000000000000000000000000000000000073ffffffffffffffffffffffffffffffffffffffff167f000000000000000000000000000000000000000000000000000000000000000073ffffffffffffffffffffffffffffffffffffffff16636e296e456040518163ffffffff1660e01b8152600401602060405180830381865afa15801561042d573d6000803e3d6000fd5b505050506040513d601f19601f8201168201806040525081019061045191906110a3565b73ffffffffffffffffffffffffffffffffffffffff16145b6104f5576040517f08c379a000000000000000000000000000000000000000000000000000000000815260206004820152603f60248201527f4552433732314272696467653a2066756e6374696f6e2063616e206f6e6c792060448201527f62652063616c6c65642066726f6d20746865206f7468657220627269646765006064820152608401610287565b3073ffffffffffffffffffffffffffffffffffffffff88160361059a576040517f08c379a000000000000000000000000000000000000000000000000000000000815260206004820152602a60248201527f4c314552433732314272696467653a206c6f63616c20746f6b656e2063616e6e60448201527f6f742062652073656c66000000000000000000000000000000000000000000006064820152608401610287565b73ffffffffffffffffffffffffffffffffffffffff8088166000908152603160209081526040808320938a1683529281528282208683529052205460ff161515600114610669576040517f08c379a000000000000000000000000000000000000000000000000000000000815260206004820152603960248201527f4c314552433732314272696467653a20546f6b656e204944206973206e6f742060448201527f657363726f77656420696e20746865204c3120427269646765000000000000006064820152608401610287565b73ffffffffffffffffffffffffffffffffffffffff87811660008181526031602090815260408083208b8616845282528083208884529091529081902080547fffffffffffffffffffffffffffffffffffffffffffffffffffffffffffffff00169055517f42842e0e000000000000000000000000000000000000000000000000000000008152306004820152918616602483015260448201859052906342842e0e90606401600060405180830381600087803b15801561072957600080fd5b505af115801561073d573d6000803e3d6000fd5b505050508473ffffffffffffffffffffffffffffffffffffffff168673ffffffffffffffffffffffffffffffffffffffff168873ffffffffffffffffffffffffffffffffffffffff167f1f39bf6707b5d608453e0ae4c067b562bcc4c85c0f562ef5d2c774d2e7f131ac878787876040516107bb9493929190611109565b60405180910390a450505050505050565b73ffffffffffffffffffffffffffffffffffffffff851661086f576040517f08c379a000000000000000000000000000000000000000000000000000000000815260206004820152603060248201527f4552433732314272696467653a206e667420726563697069656e742063616e6e60448201527f6f742062652061646472657373283029000000000000000000000000000000006064820152608401610287565b61087f8787338888888888610888565b50505050505050565b73ffffffffffffffffffffffffffffffffffffffff871661092b576040517f08c379a000000000000000000000000000000000000000000000000000000000815260206004820152603160248201527f4c314552433732314272696467653a2072656d6f746520746f6b656e2063616e60448201527f6e6f7420626520616464726573732830290000000000000000000000000000006064820152608401610287565b600063761f449360e01b888a89898988886040516024016109529796959493929190611149565b604080517fffffffffffffffffffffffffffffffffffffffffffffffffffffffffffffffe0818403018152918152602080830180517bffffffffffffffffffffffffffffffffffffffffffffffffffffffff167fffffffff00000000000000000000000000000000000000000000000000000000959095169490941790935273ffffffffffffffffffffffffffffffffffffffff8c81166000818152603186528381208e8416825286528381208b82529095529382902080547fffffffffffffffffffffffffffffffffffffffffffffffffffffffffffffff0016600117905590517f23b872dd000000000000000000000000000000000000000000000000000000008152908a166004820152306024820152604481018890529092506323b872dd90606401600060405180830381600087803b158015610a9257600080fd5b505af1158015610aa6573d6000803e3d6000fd5b50506040517fb575e30000000000000000000000000000000000000000000000000000000000815273ffffffffffffffffffffffffffffffffffffffff7f000000000000000000000000000000000000000000000000000000000000000016925063b575e3009150610b43906000907f00000000000000000000000000000000000000000000000000000000000000009086908a906004016111a6565b600060405180830381600087803b158015610b5d57600080fd5b505af1158015610b71573d6000803e3d6000fd5b505050508673ffffffffffffffffffffffffffffffffffffffff168873ffffffffffffffffffffffffffffffffffffffff168a73ffffffffffffffffffffffffffffffffffffffff167fb7460e2a880f256ebef3406116ff3eee0cee51ebccdc2a40698f87ebb2e9c1a589898888604051610bef9493929190611109565b60405180910390a4505050505050505050565b606081600003610c4557505060408051808201909152600181527f3000000000000000000000000000000000000000000000000000000000000000602082015290565b8160005b8115610c6f5780610c5981611221565b9150610c689050600a83611288565b9150610c49565b60008167ffffffffffffffff811115610c8a57610c8a61129c565b6040519080825280601f01601f191660200182016040528015610cb4576020820181803683370190505b5090505b8415610d3757610cc96001836112cb565b9150610cd6600a866112e2565b610ce19060306112f6565b60f81b818381518110610cf657610cf661130e565b60200101907effffffffffffffffffffffffffffffffffffffffffffffffffffffffffffff1916908160001a905350610d30600a86611288565b9450610cb8565b949350505050565b73ffffffffffffffffffffffffffffffffffffffff81168114610d6157600080fd5b50565b803563ffffffff81168114610d7857600080fd5b919050565b60008083601f840112610d8f57600080fd5b50813567ffffffffffffffff811115610da757600080fd5b602083019150836020828501011115610dbf57600080fd5b9250929050565b60008060008060008060a08789031215610ddf57600080fd5b8635610dea81610d3f565b95506020870135610dfa81610d3f565b945060408701359350610e0f60608801610d64565b9250608087013567ffffffffffffffff811115610e2b57600080fd5b610e3789828a01610d7d565b979a9699509497509295939492505050565b60005b83811015610e64578181015183820152602001610e4c565b83811115610e73576000848401525b50505050565b60008151808452610e91816020860160208601610e49565b601f017fffffffffffffffffffffffffffffffffffffffffffffffffffffffffffffffe0169290920160200192915050565b602081526000610ed66020830184610e79565b9392505050565b600080600060608486031215610ef257600080fd5b8335610efd81610d3f565b92506020840135610f0d81610d3f565b929592945050506040919091013590565b600080600080600080600060c0888a031215610f3957600080fd5b8735610f4481610d3f565b96506020880135610f5481610d3f565b95506040880135610f6481610d3f565b94506060880135610f7481610d3f565b93506080880135925060a088013567ffffffffffffffff811115610f9757600080fd5b610fa38a828b01610d7d565b989b979a50959850939692959293505050565b600080600080600080600060c0888a031215610fd157600080fd5b8735610fdc81610d3f565b96506020880135610fec81610d3f565b95506040880135610ffc81610d3f565b94506060880135935061101160808901610d64565b925060a088013567ffffffffffffffff811115610f9757600080fd5b6000845161103f818460208901610e49565b80830190507f2e00000000000000000000000000000000000000000000000000000000000000808252855161107b816001850160208a01610e49565b60019201918201528351611096816002840160208801610e49565b0160020195945050505050565b6000602082840312156110b557600080fd5b8151610ed681610d3f565b8183528181602085013750600060208284010152600060207fffffffffffffffffffffffffffffffffffffffffffffffffffffffffffffffe0601f840116840101905092915050565b73ffffffffffffffffffffffffffffffffffffffff8516815283602082015260606040820152600061113f6060830184866110c0565b9695505050505050565b600073ffffffffffffffffffffffffffffffffffffffff808a1683528089166020840152808816604084015280871660608401525084608083015260c060a083015261119960c0830184866110c0565b9998505050505050505050565b84815273ffffffffffffffffffffffffffffffffffffffff841660208201526080604082015260006111db6080830185610e79565b905063ffffffff8316606083015295945050505050565b7f4e487b7100000000000000000000000000000000000000000000000000000000600052601160045260246000fd5b60007fffffffffffffffffffffffffffffffffffffffffffffffffffffffffffffffff8203611252576112526111f2565b5060010190565b7f4e487b7100000000000000000000000000000000000000000000000000000000600052601260045260246000fd5b60008261129757611297611259565b500490565b7f4e487b7100000000000000000000000000000000000000000000000000000000600052604160045260246000fd5b6000828210156112dd576112dd6111f2565b500390565b6000826112f1576112f1611259565b500690565b60008219821115611309576113096111f2565b500190565b7f4e487b7100000000000000000000000000000000000000000000000000000000600052603260045260246000fdfea164736f6c634300080f000a",
  "devdoc": {
    "version": 1,
    "kind": "dev",
    "methods": {
      "bridgeERC721(address,address,uint256,uint32,bytes)": {
        "params": {
          "_extraData": "Optional data to forward to the other chain. Data supplied here will not                     be used to execute any code on the other chain and is only emitted as                     extra data for the convenience of off-chain tooling.",
          "_localToken": "Address of the ERC721 on this domain.",
          "_minGasLimit": "Minimum gas limit for the bridge message on the other domain.",
          "_remoteToken": "Address of the ERC721 on the remote domain.",
          "_tokenId": "Token ID to bridge."
        }
      },
      "bridgeERC721To(address,address,address,uint256,uint32,bytes)": {
        "params": {
          "_extraData": "Optional data to forward to the other chain. Data supplied here will not                     be used to execute any code on the other chain and is only emitted as                     extra data for the convenience of off-chain tooling.",
          "_localToken": "Address of the ERC721 on this domain.",
          "_minGasLimit": "Minimum gas limit for the bridge message on the other domain.",
          "_remoteToken": "Address of the ERC721 on the remote domain.",
          "_to": "Address to receive the token on the other domain.",
          "_tokenId": "Token ID to bridge."
        }
      },
      "constructor": {
        "params": {
          "_messenger": "Address of the CrossDomainMessenger on this network.",
          "_otherBridge": "Address of the ERC721 bridge on the other network."
        }
      },
      "finalizeBridgeERC721(address,address,address,address,uint256,bytes)": {
        "params": {
          "_extraData": "Optional data to forward to L2. Data supplied here will not be used to                     execute any code on L2 and is only emitted as extra data for the                     convenience of off-chain tooling.",
          "_from": "Address that triggered the bridge on the other domain.",
          "_localToken": "Address of the ERC721 token on this domain.",
          "_remoteToken": "Address of the ERC721 token on the other domain.",
          "_to": "Address to receive the token on this domain.",
          "_tokenId": "ID of the token being deposited."
        }
      },
      "messenger()": {
        "returns": {
          "_0": "Messenger contract on this domain."
        }
      },
      "otherBridge()": {
        "returns": {
          "_0": "Address of the bridge on the other network."
        }
      },
      "version()": {
        "returns": {
          "_0": "Semver contract version as a string."
        }
      }
    },
    "title": "L1ERC721Bridge"
  },
  "userdoc": {
    "version": 1,
    "kind": "user",
    "methods": {
      "MESSENGER()": {
        "notice": "Messenger contract on this domain."
      },
      "OTHER_BRIDGE()": {
        "notice": "Address of the bridge on the other network."
      },
      "bridgeERC721(address,address,uint256,uint32,bytes)": {
        "notice": "Initiates a bridge of an NFT to the caller's account on the other chain. Note that         this function can only be called by EOAs. Smart contract wallets should use the         `bridgeERC721To` function after ensuring that the recipient address on the remote         chain exists. Also note that the current owner of the token on this chain must         approve this contract to operate the NFT before it can be bridged.         **WARNING**: Do not bridge an ERC721 that was originally deployed on Optimism. This         bridge only supports ERC721s originally deployed on Ethereum. Users will need to         wait for the one-week challenge period to elapse before their Optimism-native NFT         can be refunded on L2."
      },
      "bridgeERC721To(address,address,address,uint256,uint32,bytes)": {
        "notice": "Initiates a bridge of an NFT to some recipient's account on the other chain. Note         that the current owner of the token on this chain must approve this contract to         operate the NFT before it can be bridged.         **WARNING**: Do not bridge an ERC721 that was originally deployed on Optimism. This         bridge only supports ERC721s originally deployed on Ethereum. Users will need to         wait for the one-week challenge period to elapse before their Optimism-native NFT         can be refunded on L2."
      },
      "deposits(address,address,uint256)": {
        "notice": "Mapping of L1 token to L2 token to ID to boolean, indicating if the given L1 token         by ID was deposited for a given L2 token."
      },
      "finalizeBridgeERC721(address,address,address,address,uint256,bytes)": {
        "notice": "Completes an ERC721 bridge from the other domain and sends the ERC721 token to the         recipient on this domain."
      },
      "version()": {
        "notice": "Returns the full semver contract version."
      }
    },
    "events": {
      "ERC721BridgeFinalized(address,address,address,address,uint256,bytes)": {
        "notice": "Emitted when an ERC721 bridge from the other network is finalized."
      },
      "ERC721BridgeInitiated(address,address,address,address,uint256,bytes)": {
        "notice": "Emitted when an ERC721 bridge to the other network is initiated."
      }
    },
    "notice": "The L1 ERC721 bridge is a contract which works together with the L2 ERC721 bridge to         make it possible to transfer ERC721 tokens from Ethereum to Optimism. This contract         acts as an escrow for ERC721 tokens deposited into L2."
  },
  "storageLayout": {
    "storage": [
      {
        "astId": 56426,
        "contract": "contracts/L1/L1ERC721Bridge.sol:L1ERC721Bridge",
        "label": "__gap",
        "offset": 0,
        "slot": "0",
        "type": "t_array(t_uint256)49_storage"
      },
      {
        "astId": 512,
        "contract": "contracts/L1/L1ERC721Bridge.sol:L1ERC721Bridge",
        "label": "deposits",
        "offset": 0,
        "slot": "49",
        "type": "t_mapping(t_address,t_mapping(t_address,t_mapping(t_uint256,t_bool)))"
      }
    ],
    "types": {
      "t_address": {
        "encoding": "inplace",
        "label": "address",
        "numberOfBytes": "20"
      },
      "t_array(t_uint256)49_storage": {
        "encoding": "inplace",
        "label": "uint256[49]",
        "numberOfBytes": "1568",
        "base": "t_uint256"
      },
      "t_bool": {
        "encoding": "inplace",
        "label": "bool",
        "numberOfBytes": "1"
      },
      "t_mapping(t_address,t_mapping(t_address,t_mapping(t_uint256,t_bool)))": {
        "encoding": "mapping",
        "key": "t_address",
        "label": "mapping(address => mapping(address => mapping(uint256 => bool)))",
        "numberOfBytes": "32",
        "value": "t_mapping(t_address,t_mapping(t_uint256,t_bool))"
      },
      "t_mapping(t_address,t_mapping(t_uint256,t_bool))": {
        "encoding": "mapping",
        "key": "t_address",
        "label": "mapping(address => mapping(uint256 => bool))",
        "numberOfBytes": "32",
        "value": "t_mapping(t_uint256,t_bool)"
      },
      "t_mapping(t_uint256,t_bool)": {
        "encoding": "mapping",
        "key": "t_uint256",
        "label": "mapping(uint256 => bool)",
        "numberOfBytes": "32",
        "value": "t_bool"
      },
      "t_uint256": {
        "encoding": "inplace",
        "label": "uint256",
        "numberOfBytes": "32"
      }
    }
  }
}