{
  "address": "0x0e477cC5fCe55825Ac5654534683F07Ff5727D5e",
  "abi": [
    {
      "inputs": [
        {
          "internalType": "contract L2OutputOracle",
          "name": "_l2Oracle",
          "type": "address"
        },
        {
          "internalType": "address",
          "name": "_guardian",
          "type": "address"
        },
        {
          "internalType": "bool",
          "name": "_paused",
          "type": "bool"
        },
        {
          "internalType": "contract SystemConfig",
          "name": "_config",
          "type": "address"
        },
        {
          "internalType": "address",
          "name": "_l1MNT",
          "type": "address"
        }
      ],
      "stateMutability": "nonpayable",
      "type": "constructor"
    },
    {
      "anonymous": false,
      "inputs": [
        {
          "indexed": false,
          "internalType": "uint8",
          "name": "version",
          "type": "uint8"
        }
      ],
      "name": "Initialized",
      "type": "event"
    },
    {
      "anonymous": false,
      "inputs": [
        {
          "indexed": false,
          "internalType": "address",
          "name": "account",
          "type": "address"
        }
      ],
      "name": "Paused",
      "type": "event"
    },
    {
      "anonymous": false,
      "inputs": [
        {
          "indexed": true,
          "internalType": "address",
          "name": "from",
          "type": "address"
        },
        {
          "indexed": true,
          "internalType": "address",
          "name": "to",
          "type": "address"
        },
        {
          "indexed": true,
          "internalType": "uint256",
          "name": "version",
          "type": "uint256"
        },
        {
          "indexed": false,
          "internalType": "bytes",
          "name": "opaqueData",
          "type": "bytes"
        }
      ],
      "name": "TransactionDeposited",
      "type": "event"
    },
    {
      "anonymous": false,
      "inputs": [
        {
          "indexed": false,
          "internalType": "address",
          "name": "account",
          "type": "address"
        }
      ],
      "name": "Unpaused",
      "type": "event"
    },
    {
      "anonymous": false,
      "inputs": [
        {
          "indexed": true,
          "internalType": "bytes32",
          "name": "withdrawalHash",
          "type": "bytes32"
        },
        {
          "indexed": false,
          "internalType": "bool",
          "name": "success",
          "type": "bool"
        }
      ],
      "name": "WithdrawalFinalized",
      "type": "event"
    },
    {
      "anonymous": false,
      "inputs": [
        {
          "indexed": true,
          "internalType": "bytes32",
          "name": "withdrawalHash",
          "type": "bytes32"
        },
        {
          "indexed": true,
          "internalType": "address",
          "name": "from",
          "type": "address"
        },
        {
          "indexed": true,
          "internalType": "address",
          "name": "to",
          "type": "address"
        }
      ],
      "name": "WithdrawalProven",
      "type": "event"
    },
    {
      "inputs": [],
      "name": "GUARDIAN",
      "outputs": [
        {
          "internalType": "address",
          "name": "",
          "type": "address"
        }
      ],
      "stateMutability": "view",
      "type": "function"
    },
    {
      "inputs": [],
      "name": "L1_MNT_ADDRESS",
      "outputs": [
        {
          "internalType": "address",
          "name": "",
          "type": "address"
        }
      ],
      "stateMutability": "view",
      "type": "function"
    },
    {
      "inputs": [],
      "name": "L2_ORACLE",
      "outputs": [
        {
          "internalType": "contract L2OutputOracle",
          "name": "",
          "type": "address"
        }
      ],
      "stateMutability": "view",
      "type": "function"
    },
    {
      "inputs": [],
      "name": "SYSTEM_CONFIG",
      "outputs": [
        {
          "internalType": "contract SystemConfig",
          "name": "",
          "type": "address"
        }
      ],
      "stateMutability": "view",
      "type": "function"
    },
    {
      "inputs": [
        {
          "internalType": "uint256",
          "name": "_mntValue",
          "type": "uint256"
        },
        {
          "internalType": "address",
          "name": "_to",
          "type": "address"
        },
        {
          "internalType": "uint256",
          "name": "_mntTxValue",
          "type": "uint256"
        },
        {
          "internalType": "uint64",
          "name": "_gasLimit",
          "type": "uint64"
        },
        {
          "internalType": "bool",
          "name": "_isCreation",
          "type": "bool"
        },
        {
          "internalType": "bytes",
          "name": "_data",
          "type": "bytes"
        }
      ],
      "name": "depositTransaction",
      "outputs": [],
      "stateMutability": "payable",
      "type": "function"
    },
    {
      "inputs": [],
      "name": "donateETH",
      "outputs": [],
      "stateMutability": "payable",
      "type": "function"
    },
    {
      "inputs": [
        {
          "components": [
            {
              "internalType": "uint256",
              "name": "nonce",
              "type": "uint256"
            },
            {
              "internalType": "address",
              "name": "sender",
              "type": "address"
            },
            {
              "internalType": "address",
              "name": "target",
              "type": "address"
            },
            {
              "internalType": "uint256",
              "name": "mntValue",
              "type": "uint256"
            },
            {
              "internalType": "uint256",
              "name": "ethValue",
              "type": "uint256"
            },
            {
              "internalType": "uint256",
              "name": "gasLimit",
              "type": "uint256"
            },
            {
              "internalType": "bytes",
              "name": "data",
              "type": "bytes"
            }
          ],
          "internalType": "struct Types.WithdrawalTransaction",
          "name": "_tx",
          "type": "tuple"
        }
      ],
      "name": "finalizeWithdrawalTransaction",
      "outputs": [],
      "stateMutability": "nonpayable",
      "type": "function"
    },
    {
      "inputs": [
        {
          "internalType": "bytes32",
          "name": "",
          "type": "bytes32"
        }
      ],
      "name": "finalizedWithdrawals",
      "outputs": [
        {
          "internalType": "bool",
          "name": "",
          "type": "bool"
        }
      ],
      "stateMutability": "view",
      "type": "function"
    },
    {
      "inputs": [
        {
          "internalType": "bool",
          "name": "_paused",
          "type": "bool"
        }
      ],
      "name": "initialize",
      "outputs": [],
      "stateMutability": "nonpayable",
      "type": "function"
    },
    {
      "inputs": [
        {
          "internalType": "uint256",
          "name": "_l2OutputIndex",
          "type": "uint256"
        }
      ],
      "name": "isOutputFinalized",
      "outputs": [
        {
          "internalType": "bool",
          "name": "",
          "type": "bool"
        }
      ],
      "stateMutability": "view",
      "type": "function"
    },
    {
      "inputs": [],
      "name": "l2Sender",
      "outputs": [
        {
          "internalType": "address",
          "name": "",
          "type": "address"
        }
      ],
      "stateMutability": "view",
      "type": "function"
    },
    {
      "inputs": [
        {
          "internalType": "uint64",
          "name": "_byteCount",
          "type": "uint64"
        }
      ],
      "name": "minimumGasLimit",
      "outputs": [
        {
          "internalType": "uint64",
          "name": "",
          "type": "uint64"
        }
      ],
      "stateMutability": "pure",
      "type": "function"
    },
    {
      "inputs": [],
      "name": "params",
      "outputs": [
        {
          "internalType": "uint128",
          "name": "prevBaseFee",
          "type": "uint128"
        },
        {
          "internalType": "uint64",
          "name": "prevBoughtGas",
          "type": "uint64"
        },
        {
          "internalType": "uint64",
          "name": "prevBlockNum",
          "type": "uint64"
        }
      ],
      "stateMutability": "view",
      "type": "function"
    },
    {
      "inputs": [],
      "name": "pause",
      "outputs": [],
      "stateMutability": "nonpayable",
      "type": "function"
    },
    {
      "inputs": [],
      "name": "paused",
      "outputs": [
        {
          "internalType": "bool",
          "name": "",
          "type": "bool"
        }
      ],
      "stateMutability": "view",
      "type": "function"
    },
    {
      "inputs": [
        {
          "components": [
            {
              "internalType": "uint256",
              "name": "nonce",
              "type": "uint256"
            },
            {
              "internalType": "address",
              "name": "sender",
              "type": "address"
            },
            {
              "internalType": "address",
              "name": "target",
              "type": "address"
            },
            {
              "internalType": "uint256",
              "name": "mntValue",
              "type": "uint256"
            },
            {
              "internalType": "uint256",
              "name": "ethValue",
              "type": "uint256"
            },
            {
              "internalType": "uint256",
              "name": "gasLimit",
              "type": "uint256"
            },
            {
              "internalType": "bytes",
              "name": "data",
              "type": "bytes"
            }
          ],
          "internalType": "struct Types.WithdrawalTransaction",
          "name": "_tx",
          "type": "tuple"
        },
        {
          "internalType": "uint256",
          "name": "_l2OutputIndex",
          "type": "uint256"
        },
        {
          "components": [
            {
              "internalType": "bytes32",
              "name": "version",
              "type": "bytes32"
            },
            {
              "internalType": "bytes32",
              "name": "stateRoot",
              "type": "bytes32"
            },
            {
              "internalType": "bytes32",
              "name": "messagePasserStorageRoot",
              "type": "bytes32"
            },
            {
              "internalType": "bytes32",
              "name": "latestBlockhash",
              "type": "bytes32"
            }
          ],
          "internalType": "struct Types.OutputRootProof",
          "name": "_outputRootProof",
          "type": "tuple"
        },
        {
          "internalType": "bytes[]",
          "name": "_withdrawalProof",
          "type": "bytes[]"
        }
      ],
      "name": "proveWithdrawalTransaction",
      "outputs": [],
      "stateMutability": "nonpayable",
      "type": "function"
    },
    {
      "inputs": [
        {
          "internalType": "bytes32",
          "name": "",
          "type": "bytes32"
        }
      ],
      "name": "provenWithdrawals",
      "outputs": [
        {
          "internalType": "bytes32",
          "name": "outputRoot",
          "type": "bytes32"
        },
        {
          "internalType": "uint128",
          "name": "timestamp",
          "type": "uint128"
        },
        {
          "internalType": "uint128",
          "name": "l2OutputIndex",
          "type": "uint128"
        }
      ],
      "stateMutability": "view",
      "type": "function"
    },
    {
      "inputs": [],
      "name": "unpause",
      "outputs": [],
      "stateMutability": "nonpayable",
      "type": "function"
    },
    {
      "inputs": [],
      "name": "version",
      "outputs": [
        {
          "internalType": "string",
          "name": "",
          "type": "string"
        }
      ],
      "stateMutability": "view",
      "type": "function"
    },
    {
      "stateMutability": "payable",
      "type": "receive"
    }
  ],
  "transactionHash": "0xa7b3a32b450c7d1c8b471ad9735a41a1237a84b896625d2f0707b5d384984ecb",
  "args": [
    "0x4121dc8e48Bc6196795eb4867772A5e259fecE07",
    "0x809b16eeca569da9217a9758c8a440bdd2580564",
    true,
    "0x04B34526C91424e955D13C7226Bc4385e57E6706",
    "0x65e37B558F64E2Be5768DB46DF22F93d85741A9E"
  ],
  "numDeployments": 1,
  "solcInputHash": "7fe6e712d5cb378ae273d6246e0e57b0",
  "bytecode": "0x6101606040523480156200001257600080fd5b50604051620061953803806200619583398101604081905262000035916200029e565b6001608052600660a052600060c0526001600160a01b0380861660e052848116610120528281166101005281166101405262000071836200007c565b505050505062000322565b600054610100900460ff16158080156200009d5750600054600160ff909116105b80620000cd5750620000ba30620001d360201b62001ede1760201c565b158015620000cd575060005460ff166001145b620001365760405162461bcd60e51b815260206004820152602e60248201527f496e697469616c697a61626c653a20636f6e747261637420697320616c72656160448201526d191e481a5b9a5d1a585b1a5e995960921b60648201526084015b60405180910390fd5b6000805460ff1916600117905580156200015a576000805461ff0019166101001790555b603280546001600160a01b03191661dead1790556035805483151560ff1990911617905562000188620001e2565b8015620001cf576000805461ff0019169055604051600181527f7f26b83ff96e1f2b6a682f133852f6798a09c465da95921460cefb38474024989060200160405180910390a15b5050565b6001600160a01b03163b151590565b600054610100900460ff166200024f5760405162461bcd60e51b815260206004820152602b60248201527f496e697469616c697a61626c653a20636f6e7472616374206973206e6f74206960448201526a6e697469616c697a696e6760a81b60648201526084016200012d565b60408051606081018252633b9aca0080825260006020830152436001600160401b031691909201819052600160c01b0217600155565b6001600160a01b03811681146200029b57600080fd5b50565b600080600080600060a08688031215620002b757600080fd5b8551620002c48162000285565b6020870151909550620002d78162000285565b60408701519094508015158114620002ee57600080fd5b6060870151909350620003018162000285565b6080870151909250620003148162000285565b809150509295509295909350565b60805160a05160c05160e051610100516101205161014051615dc4620003d1600039600081816103790152818161072e0152818161102f01526110a1015260008181610287015281816112cd015261156a01526000818161051a01526127d301526000818161018801528181610a3001528181610ca2015281816114c6015281816119d601528181611bb7015261230e0152600061143101526000611408015260006113df0152615dc46000f3fe6080604052600436106101475760003560e01c80638b4c40b0116100c0578063cff0ab9611610074578063d69b2b1b11610059578063d69b2b1b1461045c578063e965084c1461047c578063f04987501461050857600080fd5b8063cff0ab961461039b578063d53a822f1461043c57600080fd5b8063a14238e7116100a5578063a14238e7146102fe578063a35d99df1461032e578063ac6986c51461036757600080fd5b80638b4c40b01461016f5780639bf62d82146102d157600080fd5b80635c975abb11610117578063724c184c116100fc578063724c184c146102755780638456cb59146102a957806385945feb146102be57600080fd5b80635c975abb1461022b5780636dbffb781461025557600080fd5b80621c2ff6146101765780632e71d4a4146101d45780633f4ba83a146101f457806354fd4d501461020957600080fd5b366101715761016f6000336000620186a060006040518060200160405280600081525061053c565b005b600080fd5b34801561018257600080fd5b506101aa7f000000000000000000000000000000000000000000000000000000000000000081565b60405173ffffffffffffffffffffffffffffffffffffffff90911681526020015b60405180910390f35b3480156101e057600080fd5b5061016f6101ef366004615326565b610822565b34801561020057600080fd5b5061016f6112b5565b34801561021557600080fd5b5061021e6113d8565b6040516101cb91906153d1565b34801561023757600080fd5b506035546102459060ff1681565b60405190151581526020016101cb565b34801561026157600080fd5b506102456102703660046153e4565b61147b565b34801561028157600080fd5b506101aa7f000000000000000000000000000000000000000000000000000000000000000081565b3480156102b557600080fd5b5061016f611552565b61016f6102cc366004615426565b61053c565b3480156102dd57600080fd5b506032546101aa9073ffffffffffffffffffffffffffffffffffffffff1681565b34801561030a57600080fd5b506102456103193660046153e4565b60336020526000908152604090205460ff1681565b34801561033a57600080fd5b5061034e6103493660046154a9565b611672565b60405167ffffffffffffffff90911681526020016101cb565b34801561037357600080fd5b506101aa7f000000000000000000000000000000000000000000000000000000000000000081565b3480156103a757600080fd5b50600154610403906fffffffffffffffffffffffffffffffff81169067ffffffffffffffff7001000000000000000000000000000000008204811691780100000000000000000000000000000000000000000000000090041683565b604080516fffffffffffffffffffffffffffffffff909416845267ffffffffffffffff92831660208501529116908201526060016101cb565b34801561044857600080fd5b5061016f6104573660046154c4565b61168b565b34801561046857600080fd5b5061016f6104773660046154e1565b611878565b34801561048857600080fd5b506104da6104973660046153e4565b603460205260009081526040902080546001909101546fffffffffffffffffffffffffffffffff8082169170010000000000000000000000000000000090041683565b604080519384526fffffffffffffffffffffffffffffffff92831660208501529116908201526060016101cb565b34801561051457600080fd5b506101aa7f000000000000000000000000000000000000000000000000000000000000000081565b8260005a905083156105f35773ffffffffffffffffffffffffffffffffffffffff8716156105f357604080517f08c379a00000000000000000000000000000000000000000000000000000000081526020600482015260248101919091527f4f7074696d69736d506f7274616c3a206d7573742073656e6420746f2061646460448201527f72657373283029207768656e206372656174696e67206120636f6e747261637460648201526084015b60405180910390fd5b6105fd8351611672565b67ffffffffffffffff168567ffffffffffffffff1610156106a0576040517f08c379a000000000000000000000000000000000000000000000000000000000815260206004820152602360248201527f4f7074696d69736d506f7274616c3a20676173206c696d697420746f6f20736d60448201527f616c6c000000000000000000000000000000000000000000000000000000000060648201526084016105ea565b6201d4c08351111561070e576040517f08c379a000000000000000000000000000000000000000000000000000000000815260206004820152601e60248201527f4f7074696d69736d506f7274616c3a206461746120746f6f206c61726765000060448201526064016105ea565b87156107565761075673ffffffffffffffffffffffffffffffffffffffff7f00000000000000000000000000000000000000000000000000000000000000001633308b611efa565b33328114610777575033731111000000000000000000000000000000001111015b6000898834898989604051602001610794969594939291906155bd565b604051602081830303815290604052905060008973ffffffffffffffffffffffffffffffffffffffff168373ffffffffffffffffffffffffffffffffffffffff167fb3813568d9991fc951961fcb4c784893574240a28925604d09fc577c55bb7c328460405161080491906153d1565b60405180910390a450506108188282611f95565b5050505050505050565b60355460ff161561088f576040517f08c379a000000000000000000000000000000000000000000000000000000000815260206004820152601660248201527f4f7074696d69736d506f7274616c3a207061757365640000000000000000000060448201526064016105ea565b60325473ffffffffffffffffffffffffffffffffffffffff1661dead14610938576040517f08c379a000000000000000000000000000000000000000000000000000000000815260206004820152603f60248201527f4f7074696d69736d506f7274616c3a2063616e206f6e6c79207472696767657260448201527f206f6e65207769746864726177616c20706572207472616e73616374696f6e0060648201526084016105ea565b6000610943826122b8565b60008181526034602090815260408083208151606081018352815481526001909101546fffffffffffffffffffffffffffffffff80821694830185905270010000000000000000000000000000000090910416918101919091529293509003610a2e576040517f08c379a000000000000000000000000000000000000000000000000000000000815260206004820152603260248201527f4f7074696d69736d506f7274616c3a207769746864726177616c20686173206e60448201527f6f74206265656e2070726f76656e20796574000000000000000000000000000060648201526084016105ea565b7f000000000000000000000000000000000000000000000000000000000000000073ffffffffffffffffffffffffffffffffffffffff1663887862726040518163ffffffff1660e01b8152600401602060405180830381865afa158015610a99573d6000803e3d6000fd5b505050506040513d601f19601f82011682018060405250810190610abd9190615629565b81602001516fffffffffffffffffffffffffffffffff161015610b88576040517f08c379a000000000000000000000000000000000000000000000000000000000815260206004820152604b60248201527f4f7074696d69736d506f7274616c3a207769746864726177616c2074696d657360448201527f74616d70206c657373207468616e204c32204f7261636c65207374617274696e60648201527f672074696d657374616d70000000000000000000000000000000000000000000608482015260a4016105ea565b610ba781602001516fffffffffffffffffffffffffffffffff1661230a565b610c59576040517f08c379a000000000000000000000000000000000000000000000000000000000815260206004820152604560248201527f4f7074696d69736d506f7274616c3a2070726f76656e2077697468647261776160448201527f6c2066696e616c697a6174696f6e20706572696f6420686173206e6f7420656c60648201527f6170736564000000000000000000000000000000000000000000000000000000608482015260a4016105ea565b60408181015190517fa25ae5570000000000000000000000000000000000000000000000000000000081526fffffffffffffffffffffffffffffffff90911660048201526000907f000000000000000000000000000000000000000000000000000000000000000073ffffffffffffffffffffffffffffffffffffffff169063a25ae55790602401606060405180830381865afa158015610cfe573d6000803e3d6000fd5b505050506040513d601f19601f82011682018060405250810190610d229190615662565b8251815191925014610ddc576040517f08c379a000000000000000000000000000000000000000000000000000000000815260206004820152604960248201527f4f7074696d69736d506f7274616c3a206f757470757420726f6f742070726f7660448201527f656e206973206e6f74207468652073616d652061732063757272656e74206f7560648201527f7470757420726f6f740000000000000000000000000000000000000000000000608482015260a4016105ea565b610dfb81602001516fffffffffffffffffffffffffffffffff1661230a565b610ead576040517f08c379a000000000000000000000000000000000000000000000000000000000815260206004820152604360248201527f4f7074696d69736d506f7274616c3a206f75747075742070726f706f73616c2060448201527f66696e616c697a6174696f6e20706572696f6420686173206e6f7420656c617060648201527f7365640000000000000000000000000000000000000000000000000000000000608482015260a4016105ea565b60008381526033602052604090205460ff1615610f4c576040517f08c379a000000000000000000000000000000000000000000000000000000000815260206004820152603560248201527f4f7074696d69736d506f7274616c3a207769746864726177616c20686173206160448201527f6c7265616479206265656e2066696e616c697a6564000000000000000000000060648201526084016105ea565b6000838152603360209081526040822080547fffffffffffffffffffffffffffffffffffffffffffffffffffffffffffffff001660011790558501516032805473ffffffffffffffffffffffffffffffffffffffff9092167fffffffffffffffffffffffff000000000000000000000000000000000000000090921691909117905560608501511561109f57604080860151606087015191517fa9059cbb00000000000000000000000000000000000000000000000000000000815273ffffffffffffffffffffffffffffffffffffffff918216600482015260248101929092527f0000000000000000000000000000000000000000000000000000000000000000169063a9059cbb906044016020604051808303816000875af1158015611078573d6000803e3d6000fd5b505050506040513d601f19601f8201168201806040525081019061109c91906156c7565b90505b7f000000000000000000000000000000000000000000000000000000000000000073ffffffffffffffffffffffffffffffffffffffff16856040015173ffffffffffffffffffffffffffffffffffffffff160361117e576040517f08c379a000000000000000000000000000000000000000000000000000000000815260206004820152602760248201527f4469726563746c792063616c6c696e67204d4e5420546f6b656e20697320666f60448201527f7262696464656e0000000000000000000000000000000000000000000000000060648201526084016105ea565b600061119c86604001518760a0015188608001518960c001516123ad565b603280547fffffffffffffffffffffffff00000000000000000000000000000000000000001661dead1790559050847fdb5c7652857aa163daadd670e116628fb42e869d8ac4251ef8971d9e5727df1b8280156111f65750835b604051901515815260200160405180910390a2801580611214575081155b80156112205750326001145b156112ad576040517f08c379a000000000000000000000000000000000000000000000000000000000815260206004820152602160248201527f4f7074696d69736d506f7274616c3a207769746864726177616c206661696c6560448201527f640000000000000000000000000000000000000000000000000000000000000060648201526084016105ea565b505050505050565b3373ffffffffffffffffffffffffffffffffffffffff7f0000000000000000000000000000000000000000000000000000000000000000161461137a576040517f08c379a000000000000000000000000000000000000000000000000000000000815260206004820152602960248201527f4f7074696d69736d506f7274616c3a206f6e6c7920677561726469616e20636160448201527f6e20756e7061757365000000000000000000000000000000000000000000000060648201526084016105ea565b603580547fffffffffffffffffffffffffffffffffffffffffffffffffffffffffffffff001690556040513381527f5db9ee0a495bf2e6ff9c91a7834c1ba4fdd244a5e8aa4e537bd38aeae4b073aa906020015b60405180910390a1565b60606114037f000000000000000000000000000000000000000000000000000000000000000061240b565b61142c7f000000000000000000000000000000000000000000000000000000000000000061240b565b6114557f000000000000000000000000000000000000000000000000000000000000000061240b565b604051602001611467939291906156e4565b604051602081830303815290604052905090565b6040517fa25ae5570000000000000000000000000000000000000000000000000000000081526004810182905260009061154c9073ffffffffffffffffffffffffffffffffffffffff7f0000000000000000000000000000000000000000000000000000000000000000169063a25ae55790602401606060405180830381865afa15801561150d573d6000803e3d6000fd5b505050506040513d601f19601f820116820180604052508101906115319190615662565b602001516fffffffffffffffffffffffffffffffff1661230a565b92915050565b3373ffffffffffffffffffffffffffffffffffffffff7f00000000000000000000000000000000000000000000000000000000000000001614611617576040517f08c379a000000000000000000000000000000000000000000000000000000000815260206004820152602760248201527f4f7074696d69736d506f7274616c3a206f6e6c7920677561726469616e20636160448201527f6e2070617573650000000000000000000000000000000000000000000000000060648201526084016105ea565b603580547fffffffffffffffffffffffffffffffffffffffffffffffffffffffffffffff001660011790556040513381527f62e78cea01bee320cd4e420270b5ea74000d11b0c9f74754ebdbfc544b05a258906020016113ce565b600061167f826010615789565b61154c906152086157b9565b600054610100900460ff16158080156116ab5750600054600160ff909116105b806116c55750303b1580156116c5575060005460ff166001145b611751576040517f08c379a000000000000000000000000000000000000000000000000000000000815260206004820152602e60248201527f496e697469616c697a61626c653a20636f6e747261637420697320616c72656160448201527f647920696e697469616c697a656400000000000000000000000000000000000060648201526084016105ea565b600080547fffffffffffffffffffffffffffffffffffffffffffffffffffffffffffffff0016600117905580156117af57600080547fffffffffffffffffffffffffffffffffffffffffffffffffffffffffffff00ff166101001790555b603280547fffffffffffffffffffffffff00000000000000000000000000000000000000001661dead179055603580548315157fffffffffffffffffffffffffffffffffffffffffffffffffffffffffffffff00909116179055611811612548565b801561187457600080547fffffffffffffffffffffffffffffffffffffffffffffffffffffffffffff00ff169055604051600181527f7f26b83ff96e1f2b6a682f133852f6798a09c465da95921460cefb38474024989060200160405180910390a15b5050565b60355460ff16156118e5576040517f08c379a000000000000000000000000000000000000000000000000000000000815260206004820152601660248201527f4f7074696d69736d506f7274616c3a207061757365640000000000000000000060448201526064016105ea565b3073ffffffffffffffffffffffffffffffffffffffff16856040015173ffffffffffffffffffffffffffffffffffffffff16036119a4576040517f08c379a000000000000000000000000000000000000000000000000000000000815260206004820152603f60248201527f4f7074696d69736d506f7274616c3a20796f752063616e6e6f742073656e642060448201527f6d6573736167657320746f2074686520706f7274616c20636f6e74726163740060648201526084016105ea565b6040517fa25ae557000000000000000000000000000000000000000000000000000000008152600481018590526000907f000000000000000000000000000000000000000000000000000000000000000073ffffffffffffffffffffffffffffffffffffffff169063a25ae55790602401606060405180830381865afa158015611a32573d6000803e3d6000fd5b505050506040513d601f19601f82011682018060405250810190611a569190615662565b519050611a70611a6b368690038601866157e5565b61262b565b8114611afe576040517f08c379a000000000000000000000000000000000000000000000000000000000815260206004820152602960248201527f4f7074696d69736d506f7274616c3a20696e76616c6964206f7574707574207260448201527f6f6f742070726f6f66000000000000000000000000000000000000000000000060648201526084016105ea565b6000611b09876122b8565b6000818152603460209081526040918290208251606081018452815481526001909101546fffffffffffffffffffffffffffffffff8082169383018490527001000000000000000000000000000000009091041692810192909252919250901580611c3b5750805160408083015190517fa25ae5570000000000000000000000000000000000000000000000000000000081526fffffffffffffffffffffffffffffffff90911660048201527f000000000000000000000000000000000000000000000000000000000000000073ffffffffffffffffffffffffffffffffffffffff169063a25ae55790602401606060405180830381865afa158015611c13573d6000803e3d6000fd5b505050506040513d601f19601f82011682018060405250810190611c379190615662565b5114155b611cc7576040517f08c379a000000000000000000000000000000000000000000000000000000000815260206004820152603760248201527f4f7074696d69736d506f7274616c3a207769746864726177616c20686173682060448201527f68617320616c7265616479206265656e2070726f76656e00000000000000000060648201526084016105ea565b60408051602081018490526000918101829052606001604080517fffffffffffffffffffffffffffffffffffffffffffffffffffffffffffffffe081840301815282825280516020918201209083018190529250611d909101604080517fffffffffffffffffffffffffffffffffffffffffffffffffffffffffffffffe0818403018152828201909152600182527f0100000000000000000000000000000000000000000000000000000000000000602083015290611d86888a61584b565b8a6040013561266a565b611e1c576040517f08c379a000000000000000000000000000000000000000000000000000000000815260206004820152603260248201527f4f7074696d69736d506f7274616c3a20696e76616c696420776974686472617760448201527f616c20696e636c7573696f6e2070726f6f66000000000000000000000000000060648201526084016105ea565b604080516060810182528581526fffffffffffffffffffffffffffffffff42811660208084019182528c831684860190815260008981526034835286812095518655925190518416700100000000000000000000000000000000029316929092176001909301929092558b830151908c0151925173ffffffffffffffffffffffffffffffffffffffff918216939091169186917f67a6208cfcc0801d50f6cbe764733f4fddf66ac0b04442061a8a8c0cb6b63f629190a4505050505050505050565b73ffffffffffffffffffffffffffffffffffffffff163b151590565b6040805173ffffffffffffffffffffffffffffffffffffffff85811660248301528416604482015260648082018490528251808303909101815260849091019091526020810180517bffffffffffffffffffffffffffffffffffffffffffffffffffffffff167f23b872dd00000000000000000000000000000000000000000000000000000000179052611f8f90859061268e565b50505050565b600154600090611fcb907801000000000000000000000000000000000000000000000000900467ffffffffffffffff16436158cf565b90506000611fd761279f565b90506000816020015160ff16826000015163ffffffff16611ff89190615915565b9050821561212f5760015460009061202f908390700100000000000000000000000000000000900467ffffffffffffffff1661597d565b90506000836040015160ff168361204691906159f1565b6001546120669084906fffffffffffffffffffffffffffffffff166159f1565b6120709190615915565b6001549091506000906120c19061209a9084906fffffffffffffffffffffffffffffffff16615aad565b866060015163ffffffff168760a001516fffffffffffffffffffffffffffffffff16612865565b905060018611156120f0576120ed61209a82876040015160ff1660018a6120e891906158cf565b612884565b90505b6fffffffffffffffffffffffffffffffff16780100000000000000000000000000000000000000000000000067ffffffffffffffff4316021760015550505b60018054869190601090612162908490700100000000000000000000000000000000900467ffffffffffffffff166157b9565b92506101000a81548167ffffffffffffffff021916908367ffffffffffffffff160217905550816000015163ffffffff16600160000160109054906101000a900467ffffffffffffffff1667ffffffffffffffff161315612245576040517f08c379a000000000000000000000000000000000000000000000000000000000815260206004820152603e60248201527f5265736f757263654d65746572696e673a2063616e6e6f7420627579206d6f7260448201527f6520676173207468616e20617661696c61626c6520676173206c696d6974000060648201526084016105ea565b600154600090612271906fffffffffffffffffffffffffffffffff1667ffffffffffffffff8816615b21565b9050600061228348633b9aca006128d9565b61228d9083615b5e565b905060005a61229c90886158cf565b905080821115610818576108186122b382846158cf565b6128f0565b80516020808301516040808501516060860151608087015160a088015160c089015194516000986122ed989097969101615b72565b604051602081830303815290604052805190602001209050919050565b60007f000000000000000000000000000000000000000000000000000000000000000073ffffffffffffffffffffffffffffffffffffffff1663f4daa2916040518163ffffffff1660e01b8152600401602060405180830381865afa158015612377573d6000803e3d6000fd5b505050506040513d601f19601f8201168201806040525081019061239b9190615629565b6123a59083615bd0565b421192915050565b60008060006123bd866000612919565b9050806123f3576308c379a06000526020805278185361666543616c6c3a204e6f7420656e6f756768206761736058526064601cfd5b600080855160208701888b5af1979650505050505050565b60608160000361244e57505060408051808201909152600181527f3000000000000000000000000000000000000000000000000000000000000000602082015290565b8160005b8115612478578061246281615be8565b91506124719050600a83615b5e565b9150612452565b60008167ffffffffffffffff81111561249357612493615136565b6040519080825280601f01601f1916602001820160405280156124bd576020820181803683370190505b5090505b8415612540576124d26001836158cf565b91506124df600a86615c20565b6124ea906030615bd0565b60f81b8183815181106124ff576124ff615c34565b60200101907effffffffffffffffffffffffffffffffffffffffffffffffffffffffffffff1916908160001a905350612539600a86615b5e565b94506124c1565b949350505050565b600054610100900460ff166125df576040517f08c379a000000000000000000000000000000000000000000000000000000000815260206004820152602b60248201527f496e697469616c697a61626c653a20636f6e7472616374206973206e6f74206960448201527f6e697469616c697a696e6700000000000000000000000000000000000000000060648201526084016105ea565b60408051606081018252633b9aca00808252600060208301524367ffffffffffffffff169190920181905278010000000000000000000000000000000000000000000000000217600155565b600081600001518260200151836040015184606001516040516020016122ed949392919093845260208401929092526040830152606082015260800190565b60008061267686612937565b905061268481868686612969565b9695505050505050565b60006126f0826040518060400160405280602081526020017f5361666545524332303a206c6f772d6c6576656c2063616c6c206661696c65648152508573ffffffffffffffffffffffffffffffffffffffff166129999092919063ffffffff16565b80519091501561279a578080602001905181019061270e91906156c7565b61279a576040517f08c379a000000000000000000000000000000000000000000000000000000000815260206004820152602a60248201527f5361666545524332303a204552433230206f7065726174696f6e20646964206e60448201527f6f7420737563636565640000000000000000000000000000000000000000000060648201526084016105ea565b505050565b6040805160c081018252600080825260208201819052918101829052606081018290526080810182905260a08101919091527f000000000000000000000000000000000000000000000000000000000000000073ffffffffffffffffffffffffffffffffffffffff1663cc731b026040518163ffffffff1660e01b815260040160c060405180830381865afa15801561283c573d6000803e3d6000fd5b505050506040513d601f19601f820116820180604052508101906128609190615c88565b905090565b600061287a61287485856129a8565b836129b8565b90505b9392505050565b6000670de0b6b3a76400006128c561289c8583615915565b6128ae90670de0b6b3a764000061597d565b6128c085670de0b6b3a76400006159f1565b6129c7565b6128cf90866159f1565b61287a9190615915565b6000818310156128e9578161287d565b5090919050565b6000805a90505b825a61290390836158cf565b101561279a5761291282615be8565b91506128f7565b600080603f83619c4001026040850201603f5a021015949350505050565b6060818051906020012060405160200161295391815260200190565b6040516020818303038152906040529050919050565b60006129908461297a8786866129f8565b8051602091820120825192909101919091201490565b95945050505050565b606061287a8484600085613480565b6000818312156128e9578161287d565b60008183126128e9578161287d565b600061287d670de0b6b3a7640000836129df86613616565b6129e991906159f1565b6129f39190615915565b61385a565b60606000845111612a65576040517f08c379a000000000000000000000000000000000000000000000000000000000815260206004820152601560248201527f4d65726b6c65547269653a20656d707479206b6579000000000000000000000060448201526064016105ea565b6000612a7084613a99565b90506000612a7d86613b88565b9050600084604051602001612a9491815260200190565b60405160208183030381529060405290506000805b84518110156133f7576000858281518110612ac657612ac6615c34565b602002602001015190508451831115612b61576040517f08c379a000000000000000000000000000000000000000000000000000000000815260206004820152602e60248201527f4d65726b6c65547269653a206b657920696e646578206578636565647320746f60448201527f74616c206b6579206c656e67746800000000000000000000000000000000000060648201526084016105ea565b82600003612c1a5780518051602091820120604051612baf92612b8992910190815260200190565b604051602081830303815290604052858051602091820120825192909101919091201490565b612c15576040517f08c379a000000000000000000000000000000000000000000000000000000000815260206004820152601d60248201527f4d65726b6c65547269653a20696e76616c696420726f6f74206861736800000060448201526064016105ea565b612d71565b805151602011612cd05780518051602091820120604051612c4492612b8992910190815260200190565b612c15576040517f08c379a000000000000000000000000000000000000000000000000000000000815260206004820152602760248201527f4d65726b6c65547269653a20696e76616c6964206c6172676520696e7465726e60448201527f616c20686173680000000000000000000000000000000000000000000000000060648201526084016105ea565b805184516020808701919091208251919092012014612d71576040517f08c379a000000000000000000000000000000000000000000000000000000000815260206004820152602660248201527f4d65726b6c65547269653a20696e76616c696420696e7465726e616c206e6f6460448201527f652068617368000000000000000000000000000000000000000000000000000060648201526084016105ea565b612d7d60106001615bd0565b81602001515103612f5e5784518303612ef6576000612db98260200151601081518110612dac57612dac615c34565b6020026020010151613d23565b90506000815111612e4c576040517f08c379a000000000000000000000000000000000000000000000000000000000815260206004820152603b60248201527f4d65726b6c65547269653a2076616c7565206c656e677468206d75737420626560448201527f2067726561746572207468616e207a65726f20286272616e636829000000000060648201526084016105ea565b60018751612e5a91906158cf565b8314612ee8576040517f08c379a000000000000000000000000000000000000000000000000000000000815260206004820152603a60248201527f4d65726b6c65547269653a2076616c7565206e6f6465206d757374206265206c60448201527f617374206e6f646520696e2070726f6f6620286272616e63682900000000000060648201526084016105ea565b965061287d95505050505050565b6000858481518110612f0a57612f0a615c34565b602001015160f81c60f81b60f81c9050600082602001518260ff1681518110612f3557612f35615c34565b60200260200101519050612f4881613e83565b9550612f55600186615bd0565b945050506133e4565b60028160200151510361335c576000612f7682613ea8565b9050600081600081518110612f8d57612f8d615c34565b016020015160f81c90506000612fa4600283615d27565b612faf906002615d49565b90506000612fc0848360ff16613ecc565b90506000612fce8a89613ecc565b90506000612fdc8383613f02565b90508083511461306e576040517f08c379a000000000000000000000000000000000000000000000000000000000815260206004820152603a60248201527f4d65726b6c65547269653a20706174682072656d61696e646572206d7573742060448201527f736861726520616c6c206e6962626c65732077697468206b657900000000000060648201526084016105ea565b60ff851660021480613083575060ff85166003145b156132775780825114613118576040517f08c379a000000000000000000000000000000000000000000000000000000000815260206004820152603d60248201527f4d65726b6c65547269653a206b65792072656d61696e646572206d757374206260448201527f65206964656e746963616c20746f20706174682072656d61696e64657200000060648201526084016105ea565b60006131348860200151600181518110612dac57612dac615c34565b905060008151116131c7576040517f08c379a000000000000000000000000000000000000000000000000000000000815260206004820152603960248201527f4d65726b6c65547269653a2076616c7565206c656e677468206d75737420626560448201527f2067726561746572207468616e207a65726f20286c656166290000000000000060648201526084016105ea565b60018d516131d591906158cf565b8914613263576040517f08c379a000000000000000000000000000000000000000000000000000000000815260206004820152603860248201527f4d65726b6c65547269653a2076616c7565206e6f6465206d757374206265206c60448201527f617374206e6f646520696e2070726f6f6620286c65616629000000000000000060648201526084016105ea565b9c5061287d9b505050505050505050505050565b60ff8516158061328a575060ff85166001145b156132c9576132b687602001516001815181106132a9576132a9615c34565b6020026020010151613e83565b99506132c2818a615bd0565b9850613351565b6040517f08c379a000000000000000000000000000000000000000000000000000000000815260206004820152603260248201527f4d65726b6c65547269653a2072656365697665642061206e6f6465207769746860448201527f20616e20756e6b6e6f776e20707265666978000000000000000000000000000060648201526084016105ea565b5050505050506133e4565b6040517f08c379a000000000000000000000000000000000000000000000000000000000815260206004820152602860248201527f4d65726b6c65547269653a20726563656976656420616e20756e70617273656160448201527f626c65206e6f646500000000000000000000000000000000000000000000000060648201526084016105ea565b50806133ef81615be8565b915050612aa9565b506040517f08c379a000000000000000000000000000000000000000000000000000000000815260206004820152602560248201527f4d65726b6c65547269653a2072616e206f7574206f662070726f6f6620656c6560448201527f6d656e747300000000000000000000000000000000000000000000000000000060648201526084016105ea565b606082471015613512576040517f08c379a000000000000000000000000000000000000000000000000000000000815260206004820152602660248201527f416464726573733a20696e73756666696369656e742062616c616e636520666f60448201527f722063616c6c000000000000000000000000000000000000000000000000000060648201526084016105ea565b73ffffffffffffffffffffffffffffffffffffffff85163b613590576040517f08c379a000000000000000000000000000000000000000000000000000000000815260206004820152601d60248201527f416464726573733a2063616c6c20746f206e6f6e2d636f6e747261637400000060448201526064016105ea565b6000808673ffffffffffffffffffffffffffffffffffffffff1685876040516135b99190615d6c565b60006040518083038185875af1925050503d80600081146135f6576040519150601f19603f3d011682016040523d82523d6000602084013e6135fb565b606091505b509150915061360b828286613fb1565b979650505050505050565b6000808213613681576040517f08c379a000000000000000000000000000000000000000000000000000000000815260206004820152600960248201527f554e444546494e4544000000000000000000000000000000000000000000000060448201526064016105ea565b6000606061368e84614004565b03609f8181039490941b90931c6c465772b2bbbb5f824b15207a3081018102606090811d6d0388eaa27412d5aca026815d636e018202811d6d0df99ac502031bf953eff472fdcc018202811d6d13cdffb29d51d99322bdff5f2211018202811d6d0a0f742023def783a307a986912e018202811d6d01920d8043ca89b5239253284e42018202811d6c0b7a86d7375468fac667a0a527016c29508e458543d8aa4df2abee7883018302821d6d0139601a2efabe717e604cbb4894018302821d6d02247f7a7b6594320649aa03aba1018302821d7fffffffffffffffffffffffffffffffffffffff73c0c716a594e00d54e3c4cbc9018302821d7ffffffffffffffffffffffffffffffffffffffdc7b88c420e53a9890533129f6f01830290911d7fffffffffffffffffffffffffffffffffffffff465fda27eb4d63ded474e5f832019091027ffffffffffffffff5f6af8f7b3396644f18e157960000000000000000000000000105711340daa0d5f769dba1915cef59f0815a5506027d0267a36c0c95b3975ab3ee5b203a7614a3f75373f047d803ae7b6687f2b393909302929092017d57115e47018c7177eebf7cd370a3356a1b7863008a5ae8028c72b88642840160ae1d92915050565b60007ffffffffffffffffffffffffffffffffffffffffffffffffdb731c958f34d94c1821361388b57506000919050565b680755bf798b4a1bf1e582126138fd576040517f08c379a000000000000000000000000000000000000000000000000000000000815260206004820152600c60248201527f4558505f4f564552464c4f57000000000000000000000000000000000000000060448201526064016105ea565b6503782dace9d9604e83901b059150600060606bb17217f7d1cf79abc9e3b39884821b056b80000000000000000000000001901d6bb17217f7d1cf79abc9e3b39881029093037fffffffffffffffffffffffffffffffffffffffdbf3ccf1604d263450f02a550481018102606090811d6d0277594991cfc85f6e2461837cd9018202811d7fffffffffffffffffffffffffffffffffffffe5adedaa1cb095af9e4da10e363c018202811d6db1bbb201f443cf962f1a1d3db4a5018202811d7ffffffffffffffffffffffffffffffffffffd38dc772608b0ae56cce01296c0eb018202811d6e05180bb14799ab47a8a8cb2a527d57016d02d16720577bd19bf614176fe9ea6c10fe68e7fd37d0007b713f765084018402831d9081019084017ffffffffffffffffffffffffffffffffffffffe2c69812cf03b0763fd454a8f7e010290911d6e0587f503bb6ea29d25fcb7401964500190910279d835ebba824c98fb31b83b2ca45c000000000000000000000000010574029d9dc38563c32e5c2f6dc192ee70ef65f9978af30260c3939093039290921c92915050565b805160609060008167ffffffffffffffff811115613ab957613ab9615136565b604051908082528060200260200182016040528015613afe57816020015b6040805180820190915260608082526020820152815260200190600190039081613ad75790505b50905060005b82811015613b80576040518060400160405280868381518110613b2957613b29615c34565b60200260200101518152602001613b58878481518110613b4b57613b4b615c34565b60200260200101516140da565b815250828281518110613b6d57613b6d615c34565b6020908102919091010152600101613b04565b509392505050565b80516060906000613b9a826002615b21565b67ffffffffffffffff811115613bb257613bb2615136565b6040519080825280601f01601f191660200182016040528015613bdc576020820181803683370190505b5090506000805b83811015613d1957858181518110613bfd57613bfd615c34565b6020910101517fff000000000000000000000000000000000000000000000000000000000000008116925060041c7f0ff00000000000000000000000000000000000000000000000000000000000001683613c59836002615b21565b81518110613c6957613c69615c34565b60200101907effffffffffffffffffffffffffffffffffffffffffffffffffffffffffffff1916908160001a9053507f0f00000000000000000000000000000000000000000000000000000000000000821683613cc7836002615b21565b613cd2906001615bd0565b81518110613ce257613ce2615c34565b60200101907effffffffffffffffffffffffffffffffffffffffffffffffffffffffffffff1916908160001a905350600101613be3565b5090949350505050565b60606000806000613d33856140ed565b919450925090506000816001811115613d4e57613d4e615d88565b14613ddb576040517f08c379a000000000000000000000000000000000000000000000000000000000815260206004820152603960248201527f524c505265616465723a206465636f646564206974656d207479706520666f7260448201527f206279746573206973206e6f7420612064617461206974656d0000000000000060648201526084016105ea565b613de58284615bd0565b855114613e74576040517f08c379a000000000000000000000000000000000000000000000000000000000815260206004820152603460248201527f524c505265616465723a2062797465732076616c756520636f6e7461696e732060448201527f616e20696e76616c69642072656d61696e64657200000000000000000000000060648201526084016105ea565b61299085602001518484614b5a565b60606020826000015110613e9f57613e9a82613d23565b61154c565b61154c82614bfb565b606061154c613ec78360200151600081518110612dac57612dac615c34565b613b88565b606082518210613eeb575060408051602081019091526000815261154c565b61287d8383848651613efd91906158cf565b614c11565b60008060008351855110613f17578351613f1a565b84515b90505b8082108015613fa15750838281518110613f3957613f39615c34565b602001015160f81c60f81b7effffffffffffffffffffffffffffffffffffffffffffffffffffffffffffff1916858381518110613f7857613f78615c34565b01602001517fff0000000000000000000000000000000000000000000000000000000000000016145b15613b8057816001019150613f1d565b60608315613fc057508161287d565b825115613fd05782518084602001fd5b816040517f08c379a00000000000000000000000000000000000000000000000000000000081526004016105ea91906153d1565b600080821161406f576040517f08c379a000000000000000000000000000000000000000000000000000000000815260206004820152600960248201527f554e444546494e4544000000000000000000000000000000000000000000000060448201526064016105ea565b5060016fffffffffffffffffffffffffffffffff821160071b82811c67ffffffffffffffff1060061b1782811c63ffffffff1060051b1782811c61ffff1060041b1782811c60ff10600390811b90911783811c600f1060021b1783811c909110821b1791821c111790565b606061154c6140e883614de9565b614ed2565b6000806000808460000151116141ab576040517f08c379a000000000000000000000000000000000000000000000000000000000815260206004820152604a60248201527f524c505265616465723a206c656e677468206f6620616e20524c50206974656d60448201527f206d7573742062652067726561746572207468616e207a65726f20746f20626560648201527f206465636f6461626c6500000000000000000000000000000000000000000000608482015260a4016105ea565b6020840151805160001a607f81116141d0576000600160009450945094505050614b53565b60b781116143de5760006141e56080836158cf565b9050808760000151116142a0576040517f08c379a000000000000000000000000000000000000000000000000000000000815260206004820152604e60248201527f524c505265616465723a206c656e677468206f6620636f6e74656e74206d757360448201527f742062652067726561746572207468616e20737472696e67206c656e6774682060648201527f2873686f727420737472696e6729000000000000000000000000000000000000608482015260a4016105ea565b6001838101517fff0000000000000000000000000000000000000000000000000000000000000016908214158061431957507f80000000000000000000000000000000000000000000000000000000000000007fff00000000000000000000000000000000000000000000000000000000000000821610155b6143cb576040517f08c379a000000000000000000000000000000000000000000000000000000000815260206004820152604d60248201527f524c505265616465723a20696e76616c6964207072656669782c2073696e676c60448201527f652062797465203c203078383020617265206e6f74207072656669786564202860648201527f73686f727420737472696e672900000000000000000000000000000000000000608482015260a4016105ea565b5060019550935060009250614b53915050565b60bf811161472c5760006143f360b7836158cf565b9050808760000151116144ae576040517f08c379a000000000000000000000000000000000000000000000000000000000815260206004820152605160248201527f524c505265616465723a206c656e677468206f6620636f6e74656e74206d757360448201527f74206265203e207468616e206c656e677468206f6620737472696e67206c656e60648201527f67746820286c6f6e6720737472696e6729000000000000000000000000000000608482015260a4016105ea565b60018301517fff0000000000000000000000000000000000000000000000000000000000000016600081900361458c576040517f08c379a000000000000000000000000000000000000000000000000000000000815260206004820152604a60248201527f524c505265616465723a206c656e677468206f6620636f6e74656e74206d757360448201527f74206e6f74206861766520616e79206c656164696e67207a65726f7320286c6f60648201527f6e6720737472696e672900000000000000000000000000000000000000000000608482015260a4016105ea565b600184015160088302610100031c60378111614650576040517f08c379a000000000000000000000000000000000000000000000000000000000815260206004820152604860248201527f524c505265616465723a206c656e677468206f6620636f6e74656e74206d757360448201527f742062652067726561746572207468616e20353520627974657320286c6f6e6760648201527f20737472696e6729000000000000000000000000000000000000000000000000608482015260a4016105ea565b61465a8184615bd0565b89511161470f576040517f08c379a000000000000000000000000000000000000000000000000000000000815260206004820152604c60248201527f524c505265616465723a206c656e677468206f6620636f6e74656e74206d757360448201527f742062652067726561746572207468616e20746f74616c206c656e677468202860648201527f6c6f6e6720737472696e67290000000000000000000000000000000000000000608482015260a4016105ea565b61471a836001615bd0565b9750955060009450614b539350505050565b60f7811161480d57600061474160c0836158cf565b9050808760000151116147fc576040517f08c379a000000000000000000000000000000000000000000000000000000000815260206004820152604a60248201527f524c505265616465723a206c656e677468206f6620636f6e74656e74206d757360448201527f742062652067726561746572207468616e206c697374206c656e67746820287360648201527f686f7274206c6973742900000000000000000000000000000000000000000000608482015260a4016105ea565b600195509350849250614b53915050565b600061481a60f7836158cf565b9050808760000151116148d5576040517f08c379a000000000000000000000000000000000000000000000000000000000815260206004820152604d60248201527f524c505265616465723a206c656e677468206f6620636f6e74656e74206d757360448201527f74206265203e207468616e206c656e677468206f66206c697374206c656e677460648201527f6820286c6f6e67206c6973742900000000000000000000000000000000000000608482015260a4016105ea565b60018301517fff000000000000000000000000000000000000000000000000000000000000001660008190036149b3576040517f08c379a000000000000000000000000000000000000000000000000000000000815260206004820152604860248201527f524c505265616465723a206c656e677468206f6620636f6e74656e74206d757360448201527f74206e6f74206861766520616e79206c656164696e67207a65726f7320286c6f60648201527f6e67206c69737429000000000000000000000000000000000000000000000000608482015260a4016105ea565b600184015160088302610100031c60378111614a77576040517f08c379a000000000000000000000000000000000000000000000000000000000815260206004820152604660248201527f524c505265616465723a206c656e677468206f6620636f6e74656e74206d757360448201527f742062652067726561746572207468616e20353520627974657320286c6f6e6760648201527f206c697374290000000000000000000000000000000000000000000000000000608482015260a4016105ea565b614a818184615bd0565b895111614b36576040517f08c379a000000000000000000000000000000000000000000000000000000000815260206004820152604a60248201527f524c505265616465723a206c656e677468206f6620636f6e74656e74206d757360448201527f742062652067726561746572207468616e20746f74616c206c656e677468202860648201527f6c6f6e67206c6973742900000000000000000000000000000000000000000000608482015260a4016105ea565b614b41836001615bd0565b9750955060019450614b539350505050565b9193909250565b606060008267ffffffffffffffff811115614b7757614b77615136565b6040519080825280601f01601f191660200182016040528015614ba1576020820181803683370190505b50905082600003614bb357905061287d565b6000614bbf8587615bd0565b90506020820160005b85811015614be0578281015182820152602001614bc8565b85811115614bef576000868301525b50919695505050505050565b606061154c826020015160008460000151614b5a565b60608182601f011015614c80576040517f08c379a000000000000000000000000000000000000000000000000000000000815260206004820152600e60248201527f736c6963655f6f766572666c6f7700000000000000000000000000000000000060448201526064016105ea565b828284011015614cec576040517f08c379a000000000000000000000000000000000000000000000000000000000815260206004820152600e60248201527f736c6963655f6f766572666c6f7700000000000000000000000000000000000060448201526064016105ea565b81830184511015614d59576040517f08c379a000000000000000000000000000000000000000000000000000000000815260206004820152601160248201527f736c6963655f6f75744f66426f756e647300000000000000000000000000000060448201526064016105ea565b606082158015614d785760405191506000825260208201604052614de0565b6040519150601f8416801560200281840101858101878315602002848b0101015b81831015614db1578051835260209283019201614d99565b5050858452601f017fffffffffffffffffffffffffffffffffffffffffffffffffffffffffffffffe016604052505b50949350505050565b60408051808201909152600080825260208201526000825111614eb4576040517f08c379a000000000000000000000000000000000000000000000000000000000815260206004820152604a60248201527f524c505265616465723a206c656e677468206f6620616e20524c50206974656d60448201527f206d7573742062652067726561746572207468616e207a65726f20746f20626560648201527f206465636f6461626c6500000000000000000000000000000000000000000000608482015260a4016105ea565b50604080518082019091528151815260209182019181019190915290565b60606000806000614ee2856140ed565b919450925090506001816001811115614efd57614efd615d88565b14614f8a576040517f08c379a000000000000000000000000000000000000000000000000000000000815260206004820152603860248201527f524c505265616465723a206465636f646564206974656d207479706520666f7260448201527f206c697374206973206e6f742061206c697374206974656d000000000000000060648201526084016105ea565b8451614f968385615bd0565b14615023576040517f08c379a000000000000000000000000000000000000000000000000000000000815260206004820152603260248201527f524c505265616465723a206c697374206974656d2068617320616e20696e766160448201527f6c696420646174612072656d61696e646572000000000000000000000000000060648201526084016105ea565b6040805160208082526104208201909252600091816020015b604080518082019091526000808252602082015281526020019060019003908161503c5790505090506000845b875181101561512a576000806150af6040518060400160405280858d6000015161509391906158cf565b8152602001858d602001516150a89190615bd0565b90526140ed565b5091509150604051806040016040528083836150cb9190615bd0565b8152602001848c602001516150e09190615bd0565b8152508585815181106150f5576150f5615c34565b602090810291909101015261510b600185615bd0565b93506151178183615bd0565b6151219084615bd0565b92505050615069565b50815295945050505050565b7f4e487b7100000000000000000000000000000000000000000000000000000000600052604160045260246000fd5b60405160e0810167ffffffffffffffff8111828210171561518857615188615136565b60405290565b604051601f82017fffffffffffffffffffffffffffffffffffffffffffffffffffffffffffffffe016810167ffffffffffffffff811182821017156151d5576151d5615136565b604052919050565b803573ffffffffffffffffffffffffffffffffffffffff8116811461520157600080fd5b919050565b600082601f83011261521757600080fd5b813567ffffffffffffffff81111561523157615231615136565b61526260207fffffffffffffffffffffffffffffffffffffffffffffffffffffffffffffffe0601f8401160161518e565b81815284602083860101111561527757600080fd5b816020850160208301376000918101602001919091529392505050565b600060e082840312156152a657600080fd5b6152ae615165565b9050813581526152c0602083016151dd565b60208201526152d1604083016151dd565b6040820152606082013560608201526080820135608082015260a082013560a082015260c082013567ffffffffffffffff81111561530e57600080fd5b61531a84828501615206565b60c08301525092915050565b60006020828403121561533857600080fd5b813567ffffffffffffffff81111561534f57600080fd5b61254084828501615294565b60005b8381101561537657818101518382015260200161535e565b83811115611f8f5750506000910152565b6000815180845261539f81602086016020860161535b565b601f017fffffffffffffffffffffffffffffffffffffffffffffffffffffffffffffffe0169290920160200192915050565b60208152600061287d6020830184615387565b6000602082840312156153f657600080fd5b5035919050565b803567ffffffffffffffff8116811461520157600080fd5b801515811461542357600080fd5b50565b60008060008060008060c0878903121561543f57600080fd5b8635955061544f602088016151dd565b945060408701359350615464606088016153fd565b9250608087013561547481615415565b915060a087013567ffffffffffffffff81111561549057600080fd5b61549c89828a01615206565b9150509295509295509295565b6000602082840312156154bb57600080fd5b61287d826153fd565b6000602082840312156154d657600080fd5b813561287d81615415565b600080600080600085870360e08112156154fa57600080fd5b863567ffffffffffffffff8082111561551257600080fd5b61551e8a838b01615294565b97506020890135965060807fffffffffffffffffffffffffffffffffffffffffffffffffffffffffffffffc08401121561555757600080fd5b60408901955060c089013592508083111561557157600080fd5b828901925089601f84011261558557600080fd5b823591508082111561559657600080fd5b508860208260051b84010111156155ac57600080fd5b959894975092955050506020019190565b8681528560208201528460408201527fffffffffffffffff0000000000000000000000000000000000000000000000008460c01b16606082015282151560f81b60688201526000825161561781606985016020870161535b565b91909101606901979650505050505050565b60006020828403121561563b57600080fd5b5051919050565b80516fffffffffffffffffffffffffffffffff8116811461520157600080fd5b60006060828403121561567457600080fd5b6040516060810181811067ffffffffffffffff8211171561569757615697615136565b604052825181526156aa60208401615642565b60208201526156bb60408401615642565b60408201529392505050565b6000602082840312156156d957600080fd5b815161287d81615415565b600084516156f681846020890161535b565b80830190507f2e000000000000000000000000000000000000000000000000000000000000008082528551615732816001850160208a0161535b565b6001920191820152835161574d81600284016020880161535b565b0160020195945050505050565b7f4e487b7100000000000000000000000000000000000000000000000000000000600052601160045260246000fd5b600067ffffffffffffffff808316818516818304811182151516156157b0576157b061575a565b02949350505050565b600067ffffffffffffffff8083168185168083038211156157dc576157dc61575a565b01949350505050565b6000608082840312156157f757600080fd5b6040516080810181811067ffffffffffffffff8211171561581a5761581a615136565b8060405250823581526020830135602082015260408301356040820152606083013560608201528091505092915050565b600067ffffffffffffffff8084111561586657615866615136565b8360051b602061587781830161518e565b86815291850191818101903684111561588f57600080fd5b865b848110156158c3578035868111156158a95760008081fd5b6158b536828b01615206565b845250918301918301615891565b50979650505050505050565b6000828210156158e1576158e161575a565b500390565b7f4e487b7100000000000000000000000000000000000000000000000000000000600052601260045260246000fd5b600082615924576159246158e6565b7fffffffffffffffffffffffffffffffffffffffffffffffffffffffffffffffff83147f8000000000000000000000000000000000000000000000000000000000000000831416156159785761597861575a565b500590565b6000808312837f8000000000000000000000000000000000000000000000000000000000000000018312811516156159b7576159b761575a565b837f7fffffffffffffffffffffffffffffffffffffffffffffffffffffffffffffff0183138116156159eb576159eb61575a565b50500390565b60007f7fffffffffffffffffffffffffffffffffffffffffffffffffffffffffffffff600084136000841385830485118282161615615a3257615a3261575a565b7f80000000000000000000000000000000000000000000000000000000000000006000871286820588128184161615615a6d57615a6d61575a565b60008712925087820587128484161615615a8957615a8961575a565b87850587128184161615615a9f57615a9f61575a565b505050929093029392505050565b6000808212827f7fffffffffffffffffffffffffffffffffffffffffffffffffffffffffffffff03841381151615615ae757615ae761575a565b827f8000000000000000000000000000000000000000000000000000000000000000038412811615615b1b57615b1b61575a565b50500190565b6000817fffffffffffffffffffffffffffffffffffffffffffffffffffffffffffffffff0483118215151615615b5957615b5961575a565b500290565b600082615b6d57615b6d6158e6565b500490565b878152600073ffffffffffffffffffffffffffffffffffffffff80891660208401528088166040840152508560608301528460808301528360a083015260e060c0830152615bc360e0830184615387565b9998505050505050505050565b60008219821115615be357615be361575a565b500190565b60007fffffffffffffffffffffffffffffffffffffffffffffffffffffffffffffffff8203615c1957615c1961575a565b5060010190565b600082615c2f57615c2f6158e6565b500690565b7f4e487b7100000000000000000000000000000000000000000000000000000000600052603260045260246000fd5b805163ffffffff8116811461520157600080fd5b805160ff8116811461520157600080fd5b600060c08284031215615c9a57600080fd5b60405160c0810181811067ffffffffffffffff82111715615cbd57615cbd615136565b604052615cc983615c63565b8152615cd760208401615c77565b6020820152615ce860408401615c77565b6040820152615cf960608401615c63565b6060820152615d0a60808401615c63565b6080820152615d1b60a08401615642565b60a08201529392505050565b600060ff831680615d3a57615d3a6158e6565b8060ff84160691505092915050565b600060ff821660ff841680821015615d6357615d6361575a565b90039392505050565b60008251615d7e81846020870161535b565b9190910192915050565b7f4e487b7100000000000000000000000000000000000000000000000000000000600052602160045260246000fdfea164736f6c634300080f000a",
  "devdoc": {
    "version": 1,
    "kind": "dev",
    "methods": {
      "constructor": {
        "params": {
          "_config": "Address of the SystemConfig contract.",
          "_guardian": "Address that can pause deposits and withdrawals.",
          "_l2Oracle": "Address of the L2OutputOracle contract.",
          "_paused": "Sets the contract's pausability state."
        }
      },
      "depositTransaction(uint256,address,uint256,uint64,bool,bytes)": {
        "params": {
          "_data": "Data to trigger the recipient with.",
          "_gasLimit": "Minimum L2 gas limit (can be greater than or equal to this value).",
          "_isCreation": "Whether or not the transaction is a contract creation.",
          "_mntTxValue": "MNT value to send to the recipient.",
          "_mntValue": "Mint MNT amount to from address on L2",
          "_to": "Target address on L2."
        }
      },
      "finalizeWithdrawalTransaction((uint256,address,address,uint256,uint256,uint256,bytes))": {
        "params": {
          "_tx": "Withdrawal transaction to finalize."
        }
      },
      "isOutputFinalized(uint256)": {
        "params": {
          "_l2OutputIndex": "Index of the L2 output to check."
        },
        "returns": {
          "_0": "Whether or not the output is finalized."
        }
      },
      "proveWithdrawalTransaction((uint256,address,address,uint256,uint256,uint256,bytes),uint256,(bytes32,bytes32,bytes32,bytes32),bytes[])": {
        "params": {
          "_l2OutputIndex": "L2 output index to prove against.",
          "_outputRootProof": "Inclusion proof of the L2ToL1MessagePasser contract's storage root.",
          "_tx": "Withdrawal transaction to finalize.",
          "_withdrawalProof": "Inclusion proof of the withdrawal in L2ToL1MessagePasser contract."
        }
      },
      "version()": {
        "returns": {
          "_0": "Semver contract version as a string."
        }
      }
    },
    "events": {
      "Paused(address)": {
        "params": {
          "account": "Address of the account triggering the pause."
        }
      },
      "TransactionDeposited(address,address,uint256,bytes)": {
        "params": {
          "from": "Address that triggered the deposit transaction.",
          "opaqueData": "ABI encoded deposit data to be parsed off-chain.",
          "to": "Address that the deposit transaction is directed to.",
          "version": "Version of this deposit transaction event."
        }
      },
      "Unpaused(address)": {
        "params": {
          "account": "Address of the account triggering the unpause."
        }
      },
      "WithdrawalFinalized(bytes32,bool)": {
        "params": {
          "success": "Whether the withdrawal transaction was successful.",
          "withdrawalHash": "Hash of the withdrawal transaction."
        }
      },
      "WithdrawalProven(bytes32,address,address)": {
        "params": {
          "withdrawalHash": "Hash of the withdrawal transaction."
        }
      }
    }
  },
  "userdoc": {
    "version": 1,
    "kind": "user",
    "methods": {
      "GUARDIAN()": {
        "notice": "Address that has the ability to pause and unpause withdrawals."
      },
      "L1_MNT_ADDRESS()": {
        "notice": "Address of  the L1 Mantle Token ."
      },
      "L2_ORACLE()": {
        "notice": "Address of the L2OutputOracle contract."
      },
      "SYSTEM_CONFIG()": {
        "notice": "Address of the SystemConfig contract."
      },
      "depositTransaction(uint256,address,uint256,uint64,bool,bytes)": {
        "notice": "Accepts deposits of ETH and data, and emits a TransactionDeposited event for use in         deriving deposit transactions. Note that if a deposit is made by a contract, its         address will be aliased when retrieved using `tx.origin` or `msg.sender`. Consider         using the CrossDomainMessenger contracts for a simpler developer experience."
      },
      "donateETH()": {
        "notice": "Accepts ETH value without triggering a deposit to L2. This function mainly exists         for the sake of the migration between the legacy Optimism system and Bedrock."
      },
      "finalizeWithdrawalTransaction((uint256,address,address,uint256,uint256,uint256,bytes))": {
        "notice": "Finalizes a withdrawal transaction."
      },
      "finalizedWithdrawals(bytes32)": {
        "notice": "A list of withdrawal hashes which have been successfully finalized."
      },
      "initialize(bool)": {
        "notice": "Initializer."
      },
      "isOutputFinalized(uint256)": {
        "notice": "Determine if a given output is finalized. Reverts if the call to         L2_ORACLE.getL2Output reverts. Returns a boolean otherwise."
      },
      "l2Sender()": {
        "notice": "Address of the L2 account which initiated a withdrawal in this transaction. If the         of this variable is the default L2 sender address, then we are NOT inside of a call         to finalizeWithdrawalTransaction."
      },
      "minimumGasLimit(uint64)": {
        "notice": "Computes the minimum gas limit for a deposit. The minimum gas limit         linearly increases based on the size of the calldata. This is to prevent         users from creating L2 resource usage without paying for it. This function         can be used when interacting with the portal to ensure forwards compatibility."
      },
      "params()": {
        "notice": "EIP-1559 style gas parameters."
      },
      "pause()": {
        "notice": "Pause deposits and withdrawals."
      },
      "paused()": {
        "notice": "Determines if cross domain messaging is paused. When set to true,         withdrawals are paused. This may be removed in the future."
      },
      "proveWithdrawalTransaction((uint256,address,address,uint256,uint256,uint256,bytes),uint256,(bytes32,bytes32,bytes32,bytes32),bytes[])": {
        "notice": "Proves a withdrawal transaction."
      },
      "provenWithdrawals(bytes32)": {
        "notice": "A mapping of withdrawal hashes to `ProvenWithdrawal` data."
      },
      "unpause()": {
        "notice": "Unpause deposits and withdrawals."
      },
      "version()": {
        "notice": "Returns the full semver contract version."
      }
    },
    "events": {
      "Paused(address)": {
        "notice": "Emitted when the pause is triggered."
      },
      "TransactionDeposited(address,address,uint256,bytes)": {
        "notice": "Emitted when a transaction is deposited from L1 to L2. The parameters of this event         are read by the rollup node and used to derive deposit transactions on L2."
      },
      "Unpaused(address)": {
        "notice": "Emitted when the pause is lifted."
      },
      "WithdrawalFinalized(bytes32,bool)": {
        "notice": "Emitted when a withdrawal transaction is finalized."
      },
      "WithdrawalProven(bytes32,address,address)": {
        "notice": "Emitted when a withdrawal transaction is proven."
      }
    },
    "notice": "The OptimismPortal is a low-level contract responsible for passing messages between L1         and L2. Messages sent directly to the OptimismPortal have no form of replayability.         Users are encouraged to use the L1CrossDomainMessenger for a higher-level interface."
  },
  "storageLayout": {
    "storage": [
      {
        "astId": 64836,
        "contract": "contracts/L1/OptimismPortal.sol:OptimismPortal",
        "label": "_initialized",
        "offset": 0,
        "slot": "0",
        "type": "t_uint8"
      },
      {
        "astId": 64839,
        "contract": "contracts/L1/OptimismPortal.sol:OptimismPortal",
        "label": "_initializing",
        "offset": 1,
        "slot": "0",
        "type": "t_bool"
      },
      {
        "astId": 3180,
        "contract": "contracts/L1/OptimismPortal.sol:OptimismPortal",
        "label": "params",
        "offset": 0,
        "slot": "1",
        "type": "t_struct(ResourceParams)3163_storage"
      },
      {
        "astId": 3185,
        "contract": "contracts/L1/OptimismPortal.sol:OptimismPortal",
        "label": "__gap",
        "offset": 0,
        "slot": "2",
        "type": "t_array(t_uint256)48_storage"
      },
      {
        "astId": 2481,
        "contract": "contracts/L1/OptimismPortal.sol:OptimismPortal",
        "label": "l2Sender",
        "offset": 0,
        "slot": "50",
        "type": "t_address"
      },
      {
        "astId": 2486,
        "contract": "contracts/L1/OptimismPortal.sol:OptimismPortal",
        "label": "finalizedWithdrawals",
        "offset": 0,
        "slot": "51",
        "type": "t_mapping(t_bytes32,t_bool)"
      },
      {
        "astId": 2492,
        "contract": "contracts/L1/OptimismPortal.sol:OptimismPortal",
        "label": "provenWithdrawals",
        "offset": 0,
        "slot": "52",
        "type": "t_mapping(t_bytes32,t_struct(ProvenWithdrawal)2456_storage)"
      },
      {
        "astId": 2495,
        "contract": "contracts/L1/OptimismPortal.sol:OptimismPortal",
        "label": "paused",
        "offset": 0,
        "slot": "53",
        "type": "t_bool"
      }
    ],
    "types": {
      "t_address": {
        "encoding": "inplace",
        "label": "address",
        "numberOfBytes": "20"
      },
      "t_array(t_uint256)48_storage": {
        "encoding": "inplace",
        "label": "uint256[48]",
        "numberOfBytes": "1536",
        "base": "t_uint256"
      },
      "t_bool": {
        "encoding": "inplace",
        "label": "bool",
        "numberOfBytes": "1"
      },
      "t_bytes32": {
        "encoding": "inplace",
        "label": "bytes32",
        "numberOfBytes": "32"
      },
      "t_mapping(t_bytes32,t_bool)": {
        "encoding": "mapping",
        "key": "t_bytes32",
        "label": "mapping(bytes32 => bool)",
        "numberOfBytes": "32",
        "value": "t_bool"
      },
      "t_mapping(t_bytes32,t_struct(ProvenWithdrawal)2456_storage)": {
        "encoding": "mapping",
        "key": "t_bytes32",
        "label": "mapping(bytes32 => struct OptimismPortal.ProvenWithdrawal)",
        "numberOfBytes": "32",
        "value": "t_struct(ProvenWithdrawal)2456_storage"
      },
      "t_struct(ProvenWithdrawal)2456_storage": {
        "encoding": "inplace",
        "label": "struct OptimismPortal.ProvenWithdrawal",
        "numberOfBytes": "64",
        "members": [
          {
            "astId": 2451,
            "contract": "contracts/L1/OptimismPortal.sol:OptimismPortal",
            "label": "outputRoot",
            "offset": 0,
            "slot": "0",
            "type": "t_bytes32"
          },
          {
            "astId": 2453,
            "contract": "contracts/L1/OptimismPortal.sol:OptimismPortal",
            "label": "timestamp",
            "offset": 0,
            "slot": "1",
            "type": "t_uint128"
          },
          {
            "astId": 2455,
            "contract": "contracts/L1/OptimismPortal.sol:OptimismPortal",
            "label": "l2OutputIndex",
            "offset": 16,
            "slot": "1",
            "type": "t_uint128"
          }
        ]
      },
      "t_struct(ResourceParams)3163_storage": {
        "encoding": "inplace",
        "label": "struct ResourceMetering.ResourceParams",
        "numberOfBytes": "32",
        "members": [
          {
            "astId": 3158,
            "contract": "contracts/L1/OptimismPortal.sol:OptimismPortal",
            "label": "prevBaseFee",
            "offset": 0,
            "slot": "0",
            "type": "t_uint128"
          },
          {
            "astId": 3160,
            "contract": "contracts/L1/OptimismPortal.sol:OptimismPortal",
            "label": "prevBoughtGas",
            "offset": 16,
            "slot": "0",
            "type": "t_uint64"
          },
          {
            "astId": 3162,
            "contract": "contracts/L1/OptimismPortal.sol:OptimismPortal",
            "label": "prevBlockNum",
            "offset": 24,
            "slot": "0",
            "type": "t_uint64"
          }
        ]
      },
      "t_uint128": {
        "encoding": "inplace",
        "label": "uint128",
        "numberOfBytes": "16"
      },
      "t_uint256": {
        "encoding": "inplace",
        "label": "uint256",
        "numberOfBytes": "32"
      },
      "t_uint64": {
        "encoding": "inplace",
        "label": "uint64",
        "numberOfBytes": "8"
      },
      "t_uint8": {
        "encoding": "inplace",
        "label": "uint8",
        "numberOfBytes": "1"
      }
    }
  }
}