{"abi":[{"type":"function","name":"emitData","inputs":[{"name":"_data","type":"bytes","internalType":"bytes"}],"outputs":[],"stateMutability":"nonpayable"},{"type":"event","name":"DataEmitted","inputs":[{"name":"data","type":"bytes","indexed":true,"internalType":"bytes"}],"anonymous":false}],"bytecode":{"object":"0x6080604052348015600e575f5ffd5b506101018061001c5f395ff3fe6080604052348015600e575f5ffd5b50600436106026575f3560e01c8063d836083e14602a575b5f5ffd5b60396035366004607c565b603b565b005b8181604051604992919060e5565b604051908190038120907fe00bbfe6f6f8f1bbed2da38e3f5a139c6f9da594ab248a3cf8b44fc73627772c905f90a25050565b5f5f60208385031215608c575f5ffd5b823567ffffffffffffffff81111560a1575f5ffd5b8301601f8101851360b0575f5ffd5b803567ffffffffffffffff81111560c5575f5ffd5b85602082840101111560d5575f5ffd5b6020919091019590945092505050565b818382375f910190815291905056fea164736f6c634300081c000a","linkReferences":{}},"methodIdentifiers":{"emitData(bytes)":"d836083e"},"storageLayout":{"storage":[],"types":{}},"userdoc":{"version":1,"kind":"user"},"devdoc":{"version":1,"kind":"dev"},"id":3}