{"abi":[{"type":"function","name":"invokePrecompile","inputs":[{"name":"_precompile","type":"address","internalType":"address"},{"name":"_input","type":"bytes","internalType":"bytes"}],"outputs":[],"stateMutability":"nonpayable"},{"type":"event","name":"PrecompileInvoked","inputs":[{"name":"precompile","type":"address","indexed":true,"internalType":"address"},{"name":"result","type":"bytes","indexed":false,"internalType":"bytes"},{"name":"delegateCallResult","type":"bytes","indexed":false,"internalType":"bytes"}],"anonymous":false},{"type":"error","name":"PrecompileCallFailed","inputs":[]}],"bytecode":{"object":"0x6080604052348015600e575f5ffd5b506103bf8061001c5f395ff3fe608060405234801561000f575f5ffd5b5060043610610029575f3560e01c8063051f3bdf1461002d575b5f5ffd5b61004061003b366004610208565b610042565b005b5f5f8373ffffffffffffffffffffffffffffffffffffffff16836040516100699190610323565b5f604051808303815f865af19150503d805f81146100a2576040519150601f19603f3d011682016040523d82523d5f602084013e6100a7565b606091505b5091509150816100e3576040517ffd23ff6400000000000000000000000000000000000000000000000000000000815260040160405180910390fd5b60608473ffffffffffffffffffffffffffffffffffffffff168460405161010a9190610323565b5f60405180830381855af49150503d805f8114610142576040519150601f19603f3d011682016040523d82523d5f602084013e610147565b606091505b50909350905082610184576040517ffd23ff6400000000000000000000000000000000000000000000000000000000815260040160405180910390fd5b8473ffffffffffffffffffffffffffffffffffffffff167fc331673664ab9732fd2c0b1a4aa0cd948da43af82aca20906b4c306c7228e07983836040516101cc929190610385565b60405180910390a25050505050565b7f4e487b71000000000000000000000000000000000000000000000000000000005f52604160045260245ffd5b5f5f60408385031215610219575f5ffd5b823573ffffffffffffffffffffffffffffffffffffffff8116811461023c575f5ffd5b9150602083013567ffffffffffffffff811115610257575f5ffd5b8301601f81018513610267575f5ffd5b803567ffffffffffffffff811115610281576102816101db565b6040517fffffffffffffffffffffffffffffffffffffffffffffffffffffffffffffffe0603f7fffffffffffffffffffffffffffffffffffffffffffffffffffffffffffffffe0601f8501160116810181811067ffffffffffffffff821117156102ed576102ed6101db565b604052818152828201602001871015610304575f5ffd5b816020840160208301375f602083830101528093505050509250929050565b5f82518060208501845e5f920191825250919050565b5f81518084528060208401602086015e5f6020828601015260207fffffffffffffffffffffffffffffffffffffffffffffffffffffffffffffffe0601f83011685010191505092915050565b604081525f6103976040830185610339565b82810360208401526103a98185610339565b9594505050505056fea164736f6c634300081c000a","linkReferences":{}},"methodIdentifiers":{"invokePrecompile(address,bytes)":"051f3bdf"},"storageLayout":{"storage":[],"types":{}},"userdoc":{"version":1,"kind":"user"},"devdoc":{"version":1,"kind":"dev"},"id":0}