{"abi":[{"type":"function","name":"invokePrecompile","inputs":[{"name":"_precompile","type":"address","internalType":"address"},{"name":"_input","type":"bytes","internalType":"bytes"}],"outputs":[],"stateMutability":"nonpayable"},{"type":"event","name":"PrecompileInvoked","inputs":[{"name":"precompile","type":"address","indexed":true,"internalType":"address"},{"name":"result","type":"bytes","indexed":false,"internalType":"bytes"}],"anonymous":false},{"type":"error","name":"PrecompileCallFailed","inputs":[]}],"bytecode":{"object":"0x6080604052348015600e575f5ffd5b506102f58061001c5f395ff3fe608060405234801561000f575f5ffd5b5060043610610029575f3560e01c8063051f3bdf1461002d575b5f5ffd5b61004061003b366004610164565b610042565b005b5f5f8373ffffffffffffffffffffffffffffffffffffffff1683604051610069919061027f565b5f604051808303815f865af19150503d805f81146100a2576040519150601f19603f3d011682016040523d82523d5f602084013e6100a7565b606091505b5091509150816100e3576040517ffd23ff6400000000000000000000000000000000000000000000000000000000815260040160405180910390fd5b8373ffffffffffffffffffffffffffffffffffffffff167fde9caeb04cbecadc4b3b08dd3b026ff047428c7c681a368b2b48d1097bf465a8826040516101299190610295565b60405180910390a250505050565b7f4e487b71000000000000000000000000000000000000000000000000000000005f52604160045260245ffd5b5f5f60408385031215610175575f5ffd5b823573ffffffffffffffffffffffffffffffffffffffff81168114610198575f5ffd5b9150602083013567ffffffffffffffff8111156101b3575f5ffd5b8301601f810185136101c3575f5ffd5b803567ffffffffffffffff8111156101dd576101dd610137565b6040517fffffffffffffffffffffffffffffffffffffffffffffffffffffffffffffffe0603f7fffffffffffffffffffffffffffffffffffffffffffffffffffffffffffffffe0601f8501160116810181811067ffffffffffffffff8211171561024957610249610137565b604052818152828201602001871015610260575f5ffd5b816020840160208301375f602083830101528093505050509250929050565b5f82518060208501845e5f920191825250919050565b602081525f82518060208401528060208501604085015e5f6040828501015260407fffffffffffffffffffffffffffffffffffffffffffffffffffffffffffffffe0601f8301168401019150509291505056fea164736f6c634300081c000a","linkReferences":{}},"methodIdentifiers":{"invokePrecompile(address,bytes)":"051f3bdf"},"storageLayout":{"storage":[],"types":{}},"userdoc":{"version":1,"kind":"user"},"devdoc":{"version":1,"kind":"dev"},"id":0}